{"abi":[{"type":"constructor","inputs":[],"stateMutability":"nonpayable"},{"type":"function","name":"RULER_LENGTH_COUNT","inputs":[],"outputs":[{"name":"","type":"uint8","internalType":"uint8"}],"stateMutability":"view"},{"type":"function","name":"RULER_MAX_LENGTH","inputs":[],"outputs":[{"name":"","type":"uint8","internalType":"uint8"}],"stateMutability":"view"},{"type":"function","name":"RULER_MIN_LENGTH","inputs":[],"outputs":[{"name":"","type":"uint8","internalType":"uint8"}],"stateMutability":"view"},{"type":"function","name":"SPELL_ANCHOR","inputs":[],"outputs":[{"name":"","type":"uint8","internalType":"uint8"}],"stateMutability":"view"},{"type":"function","name":"SPELL_GEM","inputs":[],"outputs":[{"name":"","type":"uint8","internalType":"uint8"}],"stateMutability":"view"},{"type":"function","name":"SPELL_SEAL","inputs":[],"outputs":[{"name":"","type":"uint8","internalType":"uint8"}],"stateMutability":"view"},{"type":"function","name":"SPELL_VETO","inputs":[],"outputs":[{"name":"","type":"uint8","internalType":"uint8"}],"stateMutability":"view"},{"type":"function","name":"generateRulerCommitment","inputs":[{"name":"roundId","type":"uint256","internalType":"uint256"},{"name":"lengths","type":"uint8[3]","internalType":"uint8[3]"},{"name":"salt","type":"bytes32","internalType":"bytes32"}],"outputs":[{"name":"","type":"bytes32","internalType":"bytes32"}],"stateMutability":"pure"},{"type":"function","name":"getRulerWeights","inputs":[],"outputs":[{"name":"","type":"uint16[9]","internalType":"uint16[9]"}],"stateMutability":"view"},{"type":"function","name":"getSpellName","inputs":[{"name":"spellId","type":"uint8","internalType":"uint8"}],"outputs":[{"name":"","type":"string","internalType":"string"}],"stateMutability":"pure"},{"type":"function","name":"owner","inputs":[],"outputs":[{"name":"","type":"address","internalType":"address"}],"stateMutability":"view"},{"type":"function","name":"rulerWeights","inputs":[{"name":"","type":"uint256","internalType":"uint256"}],"outputs":[{"name":"","type":"uint16","internalType":"uint16"}],"stateMutability":"view"},{"type":"function","name":"selectRulerLengths","inputs":[{"name":"randomSeed","type":"bytes32","internalType":"bytes32"}],"outputs":[{"name":"lengths","type":"uint8[3]","internalType":"uint8[3]"}],"stateMutability":"view"},{"type":"function","name":"setRulerWeights","inputs":[{"name":"newWeights","type":"uint16[9]","internalType":"uint16[9]"}],"outputs":[],"stateMutability":"nonpayable"},{"type":"function","name":"totalWeight","inputs":[],"outputs":[{"name":"","type":"uint16","internalType":"uint16"}],"stateMutability":"view"},{"type":"function","name":"transferOwnership","inputs":[{"name":"newOwner","type":"address","internalType":"address"}],"outputs":[],"stateMutability":"nonpayable"},{"type":"function","name":"validateRulerLengths","inputs":[{"name":"lengths","type":"uint8[3]","internalType":"uint8[3]"}],"outputs":[{"name":"","type":"bool","internalType":"bool"}],"stateMutability":"pure"},{"type":"function","name":"validateWordLength","inputs":[{"name":"wordLength","type":"uint256","internalType":"uint256"},{"name":"validLengths","type":"uint8[3]","internalType":"uint8[3]"}],"outputs":[{"name":"","type":"bool","internalType":"bool"}],"stateMutability":"pure"},{"type":"function","name":"verifyRulerCommitment","inputs":[{"name":"roundId","type":"uint256","internalType":"uint256"},{"name":"lengths","type":"uint8[3]","internalType":"uint8[3]"},{"name":"rulerSalt","type":"bytes32","internalType":"bytes32"},{"name":"commitHash","type":"bytes32","internalType":"bytes32"}],"outputs":[{"name":"","type":"bool","internalType":"bool"}],"stateMutability":"pure"},{"type":"event","name":"RulerWeightsUpdated","inputs":[{"name":"newWeights","type":"uint16[9]","indexed":false,"internalType":"uint16[9]"},{"name":"totalWeight","type":"uint16","indexed":false,"internalType":"uint16"}],"anonymous":false}],"bytecode":{"object":"0x6080806040523461005b57600180545f80546001600160901b0319167010000f000d000b000900070006000500051790556001600160b01b0319163360101b62010000600160b01b0316176057179055610ef290816100608239f35b5f80fdfe6080806040526004361015610012575f80fd5b5f3560e01c9081628b805214610be157508063016a2f5f14610bc657806302664ba914610bab57806307fbd32d1461089a57806334b573af146108225780634e9715431461080857806354c442e6146107675780636fc098631461074c57806389df8947146107315780638da5cb5b1461070557806396c82e57146106e4578063aaccd345146106c9578063ccbfc92b14610555578063d58133ed146104bd578063d924879c14610429578063e4abd2ba1461040e578063f2fde38b14610376578063fb46f8531461031a5763ffe1da88146100ec575f80fd5b3461031657606036600319011261031657606436606411610316575f905f805b6003808210156102825760ff9060048261012d61012886610d4c565b610e9d565b1610158061026a575b1561022f5760019081840180851161021b575b8181106101b157505050600b8161016261012885610d4c565b16101561019d575b60059061017961012884610d4c565b161115610189575b60010161010c565b90610195600191610eab565b919050610181565b936101a9600591610eab565b94905061016a565b6101c2610128869893949596610d4c565b85806101d061012885610d4c565b169116146101e5578301959392919095610149565b5060405162461bcd60e51b815260206004820152601060248201526f088eae0d8d2c6c2e8ca40d8cadccee8d60831b6044820152fd5b634e487b7160e01b5f52601160045260245ffd5b60405162461bcd60e51b81526020600482015260146024820152734c656e677468206f7574206f6620626f756e647360601b60448201528590fd5b50600c8261027a61012886610d4c565b161115610136565b82600160ff8716116102dc5760ff60019116116102a457602060405160018152f35b60405162461bcd60e51b815260206004820152601060248201526f4d6178206f6e65206f66207b342c357d60801b6044820152606490fd5b60405162461bcd60e51b81526020600482015260126024820152714d6178206f6e65206f66207b31312c31327d60701b6044820152606490fd5b5f80fd5b34610316575f3660031901126103165760405161033681610c33565b6101208091369037610346610c8e565b604051905f90825b6009831061035b57505050f35b60019061ffff8351168152602080910192019201919061034e565b34610316576020366003190112610316576001600160a01b03600435818116808203610316576103af600154938460101c163314610e25565b156103d95762010000600160b01b031990911660109190911b62010000600160b01b031617600155005b60405162461bcd60e51b815260206004820152600d60248201526c24b73b30b634b21037bbb732b960991b6044820152606490fd5b34610316575f36600319011261031657602060405160018152f35b346103165760a0366003190112610316573660841161031657602061044c610e6d565b610454610e7d565b906104b2610460610e8d565b6040516004358682019081526001600160f81b031960f895861b8116602083015295851b861660218201529190931b90931660228401526084356023840152816043840103601f198101835282610c6c565b519020604051908152f35b346103165760c036600319011261031657366084116103165760206104e0610e6d565b6104e8610e7d565b6105456104f3610e8d565b6040516004358682019081526001600160f81b031960f896871b8116602083015294861b851660218201529190941b90921660228301526084356023830152826043830103601f198101845283610c6c565b60a4359151902014604051908152f35b3461031657610120806003193601126103165736610124116103165760018054909161058f33601084901c6001600160a01b031614610e25565b5f925f5b6009811061064b57505f6004815b8360098210610620575050505f5561ffff809416809361ffff19161760015560405193846004905f905b60098210610600577f35982077b19ad5f7fe8f27a03a7daa0a767306ea75884ce2e4513e1a4be17205610140898989820152a1005b8235908482168092036103165790815260209283019291850191016105cb565b90919260209061062f85610e5e565b908460041b9161ffff809116831b921b191617930191016105a1565b9361ffff61066061065b87610cff565b610e5e565b16156106845761067d829161067761065b88610cff565b90610d22565b9401610593565b60405162461bcd60e51b815260206004820152601760248201527f576569676874206d75737420626520706f7369746976650000000000000000006044820152606490fd5b34610316575f36600319011261031657602060405160038152f35b34610316575f36600319011261031657602061ffff60015416604051908152f35b34610316575f3660031901126103165760015460405160109190911c6001600160a01b03168152602090f35b34610316575f366003190112610316576020604051600c8152f35b34610316575f36600319011261031657602060405160048152f35b346103165760803660031901126103165760043536604312156103165760405161079081610c17565b8091608436608411610316576024935b8185106107ee576020848460ff82511681149182156107de575b82156107cd575b50506040519015158152f35b6040015160ff1614905082806107c1565b8381015160ff16821492506107ba565b843560ff81168103610316578152602094850194016107a0565b34610316575f3660031901126103165760206040515f8152f35b34610316576020806003193601126103165760043560ff811681036103165761084a90610d5e565b6040518092602082528251908160208401525f935b828510610881575050604092505f838284010152601f80199101168101030190f35b848101820151868601604001529381019385935061085f565b34610316576020366003190112610316576040516108b781610c17565b60603682376108c4610c8e565b9061ffff600154165f925f80945b6003861015610b7e5760405160208101906004358252876040820152604081526108fb81610c17565b519020925f955f5b871580610b74575b15610b195761ffff87168015610b05575f90815b600983106109a2575b5050505f19811461021b57600101958715610944575b95610903565b945060405160043560208201528860408201528660608201526060815280608081011067ffffffffffffffff60808301111761098e5760808101604052602081519101209461093e565b634e487b7160e01b5f52604160045260245ffd5b61ffff6109b584889c969c9b959b610d11565b511615610afc576109d59061ffff6109cd8b89610d11565b511690610d22565b9761ffff891661ffff83850616106109f6576001905b01919798929861091f565b98999197505060048801881161021b575f90600b60048a0160ff161015908180610af5575b610aec575b600560048b0160ff161115928380610ae5575b610add575b610ab5575060038b1015610aa15760ff60048a01168b60051b850152610a98575b610a8f575b610a82610a7b5f9261ffff610a738b88610d11565b511690610d38565b9784610d11565b526001965b898080610928565b60019450610a5e565b60019450610a59565b634e487b7160e01b5f52603260045260245ffd5b99925f9250610ad79150610ad09061ffff610a738c89610d11565b9885610d11565b52610a87565b506001610a38565b5088610a33565b60019250610a20565b5086610a1b565b976001906109eb565b634e487b7160e01b5f52601260045260245ffd5b509590935095909515610b2f57600101946108d2565b60405162461bcd60e51b815260206004820152601d60248201527f4661696c656420746f2073656c6563742076616c6964206c656e6774680000006044820152606490fd5b506014811061090b565b604051855f825b60038210610b9257606084f35b60208060019260ff865116815201930191019091610b85565b34610316575f36600319011261031657602060405160028152f35b34610316575f36600319011261031657602060405160098152f35b34610316576020366003190112610316576004359060098210156103165761ffff8260f060209460041c549160041b161c168152f35b6060810190811067ffffffffffffffff82111761098e57604052565b610120810190811067ffffffffffffffff82111761098e57604052565b6040810190811067ffffffffffffffff82111761098e57604052565b90601f8019910116810190811067ffffffffffffffff82111761098e57604052565b604051905f5461ffff908181168452818160101c166020850152818160201c166040850152818160301c166060850152818160401c166080850152818160501c1660a0850152818160601c1660c0850152818160701c1660e085015260801c16610100830152610cfd82610c33565b565b6009811015610aa15760051b60040190565b906009811015610aa15760051b0190565b91909161ffff8080941691160191821161021b57565b61ffff918216908216039190821161021b57565b6003811015610aa15760051b60040190565b60ff168015610e045760018114610de15760028114610dc057600314610da157604051610d8a81610c50565b60078152662ab735b737bbb760c91b602082015290565b604051610dad81610c50565b600381526247656d60e81b602082015290565b50604051610dcd81610c50565b600481526314d9585b60e21b602082015290565b50604051610dee81610c50565b600681526520b731b437b960d11b602082015290565b50604051610e1181610c50565b60048152635665746f60e01b602082015290565b15610e2c57565b60405162461bcd60e51b815260206004820152600a60248201526927b7363c9037bbb732b960b11b6044820152606490fd5b3561ffff811681036103165790565b60243560ff811681036103165790565b60443560ff811681036103165790565b60643560ff811681036103165790565b3560ff811681036103165790565b60ff1660ff811461021b576001019056fea2646970667358221220915d3632660977525e5a35ce01a1477edb66e1df5e887a759b90f1567ecc5bf664736f6c63430008180033","linkReferences":{}},"methodIdentifiers":{"RULER_LENGTH_COUNT()":"016a2f5f","RULER_MAX_LENGTH()":"89df8947","RULER_MIN_LENGTH()":"6fc09863","SPELL_ANCHOR()":"e4abd2ba","SPELL_GEM()":"aaccd345","SPELL_SEAL()":"02664ba9","SPELL_VETO()":"4e971543","generateRulerCommitment(uint256,uint8[3],bytes32)":"d924879c","getRulerWeights()":"fb46f853","getSpellName(uint8)":"34b573af","owner()":"8da5cb5b","rulerWeights(uint256)":"008b8052","selectRulerLengths(bytes32)":"07fbd32d","setRulerWeights(uint16[9])":"ccbfc92b","totalWeight()":"96c82e57","transferOwnership(address)":"f2fde38b","validateRulerLengths(uint8[3])":"ffe1da88","validateWordLength(uint256,uint8[3])":"54c442e6","verifyRulerCommitment(uint256,uint8[3],bytes32,bytes32)":"d58133ed"},"id":35}