{"abi":[{"type":"constructor","inputs":[],"stateMutability":"nonpayable"},{"type":"function","name":"categoryRoots","inputs":[{"name":"","type":"bytes32","internalType":"bytes32"}],"outputs":[{"name":"","type":"bytes32","internalType":"bytes32"}],"stateMutability":"view"},{"type":"function","name":"dictionaryRoot","inputs":[],"outputs":[{"name":"","type":"bytes32","internalType":"bytes32"}],"stateMutability":"view"},{"type":"function","name":"owner","inputs":[],"outputs":[{"name":"","type":"address","internalType":"address"}],"stateMutability":"view"},{"type":"function","name":"setCategoryRoot","inputs":[{"name":"categoryHash","type":"bytes32","internalType":"bytes32"},{"name":"_root","type":"bytes32","internalType":"bytes32"}],"outputs":[],"stateMutability":"nonpayable"},{"type":"function","name":"setDictionaryRoot","inputs":[{"name":"_root","type":"bytes32","internalType":"bytes32"}],"outputs":[],"stateMutability":"nonpayable"},{"type":"function","name":"transferOwnership","inputs":[{"name":"newOwner","type":"address","internalType":"address"}],"outputs":[],"stateMutability":"nonpayable"},{"type":"function","name":"verifyCategoryMembership","inputs":[{"name":"proof","type":"bytes32[]","internalType":"bytes32[]"},{"name":"categoryHash","type":"bytes32","internalType":"bytes32"},{"name":"word","type":"string","internalType":"string"}],"outputs":[{"name":"","type":"bool","internalType":"bool"}],"stateMutability":"view"},{"type":"function","name":"verifyWord","inputs":[{"name":"proof","type":"bytes32[]","internalType":"bytes32[]"},{"name":"word","type":"string","internalType":"string"}],"outputs":[{"name":"","type":"bool","internalType":"bool"}],"stateMutability":"view"},{"type":"event","name":"CategoryRootUpdated","inputs":[{"name":"categoryHash","type":"bytes32","indexed":true,"internalType":"bytes32"},{"name":"newRoot","type":"bytes32","indexed":false,"internalType":"bytes32"}],"anonymous":false},{"type":"event","name":"DictionaryRootUpdated","inputs":[{"name":"newRoot","type":"bytes32","indexed":false,"internalType":"bytes32"}],"anonymous":false}],"bytecode":{"object":"0x6080806040523461002857600280546001600160a01b0319163317905561068d908161002d8239f35b5f80fdfe608060409080825260049081361015610016575f80fd5b5f3560e01c90816352965dcb14610280575080637257a3fa146102635780638da5cb5b1461023b578063a5c4ba48146101a4578063c173441f14610141578063e51683f614610119578063f2fde38b146100d35763f7201c9c14610078575f80fd5b346100cf5760203660031901126100cf577f0c0c58f297f89cc6a2b5621136dc84e01f33e7fdf416e503be5f9fdb38e8383e9160209135906100c560018060a01b0360025416331461046c565b815f5551908152a1005b5f80fd5b50346100cf5760203660031901126100cf57356001600160a01b03818116918290036100cf57610109600254918216331461046c565b6001600160a01b03191617600255005b5090346100cf5760203660031901126100cf57602091355f5260018252805f20549051908152f35b50346100cf57816003193601126100cf5760207fee9c6aed093b0b618ce4b4b03bd30fe1a42681f0300cf19aff933308507166d79135926024359061019160018060a01b0360025416331461046c565b845f526001835281815f205551908152a2005b5090346100cf57806003193601126100cf5767ffffffffffffffff9180358381116100cf576101d69036908301610357565b6024359485116100cf5761022d6101fe6101f861023295602098369101610388565b906104e6565b855161021f816102118a820180956103b6565b03601f1981018352826103df565b519020925f54923691610415565b61060b565b90519015158152f35b82346100cf575f3660031901126100cf5760025490516001600160a01b039091168152602090f35b82346100cf575f3660031901126100cf576020905f549051908152f35b839150346100cf5760603660031901126100cf5767ffffffffffffffff9083358281116100cf576102b49036908601610357565b926044359081116100cf576102cc9036908701610388565b906024355f526001602052855f205493841561031657602087610232888861022d896102f88a8a6104e6565b865161030b816102118b820180956103b6565b519020933691610415565b62461bcd60e51b8152602088820152601760248201527f43617465676f7279206e6f7420726567697374657265640000000000000000006044820152606490fd5b9181601f840112156100cf5782359167ffffffffffffffff83116100cf576020808501948460051b0101116100cf57565b9181601f840112156100cf5782359167ffffffffffffffff83116100cf57602083818601950101116100cf57565b908151915f5b8381106103cc575050015f815290565b80602080928401015181850152016103bc565b90601f8019910116810190811067ffffffffffffffff82111761040157604052565b634e487b7160e01b5f52604160045260245ffd5b90929167ffffffffffffffff8411610401578360051b602092602060405161043f828501826103df565b80978152019181019283116100cf57905b82821061045d5750505050565b81358152908301908301610450565b1561047357565b60405162461bcd60e51b815260206004820152600a60248201526927b7363c9037bbb732b960b11b6044820152606490fd5b67ffffffffffffffff811161040157601f01601f191660200190565b9081518110156104d2570160200190565b634e487b7160e01b5f52603260045260245ffd5b9190916104f2836104a5565b9261050060405194856103df565b80845260209136828201116100cf57815f926020928388013785010152825190610529826104a5565b9161053760405193846103df565b808352610546601f19916104a5565b013660208401375f5b8451811015610604576001600160f81b031990604160f81b8261057283896104c1565b51161015806105ea575b156105c95761058b81876104c1565b51918360f893841c0160ff81116105b5576001931b165f1a6105ad82866104c1565b535b0161054f565b634e487b7160e01b5f52601160045260245ffd5b6001916105d682886104c1565b51165f1a6105e482866104c1565b536105af565b50602d60f91b826105fb83896104c1565b5116111561057c565b5090925050565b9091905f915b8151831015610650576020808460051b84010151918281105f14610641575f5252600160405f205b920191610611565b915f5252600160405f20610639565b915050149056fea264697066735822122046750836d2a7c58fc173b9a94438a6e702514a26a0840418eeed9561f875263964736f6c63430008180033","linkReferences":{}},"methodIdentifiers":{"categoryRoots(bytes32)":"e51683f6","dictionaryRoot()":"7257a3fa","owner()":"8da5cb5b","setCategoryRoot(bytes32,bytes32)":"c173441f","setDictionaryRoot(bytes32)":"f7201c9c","transferOwnership(address)":"f2fde38b","verifyCategoryMembership(bytes32[],bytes32,string)":"52965dcb","verifyWord(bytes32[],string)":"a5c4ba48"},"id":32}