{"abi":[{"type":"constructor","inputs":[{"name":"_token","type":"address","internalType":"address"},{"name":"_game","type":"address","internalType":"address"}],"stateMutability":"nonpayable"},{"type":"function","name":"claimMultipleRewards","inputs":[{"name":"roundIds","type":"uint256[]","internalType":"uint256[]"}],"outputs":[],"stateMutability":"nonpayable"},{"type":"function","name":"claimRoundReward","inputs":[{"name":"roundId","type":"uint256","internalType":"uint256"}],"outputs":[],"stateMutability":"nonpayable"},{"type":"function","name":"clawdiaToken","inputs":[],"outputs":[{"name":"","type":"address","internalType":"contract IERC20"}],"stateMutability":"view"},{"type":"function","name":"gameContract","inputs":[],"outputs":[{"name":"","type":"address","internalType":"address"}],"stateMutability":"view"},{"type":"function","name":"getPendingReward","inputs":[{"name":"roundId","type":"uint256","internalType":"uint256"},{"name":"user","type":"address","internalType":"address"}],"outputs":[{"name":"","type":"uint256","internalType":"uint256"}],"stateMutability":"view"},{"type":"function","name":"hasClaimed","inputs":[{"name":"","type":"uint256","internalType":"uint256"},{"name":"","type":"address","internalType":"address"}],"outputs":[{"name":"","type":"bool","internalType":"bool"}],"stateMutability":"view"},{"type":"function","name":"notifyReward","inputs":[{"name":"roundId","type":"uint256","internalType":"uint256"},{"name":"amount","type":"uint256","internalType":"uint256"}],"outputs":[],"stateMutability":"nonpayable"},{"type":"function","name":"roundRewards","inputs":[{"name":"","type":"uint256","internalType":"uint256"}],"outputs":[{"name":"totalReward","type":"uint256","internalType":"uint256"},{"name":"totalStakedAtSnapshot","type":"uint256","internalType":"uint256"},{"name":"claimed","type":"uint256","internalType":"uint256"}],"stateMutability":"view"},{"type":"function","name":"stake","inputs":[{"name":"amount","type":"uint256","internalType":"uint256"}],"outputs":[],"stateMutability":"nonpayable"},{"type":"function","name":"stakedBalance","inputs":[{"name":"","type":"address","internalType":"address"}],"outputs":[{"name":"","type":"uint256","internalType":"uint256"}],"stateMutability":"view"},{"type":"function","name":"totalStaked","inputs":[],"outputs":[{"name":"","type":"uint256","internalType":"uint256"}],"stateMutability":"view"},{"type":"function","name":"unstake","inputs":[{"name":"amount","type":"uint256","internalType":"uint256"}],"outputs":[],"stateMutability":"nonpayable"},{"type":"event","name":"RewardClaimed","inputs":[{"name":"roundId","type":"uint256","indexed":true,"internalType":"uint256"},{"name":"user","type":"address","indexed":true,"internalType":"address"},{"name":"amount","type":"uint256","indexed":false,"internalType":"uint256"}],"anonymous":false},{"type":"event","name":"RewardNotified","inputs":[{"name":"roundId","type":"uint256","indexed":true,"internalType":"uint256"},{"name":"amount","type":"uint256","indexed":false,"internalType":"uint256"},{"name":"totalStakedSnapshot","type":"uint256","indexed":false,"internalType":"uint256"}],"anonymous":false},{"type":"event","name":"Staked","inputs":[{"name":"user","type":"address","indexed":true,"internalType":"address"},{"name":"amount","type":"uint256","indexed":false,"internalType":"uint256"}],"anonymous":false},{"type":"event","name":"Unstaked","inputs":[{"name":"user","type":"address","indexed":true,"internalType":"address"},{"name":"amount","type":"uint256","indexed":false,"internalType":"uint256"}],"anonymous":false},{"type":"error","name":"ReentrancyGuardReentrantCall","inputs":[]}],"bytecode":{"object":"0x60c0346100ca57601f610d7338819003918201601f19168301916001600160401b038311848410176100ce5780849260409485528339810103126100ca57610052602061004b836100e2565b92016100e2565b60017f9b779b17422d0df92223018b32b4d1fa46e071723d6817e2486d003becc55f00556001600160a01b0390911660805260a052604051610c7c90816100f7823960805181818161020f01528181610337015281816105370152818161080401526109e9015260a05181818160b8015261028e0152f35b5f80fd5b634e487b7160e01b5f52604160045260245ffd5b51906001600160a01b03821682036100ca5756fe60406080815260049081361015610014575f80fd5b5f3560e01c80632e17de781461096057806342f618ea1461072557806360217267146106ea578063729d0a8a1461049c578063817b1cd21461047e578063873f6f9e1461043a578063a694fc3a146102ea578063c59b1f3c146102bd578063d3f330091461027a578063e0cc6b551461023e578063e49d93fb146101fb5763e81a5884146100a0575f80fd5b346101f757806003193601126101f7578135906024357f00000000000000000000000000000000000000000000000000000000000000006001600160a01b031633036101bf57825f525f602052815f20546101895760035493825190606082019082821067ffffffffffffffff83111761017657507f56975044acf0792e334503bce63910412bb93d05e71a05d318d554a180143dfe9495600291855283835260208301908152848301905f8252875f525f602052855f20935184555160018401555191015560035482519182526020820152a2005b604190634e487b7160e01b5f525260245ffd5b815162461bcd60e51b8152602081860152601060248201526f105b1c9958591e481b9bdd1a599a595960821b6044820152606490fd5b815162461bcd60e51b8152602081860152601260248201527113db9b1e4819d85b594818dbdb9d1c9858dd60721b6044820152606490fd5b5f80fd5b50346101f7575f3660031901126101f757517f00000000000000000000000000000000000000000000000000000000000000006001600160a01b03168152602090f35b50346101f75760203660031901126101f757606091355f525f602052805f20805491600260018301549201549181519384526020840152820152f35b50346101f7575f3660031901126101f757517f00000000000000000000000000000000000000000000000000000000000000006001600160a01b03168152602090f35b50346101f757806003193601126101f7576102e36020926102dc610ab2565b9035610b75565b9051908152f35b50346101f7576020806003193601126101f757823591610308610bf7565b82156104085780516323b872dd60e01b815233948101949094523060248501526044840183905281846064815f7f00000000000000000000000000000000000000000000000000000000000000006001600160a01b03165af19384156103fe577f9e71bc8eea02a63969f509818f2dafb9254532904319f9dbda79b67bd34a5f3d93946103d1575b50335f5260028252805f206103a6858254610b68565b90556103b484600354610b68565b600355519283523392a260015f80516020610c2783398151915255005b6103f090833d85116103f7575b6103e88183610ae9565b810190610b1f565b505f610390565b503d6103de565b50513d5f823e3d90fd5b5162461bcd60e51b81529283015250600e60248201526d043616e6e6f74207374616b6520360941b6044820152606490fd5b50346101f757806003193601126101f757602091610456610ab2565b90355f5260018352815f209060018060a01b03165f52825260ff815f20541690519015158152f35b50346101f7575f3660031901126101f7576020906003549051908152f35b50346101f757602091826003193601126101f75780359067ffffffffffffffff8083116101f757366023840112156101f757828201359081116101f75760246005933660248460051b830101116101f7576104f5610bf7565b5f945f5b8481106105de57505050505081156105a857825163a9059cbb60e01b815233918101918252602082019290925290919083908390819060400103815f7f00000000000000000000000000000000000000000000000000000000000000006001600160a01b03165af190811561059f5750610581575b60015f80516020610c2783398151915255005b8161059792903d106103f7576103e88183610ae9565b505f8061056e565b513d5f823e3d90fd5b825162461bcd60e51b8152908101849052601060248201526f4e6f7468696e6720746f20636c61696d60801b6044820152606490fd5b888482841b8501013597885f5260018083528a5f20335f52835260ff8b5f2054166106de57895f525f83528a5f20805491821580156106d3575b6106c557335f528c610640610636600295868952835f205490610b37565b8385015490610b4a565b9586156106b5575f8e815283825282812033825290915220805460ff19169091179055018054600194939261068392849261067c908490610b68565b9055610b68565b988a519182527f24b5efa61dd1cfc659205a97fb8ed868f3cb8c81922bab2b96423e5de1de2cb78c3393a35b016104f9565b50505050509750506001906106af565b5050509750506001906106af565b508082015415610618565b509750506001906106af565b5090346101f75760203660031901126101f757356001600160a01b03811691908290036101f7576020915f5260028252805f20549051908152f35b5090346101f7576020806003193601126101f757813590610744610bf7565b815f5260018152835f20335f52815260ff845f20541661092c57815f525f8152835f2092835480156108f45760018501549081156108c4579061079561079a92335f5260028652885f205490610b37565b610b4a565b93841561089657846107ff969260028593875f5260018552855f20335f528552855f20600160ff19825416179055016107d4838254610b68565b9055835163a9059cbb60e01b8152339181019182526020820192909252909687918291604090910190565b03815f7f00000000000000000000000000000000000000000000000000000000000000006001600160a01b03165af19485156103fe577f24b5efa61dd1cfc659205a97fb8ed868f3cb8c81922bab2b96423e5de1de2cb7939495610879575b50519384523393a360015f80516020610c2783398151915255005b61088f90833d85116103f7576103e88183610ae9565b505f61085e565b5060649185519162461bcd60e51b83528201526009602482015268139bc81c995dd85c9960ba1b6044820152fd5b865162461bcd60e51b8152808401859052600a6024820152694e6f207374616b65727360b01b6044820152606490fd5b5060649185519162461bcd60e51b83528201526013602482015272139bc81c995dd85c9908199bdc881c9bdd5b99606a1b6044820152fd5b9050606492519162461bcd60e51b8352820152600f60248201526e105b1c9958591e4818db185a5b5959608a1b6044820152fd5b50346101f7576020806003193601126101f75782359161097e610bf7565b335f526002825282815f205410610a7a5781836109e495335f5260028352835f206109aa838254610ac8565b90556109b882600354610ac8565b600355835163a9059cbb60e01b8152339181019182526020820192909252909586918291604090910190565b03815f7f00000000000000000000000000000000000000000000000000000000000000006001600160a01b03165af19384156103fe577f0f5bb82176feb1b5e747e28471aa92156a04d9f3ab9f45f28e2d704232b93f759394610a5d575b50519283523392a260015f80516020610c2783398151915255005b610a7390833d85116103f7576103e88183610ae9565b505f610a42565b5162461bcd60e51b815292830152506014602482015273496e73756666696369656e742062616c616e636560601b6044820152606490fd5b602435906001600160a01b03821682036101f757565b91908203918211610ad557565b634e487b7160e01b5f52601160045260245ffd5b90601f8019910116810190811067ffffffffffffffff821117610b0b57604052565b634e487b7160e01b5f52604160045260245ffd5b908160209103126101f7575180151581036101f75790565b81810292918115918404141715610ad557565b8115610b54570490565b634e487b7160e01b5f52601260045260245ffd5b91908201809211610ad557565b805f52600160205260405f209160018060a01b031691825f5260205260ff60405f205416610bf1575f525f60205260405f20805480158015610be5575b610bde57610bd2600191610bdb945f52600260205260405f205490610b37565b91015490610b4a565b90565b5050505f90565b50600182015415610bb2565b50505f90565b5f80516020610c278339815191526002815414610c145760029055565b604051633ee5aeb560e01b8152600490fdfe9b779b17422d0df92223018b32b4d1fa46e071723d6817e2486d003becc55f00a2646970667358221220db441b8c39eb7878c03ce996adaefce358e73b4dd9137c2f7566acea82ae12dd64736f6c63430008180033","linkReferences":{}},"methodIdentifiers":{"claimMultipleRewards(uint256[])":"729d0a8a","claimRoundReward(uint256)":"42f618ea","clawdiaToken()":"e49d93fb","gameContract()":"d3f33009","getPendingReward(uint256,address)":"c59b1f3c","hasClaimed(uint256,address)":"873f6f9e","notifyReward(uint256,uint256)":"e81a5884","roundRewards(uint256)":"e0cc6b55","stake(uint256)":"a694fc3a","stakedBalance(address)":"60217267","totalStaked()":"817b1cd2","unstake(uint256)":"2e17de78"},"id":36}