{"abi":[{"type":"constructor","inputs":[],"stateMutability":"nonpayable"},{"type":"function","name":"ANCHOR","inputs":[],"outputs":[{"name":"","type":"uint8","internalType":"uint8"}],"stateMutability":"view"},{"type":"function","name":"GEM","inputs":[],"outputs":[{"name":"","type":"uint8","internalType":"uint8"}],"stateMutability":"view"},{"type":"function","name":"SEAL","inputs":[],"outputs":[{"name":"","type":"uint8","internalType":"uint8"}],"stateMutability":"view"},{"type":"function","name":"VETO","inputs":[],"outputs":[{"name":"","type":"uint8","internalType":"uint8"}],"stateMutability":"view"},{"type":"function","name":"checkAnchor","inputs":[{"name":"word","type":"string","internalType":"string"},{"name":"anchorLetter","type":"bytes1","internalType":"bytes1"}],"outputs":[{"name":"","type":"bool","internalType":"bool"}],"stateMutability":"pure"},{"type":"function","name":"checkGem","inputs":[{"name":"word","type":"string","internalType":"string"}],"outputs":[{"name":"","type":"bool","internalType":"bool"}],"stateMutability":"pure"},{"type":"function","name":"checkSeal","inputs":[{"name":"word","type":"string","internalType":"string"},{"name":"sealLetter","type":"bytes1","internalType":"bytes1"}],"outputs":[{"name":"","type":"bool","internalType":"bool"}],"stateMutability":"pure"},{"type":"function","name":"checkVeto","inputs":[{"name":"word","type":"string","internalType":"string"},{"name":"vetoLetter","type":"bytes1","internalType":"bytes1"}],"outputs":[{"name":"","type":"bool","internalType":"bool"}],"stateMutability":"pure"},{"type":"function","name":"owner","inputs":[],"outputs":[{"name":"","type":"address","internalType":"address"}],"stateMutability":"view"},{"type":"function","name":"validate","inputs":[{"name":"spellId","type":"uint8","internalType":"uint8"},{"name":"spellParam","type":"bytes32","internalType":"bytes32"},{"name":"word","type":"string","internalType":"string"},{"name":"","type":"bytes32[]","internalType":"bytes32[]"}],"outputs":[{"name":"passes","type":"bool","internalType":"bool"}],"stateMutability":"pure"}],"bytecode":{"object":"0x60808060405234610027575f80546001600160a01b0319163317905561065c908161002c8239f35b5f80fdfe6080604090808252600480361015610015575f80fd5b5f3560e01c918263153ad40314610279575081631917dfe71461025b57816322b5b750146101db5781633b2167081461019f575080634dc65411146101845780635a7cb9f71461013a5780636ff437061461011f5780638da5cb5b146100f857806396999f6f146100ac5763f9a21dce1461008e575f80fd5b346100a8575f3660031901126100a8576020905160028152f35b5f80fd5b50346100a8576020906100f06100c1366102bf565b84516001600160f81b031991821687820152600181526100e9906100e481610303565b610333565b16916105d2565b159051908152f35b50346100a8575f3660031901126100a8575f5490516001600160a01b039091168152602090f35b50346100a8575f3660031901126100a8576020905160018152f35b50346100a85760209061017b610175610152366102bf565b85516001600160f81b03199091168782015260018152919290916100e481610303565b916104d1565b90519015158152f35b50346100a8575f3660031901126100a8576020905160038152f35b82346100a85760203660031901126100a85781359167ffffffffffffffff83116100a8576101d561017b91602094369101610291565b90610509565b82346100a85760803660031901126100a857813560ff811681036100a85767ffffffffffffffff6044358181116100a8576102199036908601610291565b919094606435908282116100a857366023830112156100a8578101359182116100a857602490369260051b0101116100a85760209361017b9260243590610355565b82346100a85760209061017b610273610152366102bf565b91610463565b346100a8575f3660031901126100a857805f60209252f35b9181601f840112156100a85782359167ffffffffffffffff83116100a857602083818601950101116100a857565b60406003198201126100a8576004359067ffffffffffffffff82116100a8576102ea91600401610291565b90916024356001600160f81b0319811681036100a85790565b6040810190811067ffffffffffffffff82111761031f57604052565b634e487b7160e01b5f52604160045260245ffd5b602081519101519060208110610347575090565b5f199060200360031b1b1690565b91929160ff169081156103d557600182146103c957600282146103bd57506003146103b15760405162461bcd60e51b815260206004820152600f60248201526e125b9d985b1a59081cdc195b1b1259608a1b6044820152606490fd5b6103ba91610509565b90565b9190506103ba92610463565b9190506103ba926104d1565b6103e89392915060ff60f81b16916105d2565b1590565b92919267ffffffffffffffff9182811161031f5760405192601f8201601f19908116603f011684019081118482101761031f576040528294818452818301116100a8578281602093845f960137010152565b90815181101561044f570160200190565b634e487b7160e01b5f52603260045260245ffd5b6001600160f81b031991610479913691906103ec565b80519081156104c9575f1982019182116104b557826104a7816104a081956104ae9561043e565b5116610588565b9416610588565b1691161490565b634e487b7160e01b5f52601160045260245ffd5b505050505f90565b6001600160f81b0319916104e7913691906103ec565b805115610502576104ae826104a78160208195015116610588565b5050505f90565b6105149136916103ec565b6002815110610583575f5b81515f1981019081116104b55781101561057d576001600160f81b031961054a816104a0848661043e565b6001918284018085116104b557610566826104a081938961043e565b16911614610577575060010161051f565b91505090565b50505f90565b505f90565b6001600160f81b0319604160f81b8282169081101590816105c3575b506105ad575090565b9060f81c60200160ff81116104b55760f81b1690565b602d60f91b101590505f6105a4565b6105e1906105e79236916103ec565b91610588565b6001600160f81b0319908116905f5b83518110156104c957828261060f816104a0858961043e565b161461061d576001016105f6565b5050505060019056fea26469706673582212207867a5bceb9a1cf9ddd3e355980647ea18a88481faf7390aa00cceef90ee8fb664736f6c63430008180033","linkReferences":{}},"methodIdentifiers":{"ANCHOR()":"6ff43706","GEM()":"4dc65411","SEAL()":"f9a21dce","VETO()":"153ad403","checkAnchor(string,bytes1)":"5a7cb9f7","checkGem(string)":"3b216708","checkSeal(string,bytes1)":"1917dfe7","checkVeto(string,bytes1)":"96999f6f","owner()":"8da5cb5b","validate(uint8,bytes32,string,bytes32[])":"22b5b750"},"id":34}