{"abi":[{"type":"constructor","inputs":[{"name":"_token","type":"address","internalType":"address"},{"name":"_operator","type":"address","internalType":"address"},{"name":"_owner","type":"address","internalType":"address"},{"name":"_spellEngine","type":"address","internalType":"address"},{"name":"_dictionaryVerifier","type":"address","internalType":"address"},{"name":"_stakerDistributor","type":"address","internalType":"address"},{"name":"_spellRegistry","type":"address","internalType":"address"}],"stateMutability":"nonpayable"},{"type":"function","name":"adminFinalizeRound","inputs":[{"name":"roundId","type":"uint256","internalType":"uint256"}],"outputs":[],"stateMutability":"nonpayable"},{"type":"function","name":"burnBps","inputs":[],"outputs":[{"name":"","type":"uint16","internalType":"uint16"}],"stateMutability":"view"},{"type":"function","name":"canSweepPayouts","inputs":[{"name":"roundId","type":"uint256","internalType":"uint256"}],"outputs":[{"name":"","type":"bool","internalType":"bool"}],"stateMutability":"view"},{"type":"function","name":"claimPayout","inputs":[{"name":"roundId","type":"uint256","internalType":"uint256"}],"outputs":[],"stateMutability":"nonpayable"},{"type":"function","name":"clawdiaToken","inputs":[],"outputs":[{"name":"","type":"address","internalType":"contract IERC20"}],"stateMutability":"view"},{"type":"function","name":"commit","inputs":[{"name":"commitHash","type":"bytes32","internalType":"bytes32"},{"name":"stakeAmount","type":"uint256","internalType":"uint256"}],"outputs":[],"stateMutability":"nonpayable"},{"type":"function","name":"commitments","inputs":[{"name":"","type":"uint256","internalType":"uint256"},{"name":"","type":"address","internalType":"address"}],"outputs":[{"name":"commitHash","type":"bytes32","internalType":"bytes32"},{"name":"stake","type":"uint256","internalType":"uint256"},{"name":"commitTime","type":"uint256","internalType":"uint256"},{"name":"revealed","type":"bool","internalType":"bool"},{"name":"spellPass","type":"bool","internalType":"bool"},{"name":"lengthValid","type":"bool","internalType":"bool"},{"name":"fullyValid","type":"bool","internalType":"bool"},{"name":"consolation","type":"bool","internalType":"bool"},{"name":"wordLength","type":"uint16","internalType":"uint16"},{"name":"effectiveScore","type":"uint16","internalType":"uint16"},{"name":"payout","type":"uint256","internalType":"uint256"},{"name":"claimed","type":"bool","internalType":"bool"}],"stateMutability":"view"},{"type":"function","name":"currentRoundId","inputs":[],"outputs":[{"name":"","type":"uint256","internalType":"uint256"}],"stateMutability":"view"},{"type":"function","name":"dictionaryVerifier","inputs":[],"outputs":[{"name":"","type":"address","internalType":"contract IDictionaryVerifier"}],"stateMutability":"view"},{"type":"function","name":"finalizeRound","inputs":[],"outputs":[],"stateMutability":"nonpayable"},{"type":"function","name":"getCommitment","inputs":[{"name":"roundId","type":"uint256","internalType":"uint256"},{"name":"player","type":"address","internalType":"address"}],"outputs":[{"name":"","type":"tuple","internalType":"struct SpellBlockGame.Commitment","components":[{"name":"commitHash","type":"bytes32","internalType":"bytes32"},{"name":"stake","type":"uint256","internalType":"uint256"},{"name":"commitTime","type":"uint256","internalType":"uint256"},{"name":"revealed","type":"bool","internalType":"bool"},{"name":"spellPass","type":"bool","internalType":"bool"},{"name":"lengthValid","type":"bool","internalType":"bool"},{"name":"fullyValid","type":"bool","internalType":"bool"},{"name":"consolation","type":"bool","internalType":"bool"},{"name":"wordLength","type":"uint16","internalType":"uint16"},{"name":"effectiveScore","type":"uint16","internalType":"uint16"},{"name":"payout","type":"uint256","internalType":"uint256"},{"name":"claimed","type":"bool","internalType":"bool"}]}],"stateMutability":"view"},{"type":"function","name":"getPayoutExpiryTimestamp","inputs":[{"name":"roundId","type":"uint256","internalType":"uint256"}],"outputs":[{"name":"","type":"uint256","internalType":"uint256"}],"stateMutability":"view"},{"type":"function","name":"getRolloverAmount","inputs":[],"outputs":[{"name":"","type":"uint256","internalType":"uint256"}],"stateMutability":"view"},{"type":"function","name":"getRound","inputs":[{"name":"roundId","type":"uint256","internalType":"uint256"}],"outputs":[{"name":"","type":"tuple","internalType":"struct SpellBlockGame.Round","components":[{"name":"roundId","type":"uint256","internalType":"uint256"},{"name":"startTime","type":"uint256","internalType":"uint256"},{"name":"commitDeadline","type":"uint256","internalType":"uint256"},{"name":"revealDeadline","type":"uint256","internalType":"uint256"},{"name":"letterPool","type":"bytes8","internalType":"bytes8"},{"name":"spellId","type":"uint8","internalType":"uint8"},{"name":"spellParam","type":"bytes32","internalType":"bytes32"},{"name":"seedHash","type":"bytes32","internalType":"bytes32"},{"name":"seed","type":"bytes32","internalType":"bytes32"},{"name":"rulerCommitHash","type":"bytes32","internalType":"bytes32"},{"name":"validLengths","type":"uint8[3]","internalType":"uint8[3]"},{"name":"totalStaked","type":"uint256","internalType":"uint256"},{"name":"jackpotBonus","type":"uint256","internalType":"uint256"},{"name":"numCommits","type":"uint32","internalType":"uint32"},{"name":"numReveals","type":"uint32","internalType":"uint32"},{"name":"validWinners","type":"uint32","internalType":"uint32"},{"name":"consolationWinners","type":"uint32","internalType":"uint32"},{"name":"finalized","type":"bool","internalType":"bool"},{"name":"jackpotTriggered","type":"bool","internalType":"bool"},{"name":"seedRevealed","type":"bool","internalType":"bool"},{"name":"rulerRevealed","type":"bool","internalType":"bool"}]}],"stateMutability":"view"},{"type":"function","name":"getTopConsolation","inputs":[{"name":"roundId","type":"uint256","internalType":"uint256"}],"outputs":[{"name":"","type":"tuple[]","internalType":"struct SpellBlockGame.LeaderboardEntry[]","components":[{"name":"player","type":"address","internalType":"address"},{"name":"effectiveScore","type":"uint16","internalType":"uint16"},{"name":"stake","type":"uint256","internalType":"uint256"},{"name":"commitTime","type":"uint256","internalType":"uint256"}]}],"stateMutability":"view"},{"type":"function","name":"getTopValid","inputs":[{"name":"roundId","type":"uint256","internalType":"uint256"}],"outputs":[{"name":"","type":"tuple[]","internalType":"struct SpellBlockGame.LeaderboardEntry[]","components":[{"name":"player","type":"address","internalType":"address"},{"name":"effectiveScore","type":"uint16","internalType":"uint16"},{"name":"stake","type":"uint256","internalType":"uint256"},{"name":"commitTime","type":"uint256","internalType":"uint256"}]}],"stateMutability":"view"},{"type":"function","name":"globalBurnCounter","inputs":[],"outputs":[{"name":"","type":"uint256","internalType":"uint256"}],"stateMutability":"view"},{"type":"function","name":"jackpotBonusBps","inputs":[],"outputs":[{"name":"","type":"uint16","internalType":"uint16"}],"stateMutability":"view"},{"type":"function","name":"jackpotThreshold","inputs":[],"outputs":[{"name":"","type":"uint256","internalType":"uint256"}],"stateMutability":"view"},{"type":"function","name":"lastParticipatedRound","inputs":[{"name":"","type":"address","internalType":"address"}],"outputs":[{"name":"","type":"uint256","internalType":"uint256"}],"stateMutability":"view"},{"type":"function","name":"minStake","inputs":[],"outputs":[{"name":"","type":"uint256","internalType":"uint256"}],"stateMutability":"view"},{"type":"function","name":"openRound","inputs":[{"name":"seedHash","type":"bytes32","internalType":"bytes32"},{"name":"rulerCommitHash","type":"bytes32","internalType":"bytes32"},{"name":"letterPool","type":"bytes8","internalType":"bytes8"}],"outputs":[],"stateMutability":"nonpayable"},{"type":"function","name":"operationsBps","inputs":[],"outputs":[{"name":"","type":"uint16","internalType":"uint16"}],"stateMutability":"view"},{"type":"function","name":"operator","inputs":[],"outputs":[{"name":"","type":"address","internalType":"address"}],"stateMutability":"view"},{"type":"function","name":"overrideRulerCommitHash","inputs":[{"name":"roundId","type":"uint256","internalType":"uint256"},{"name":"newHash","type":"bytes32","internalType":"bytes32"}],"outputs":[],"stateMutability":"nonpayable"},{"type":"function","name":"owner","inputs":[],"outputs":[{"name":"","type":"address","internalType":"address"}],"stateMutability":"view"},{"type":"function","name":"pause","inputs":[],"outputs":[],"stateMutability":"nonpayable"},{"type":"function","name":"paused","inputs":[],"outputs":[{"name":"","type":"bool","internalType":"bool"}],"stateMutability":"view"},{"type":"function","name":"payoutExpiryDays","inputs":[],"outputs":[{"name":"","type":"uint256","internalType":"uint256"}],"stateMutability":"view"},{"type":"function","name":"recoverERC20","inputs":[{"name":"token","type":"address","internalType":"address"},{"name":"amount","type":"uint256","internalType":"uint256"},{"name":"to","type":"address","internalType":"address"}],"outputs":[],"stateMutability":"nonpayable"},{"type":"function","name":"reveal","inputs":[{"name":"word","type":"string","internalType":"string"},{"name":"salt","type":"bytes32","internalType":"bytes32"},{"name":"dictProof","type":"bytes32[]","internalType":"bytes32[]"},{"name":"categoryProof","type":"bytes32[]","internalType":"bytes32[]"}],"outputs":[],"stateMutability":"nonpayable"},{"type":"function","name":"revealSeedAndRuler","inputs":[{"name":"seed","type":"bytes32","internalType":"bytes32"},{"name":"validLengths","type":"uint8[3]","internalType":"uint8[3]"},{"name":"rulerSalt","type":"bytes32","internalType":"bytes32"}],"outputs":[],"stateMutability":"nonpayable"},{"type":"function","name":"rolloverAmount","inputs":[],"outputs":[{"name":"","type":"uint256","internalType":"uint256"}],"stateMutability":"view"},{"type":"function","name":"rounds","inputs":[{"name":"","type":"uint256","internalType":"uint256"}],"outputs":[{"name":"roundId","type":"uint256","internalType":"uint256"},{"name":"startTime","type":"uint256","internalType":"uint256"},{"name":"commitDeadline","type":"uint256","internalType":"uint256"},{"name":"revealDeadline","type":"uint256","internalType":"uint256"},{"name":"letterPool","type":"bytes8","internalType":"bytes8"},{"name":"spellId","type":"uint8","internalType":"uint8"},{"name":"spellParam","type":"bytes32","internalType":"bytes32"},{"name":"seedHash","type":"bytes32","internalType":"bytes32"},{"name":"seed","type":"bytes32","internalType":"bytes32"},{"name":"rulerCommitHash","type":"bytes32","internalType":"bytes32"},{"name":"totalStaked","type":"uint256","internalType":"uint256"},{"name":"jackpotBonus","type":"uint256","internalType":"uint256"},{"name":"numCommits","type":"uint32","internalType":"uint32"},{"name":"numReveals","type":"uint32","internalType":"uint32"},{"name":"validWinners","type":"uint32","internalType":"uint32"},{"name":"consolationWinners","type":"uint32","internalType":"uint32"},{"name":"finalized","type":"bool","internalType":"bool"},{"name":"jackpotTriggered","type":"bool","internalType":"bool"},{"name":"seedRevealed","type":"bool","internalType":"bool"},{"name":"rulerRevealed","type":"bool","internalType":"bool"}],"stateMutability":"view"},{"type":"function","name":"seedJackpotBonus","inputs":[{"name":"roundId","type":"uint256","internalType":"uint256"}],"outputs":[],"stateMutability":"nonpayable"},{"type":"function","name":"setConfig","inputs":[{"name":"_minStake","type":"uint256","internalType":"uint256"},{"name":"_burnBps","type":"uint16","internalType":"uint16"},{"name":"_stakerBps","type":"uint16","internalType":"uint16"},{"name":"_operationsBps","type":"uint16","internalType":"uint16"},{"name":"_jackpotThreshold","type":"uint256","internalType":"uint256"},{"name":"_jackpotBonusBps","type":"uint16","internalType":"uint16"},{"name":"_payoutExpiryDays","type":"uint256","internalType":"uint256"}],"outputs":[],"stateMutability":"nonpayable"},{"type":"function","name":"setDictionaryVerifier","inputs":[{"name":"_verifier","type":"address","internalType":"address"}],"outputs":[],"stateMutability":"nonpayable"},{"type":"function","name":"setOperator","inputs":[{"name":"_operator","type":"address","internalType":"address"}],"outputs":[],"stateMutability":"nonpayable"},{"type":"function","name":"setSpellEngine","inputs":[{"name":"_engine","type":"address","internalType":"address"}],"outputs":[],"stateMutability":"nonpayable"},{"type":"function","name":"setSpellRegistry","inputs":[{"name":"_registry","type":"address","internalType":"address"}],"outputs":[],"stateMutability":"nonpayable"},{"type":"function","name":"setStakerDistributor","inputs":[{"name":"_distributor","type":"address","internalType":"address"}],"outputs":[],"stateMutability":"nonpayable"},{"type":"function","name":"spellEngine","inputs":[],"outputs":[{"name":"","type":"address","internalType":"contract ISpellEngine"}],"stateMutability":"view"},{"type":"function","name":"spellRegistry","inputs":[],"outputs":[{"name":"","type":"address","internalType":"contract SpellRegistry"}],"stateMutability":"view"},{"type":"function","name":"stakerBps","inputs":[],"outputs":[{"name":"","type":"uint16","internalType":"uint16"}],"stateMutability":"view"},{"type":"function","name":"stakerDistributor","inputs":[],"outputs":[{"name":"","type":"address","internalType":"contract IStakerRewardDistributor"}],"stateMutability":"view"},{"type":"function","name":"streakCount","inputs":[{"name":"","type":"address","internalType":"address"}],"outputs":[{"name":"","type":"uint256","internalType":"uint256"}],"stateMutability":"view"},{"type":"function","name":"sweepUnclaimedPayouts","inputs":[{"name":"roundId","type":"uint256","internalType":"uint256"}],"outputs":[{"name":"sweptAmount","type":"uint256","internalType":"uint256"}],"stateMutability":"nonpayable"},{"type":"function","name":"topConsolation","inputs":[{"name":"","type":"uint256","internalType":"uint256"},{"name":"","type":"uint256","internalType":"uint256"}],"outputs":[{"name":"player","type":"address","internalType":"address"},{"name":"effectiveScore","type":"uint16","internalType":"uint16"},{"name":"stake","type":"uint256","internalType":"uint256"},{"name":"commitTime","type":"uint256","internalType":"uint256"}],"stateMutability":"view"},{"type":"function","name":"topValid","inputs":[{"name":"","type":"uint256","internalType":"uint256"},{"name":"","type":"uint256","internalType":"uint256"}],"outputs":[{"name":"player","type":"address","internalType":"address"},{"name":"effectiveScore","type":"uint16","internalType":"uint16"},{"name":"stake","type":"uint256","internalType":"uint256"},{"name":"commitTime","type":"uint256","internalType":"uint256"}],"stateMutability":"view"},{"type":"function","name":"treasuryFeeBps","inputs":[],"outputs":[{"name":"","type":"uint16","internalType":"uint16"}],"stateMutability":"view"},{"type":"function","name":"unpause","inputs":[],"outputs":[],"stateMutability":"nonpayable"},{"type":"event","name":"CommitSubmitted","inputs":[{"name":"roundId","type":"uint256","indexed":true,"internalType":"uint256"},{"name":"player","type":"address","indexed":true,"internalType":"address"},{"name":"stake","type":"uint256","indexed":false,"internalType":"uint256"},{"name":"timestamp","type":"uint256","indexed":false,"internalType":"uint256"},{"name":"streak","type":"uint256","indexed":false,"internalType":"uint256"}],"anonymous":false},{"type":"event","name":"JackpotSeeded","inputs":[{"name":"roundId","type":"uint256","indexed":true,"internalType":"uint256"},{"name":"bonusAmount","type":"uint256","indexed":false,"internalType":"uint256"}],"anonymous":false},{"type":"event","name":"JackpotTriggered","inputs":[{"name":"roundId","type":"uint256","indexed":true,"internalType":"uint256"},{"name":"bonusAmount","type":"uint256","indexed":false,"internalType":"uint256"}],"anonymous":false},{"type":"event","name":"Paused","inputs":[{"name":"account","type":"address","indexed":false,"internalType":"address"}],"anonymous":false},{"type":"event","name":"PayoutClaimed","inputs":[{"name":"roundId","type":"uint256","indexed":true,"internalType":"uint256"},{"name":"player","type":"address","indexed":true,"internalType":"address"},{"name":"amount","type":"uint256","indexed":false,"internalType":"uint256"}],"anonymous":false},{"type":"event","name":"RolloverAdded","inputs":[{"name":"roundId","type":"uint256","indexed":true,"internalType":"uint256"},{"name":"amount","type":"uint256","indexed":false,"internalType":"uint256"},{"name":"totalRollover","type":"uint256","indexed":false,"internalType":"uint256"}],"anonymous":false},{"type":"event","name":"RolloverApplied","inputs":[{"name":"roundId","type":"uint256","indexed":true,"internalType":"uint256"},{"name":"amount","type":"uint256","indexed":false,"internalType":"uint256"}],"anonymous":false},{"type":"event","name":"RoundFinalized","inputs":[{"name":"roundId","type":"uint256","indexed":true,"internalType":"uint256"},{"name":"totalPot","type":"uint256","indexed":false,"internalType":"uint256"},{"name":"burned","type":"uint256","indexed":false,"internalType":"uint256"},{"name":"numWinners","type":"uint32","indexed":false,"internalType":"uint32"}],"anonymous":false},{"type":"event","name":"RoundOpened","inputs":[{"name":"roundId","type":"uint256","indexed":true,"internalType":"uint256"},{"name":"letterPool","type":"bytes8","indexed":false,"internalType":"bytes8"},{"name":"rulerCommitHash","type":"bytes32","indexed":false,"internalType":"bytes32"},{"name":"startTime","type":"uint256","indexed":false,"internalType":"uint256"}],"anonymous":false},{"type":"event","name":"SeedAndRulerRevealed","inputs":[{"name":"roundId","type":"uint256","indexed":true,"internalType":"uint256"},{"name":"spellId","type":"uint8","indexed":false,"internalType":"uint8"},{"name":"spellParam","type":"bytes32","indexed":false,"internalType":"bytes32"},{"name":"validLengths","type":"uint8[3]","indexed":false,"internalType":"uint8[3]"}],"anonymous":false},{"type":"event","name":"StakerRewardDistributed","inputs":[{"name":"roundId","type":"uint256","indexed":true,"internalType":"uint256"},{"name":"amount","type":"uint256","indexed":false,"internalType":"uint256"}],"anonymous":false},{"type":"event","name":"TokensBurned","inputs":[{"name":"roundId","type":"uint256","indexed":true,"internalType":"uint256"},{"name":"amount","type":"uint256","indexed":false,"internalType":"uint256"},{"name":"newGlobalTotal","type":"uint256","indexed":false,"internalType":"uint256"}],"anonymous":false},{"type":"event","name":"UnclaimedPayoutsSwept","inputs":[{"name":"roundId","type":"uint256","indexed":true,"internalType":"uint256"},{"name":"amount","type":"uint256","indexed":false,"internalType":"uint256"},{"name":"operator","type":"address","indexed":false,"internalType":"address"}],"anonymous":false},{"type":"event","name":"Unpaused","inputs":[{"name":"account","type":"address","indexed":false,"internalType":"address"}],"anonymous":false},{"type":"event","name":"WordRevealed","inputs":[{"name":"roundId","type":"uint256","indexed":true,"internalType":"uint256"},{"name":"player","type":"address","indexed":true,"internalType":"address"},{"name":"effectiveScore","type":"uint16","indexed":false,"internalType":"uint16"},{"name":"spellPass","type":"bool","indexed":false,"internalType":"bool"},{"name":"lengthValid","type":"bool","indexed":false,"internalType":"bool"},{"name":"fullyValid","type":"bool","indexed":false,"internalType":"bool"}],"anonymous":false},{"type":"error","name":"EnforcedPause","inputs":[]},{"type":"error","name":"ExpectedPause","inputs":[]},{"type":"error","name":"ReentrancyGuardReentrantCall","inputs":[]}],"bytecode":{"object":"0x60a034620001d157601f6200477438819003918201601f19168301916001600160401b03831184841017620001d55780849260e094604052833981010312620001d1576200004d81620001e9565b906200005c60208201620001e9565b916200006b60408301620001e9565b6200007960608401620001e9565b926200008860808201620001e9565b92620000a560c06200009d60a08501620001e9565b9301620001e9565b9360017f9b779b17422d0df92223018b32b4d1fa46e071723d6817e2486d003becc55f005560018060a01b0395868095818095166080528160018060a01b03199a168a6004541617600455168860055416176005555f5490610100600160a81b039060081b1690610100600160a81b031916175f5516856001541617600155168360025416176002551690600354161760035569d3c21bcecceda1000000600955666400640064012c60018060401b0319600a541617600a556969e10de76676d0800000600b556103e861ffff19600c541617600c55601e600d556040516145759081620001ff82396080518181816104110152818161088d01528181611160015281816119b901528181611e6c01528181611f2401528181611fe3015281816132b301526136420152f35b5f80fd5b634e487b7160e01b5f52604160045260245ffd5b51906001600160a01b0382168203620001d15756fe60806040526004361015610011575f80fd5b5f803560e01c806306d46b6f14613a2e57806319f6a08a146139f65780631e820325146135795780631f0e8e4814613527578063304576b8146134b9578063375b3c0a1461349b5780633ad202b51461347d5780633f4ba83a14613407578063448013a9146133de5780634aa85890146130c55780634b6276aa146130a757806352826c8d146127cf57806353deb3d6146127aa578063570ca7351461278157806357b1f48e146127305780635c975abb1461270e5780636a67e542146126e55780636d99445f1461265e5780636f551bc6146125bf5780637b43875b146121985780637bf584511461214d5780638208cdb0146121025780638456cb591461209c5780638735cf3e14611cb457806389fb268214611afa5780638a69614e146119255780638a961598146117cb5780638c65c81f1461169a5780638da5cb5b146116715780638f1327c01461132757806392f992c1146112a05780639a15705f146112775780639cbe5efd146112595780639d03447f146110aa5780639efe10211461100c578063a42f45e714610fee578063b03381bc14610fb5578063b3ab15fb14610f6a578063b51609b414610eb2578063b53b270714610e8e578063c1ae9631146108ff578063c86c8bb2146108da578063d3771568146108bc578063dec8555a146108bc578063e49d93fb14610877578063e59929691461082c578063e80cfa5e1461080a578063e900ead814610370578063e90d4c061461029a578063ed0ae4f01461026f5763f54131a61461024b575f80fd5b3461026c578060031936011261026c57602061ffff600c5416604051908152f35b80fd5b503461026c578060031936011261026c575460405160089190911c6001600160a01b03168152602090f35b503461026c57604036600319011261026c5760406102b6613ab4565b916004358152600f602052209060018060a01b03165f5260205261018060405f208054906001810154906002810154600382015460ff61ffff92816005600487015496015416956040519788526020880152604087015280821615156060870152808260081c1615156080870152808260101c16151560a0870152808260181c16151560c08701528160201c16151560e0860152818160281c1661010086015260381c166101208401526101408301521515610160820152f35b503461026c57604036600319011261026c5760243561038d613ea1565b6103956144bf565b600654808352600e6020526040832090600182015442106107d457600282015442101561079957600954831061075e578352600f60205260408320335f5260205260405f2054610725576040516323b872dd60e01b81523360048201523060248201526044810183905290602082606481876001600160a01b037f0000000000000000000000000000000000000000000000000000000000000000165af191821561071a57610120926106eb575b506105c960405161045381613c70565b60043581528460208201524260408201528560608201528560808201528560a08201528560c08201528560e0820152856101008201528584820152600561014082018781526101608301908882526006548952600f60205260408920335f526020526105ad60405f209480518655602081015160018701556040810151600287015560038601906104f660608201511515839060ff801983541691151516179055565b6080810151825461ff00191690151560081b61ff001617825560a0810151825462ff0000191690151560101b62ff00001617825560c0810151825463ff000000191690151560181b63ff0000001617825560e0810151825464ff00000000191690151560201b64ff0000000016178255610100810151825466ffff0000000000191660289190911b66ffff00000000001617825561ffff998a910151825461ffff60381b1916911660381b61ffff60381b16179055565b51600484015551151591019060ff801983541691151516179055565b600c600a8201916105db858454613be3565b809355019081549063ffffffff6105f3818416613df4565b169060ff8263ffffffff1985161780865560881c161590816106de575b50610673575b85856006543383526012602052604083205460405192835242602084015260408301527fbd7f3fc45eeb2a58393b5f86d94f5851102deede92a350c3cf009117f994040c60603393a360015f805160206145208339815191525580f35b600160881b9171ff00000000000000000000000000ffffffff1916171790557ffa6bbca0a029728c0ddcda011a7934da4574ceb78e1873b5c7d1d28e4e9c3fb560206127106106cd60065494600b5490600c541690613c04565b04604051908152a25f808080610616565b9050600b5411155f610610565b61070c9060203d602011610713575b6107048183613cc3565b810190613ce4565b505f610443565b503d6106fa565b6040513d86823e3d90fd5b60405162461bcd60e51b8152602060048201526011602482015270105b1c9958591e4818dbdb5b5a5d1d1959607a1b6044820152606490fd5b60405162461bcd60e51b815260206004820152601360248201527242656c6f77206d696e696d756d207374616b6560681b6044820152606490fd5b60405162461bcd60e51b815260206004820152601360248201527210dbdb5b5a5d081c1a185cd94818db1bdcd959606a1b6044820152606490fd5b60405162461bcd60e51b815260206004820152600e60248201526d2937bab732103737ba1037b832b760911b6044820152606490fd5b503461026c578060031936011261026c57602061ffff600a5416604051908152f35b503461026c57602036600319011261026c57610846613a9e565b6005546001600160a01b0391906108609083163314613cfc565b166001600160601b0360a01b600354161760035580f35b503461026c578060031936011261026c576040517f00000000000000000000000000000000000000000000000000000000000000006001600160a01b03168152602090f35b503461026c578060031936011261026c576020600854604051908152f35b503461026c578060031936011261026c57602061ffff600a5460301c16604051908152f35b503461026c57606036600319011261026c57602460448035906001600160c01b031982168203610e8a5761093e60018060a01b03600454163314613d35565b6109466144bf565b6001600160c01b0319821615610e4657835b60088110610dc657505082835b60088110610d545750600211610cfd57610980600654613e93565b918260065561e10042014211610cd8576201437042018061e100420111610cea5762014dfc420110610cd857604051606081018181106001600160401b03821117610cc557604052848152846020820152846040820152604051906109e482613c8c565b84825242602083015261e1004201604083015262014dfc420160608301526001600160401b0360c01b841660808301528560a08301528560c083015260043560e08301528561010083015282356101208301526101408201528461016082015284610180820152846101a0820152846101c0820152846101e08201528461020082015284610220820152846102408201528461026082015284610280820152838552600e6020526040852081518155600160208301516001830155604083015160028301556003606084015160038401556004830191608085015160c01c6001600160401b0319845416178355610af860ff9360ff60a08801511660ff60401b82549160401b169060ff60401b1916179055565b60c0850151600585015560e08501516006850155610100850151600785015561012085015160088501556101408501519189938a905b828210610c94578b8b7f2dbd4a312a6f6cb03179309cc577208f3df96b559edf9faff48bd6bef030275d60608d8d8d600c8e8e6009820155610160830151600a820155610180830151600b8201550190610c1663ffffffff806101a08401511663ffffffff19855416178455610bc8816101c085015116859067ffffffff0000000082549160201b169067ffffffff000000001916179055565b6101e083015184546bffffffff0000000000000000191690821660401b63ffffffff60401b16178455610200830151845463ffffffff60601b1916911660601b63ffffffff60601b16178355565b610220810151151590825460ff60881b610240830151151560881b169060ff60901b610260840151151560901b169261028060ff60981b910151151560981b169360ff60801b9060801b169063ffffffff60801b1916171717179055604051916001600160401b0360c01b168252356020820152426040820152a280f35b9091926020610cb98697858585995116919060ff809160031b9316831b921b19161790565b96019493920190610b2e565b82634e487b7160e01b5f5260416004525ffd5b634e487b7160e01b8452601160045283fd5b50634e487b7160e01b8452601160045283fd5b60405162461bcd60e51b815260206004820152602a818401527f4c657474657220706f6f6c206d75737420636f6e7461696e206174206c65617360448201526974203220766f77656c7360b01b6064820152608490fd5b82811a60418114908115610dbb575b8115610db0575b8115610da5575b8115610d9a575b50610d86575b600101610965565b90610d92600191613e93565b919050610d7e565b60559150145f610d78565b604f81149150610d71565b604981149150610d6a565b604581149150610d63565b82811a60418110159081610e3a575b5015610de357600101610958565b60405162461bcd60e51b815260206004820152602b818601527f4c657474657220706f6f6c206d75737420636f6e7461696e206f6e6c79207570818401526a3832b931b0b9b2902096ad60a91b6064820152608490fd5b605a915011155f610dd5565b60405162461bcd60e51b815260206004820152601b818501527f4c657474657220706f6f6c2063616e6e6f7420626520656d70747900000000006044820152606490fd5b8380fd5b503461026c578060031936011261026c576020600a5461ffff60405191831c168152f35b503461026c57606036600319011261026c57610ecc613a9e565b6001600160a01b03906044358281168103610f6657602091610f2c91610ef785600554163314613cfc565b60405163a9059cbb60e01b81526001600160a01b03909116600482015260248035908201529384928391879183906044820190565b0393165af18015610f5b57610f3f575080f35b610f579060203d602011610713576107048183613cc3565b5080f35b6040513d84823e3d90fd5b5f80fd5b503461026c57602036600319011261026c57610f84613a9e565b6005546001600160a01b039190610f9e9083163314613cfc565b166001600160601b0360a01b600454161760045580f35b503461026c57602036600319011261026c576020906040906001600160a01b03610fdd613a9e565b168152601283522054604051908152f35b503461026c578060031936011261026c576020600754604051908152f35b503461026c57604036600319011261026c5760043561103660018060a01b03600554163314613cfc565b808252600e60205260ff600c60408420015460801c16611065578152600e602052602435600860408320015580f35b60405162461bcd60e51b815260206004820152601760248201527f526f756e6420616c72656164792066696e616c697a65640000000000000000006044820152606490fd5b503461026c576020908160031936011261026c57600480546001600160a01b0390811693913591906110dd338614613d35565b828452600e82526040842060ff600c82015460881c161561121c57600b0180546111e6578261115c94959661271061111e600b5461ffff600c541690613c04565b6040516323b872dd60e01b81526001600160a01b039093166004840152306024840152046044820181905290959093869182908a9082906064820190565b03927f0000000000000000000000000000000000000000000000000000000000000000165af19081156111db577f659ce6ecd75f2a83a3d7d54d6455d7a58d73db5e7dd683a208017e93312ed4879483926111be575b5055604051908152a280f35b6111d490853d8711610713576107048183613cc3565b505f6111b2565b6040513d88823e3d90fd5b60405162461bcd60e51b815260048101849052600e60248201526d105b1c9958591e481cd95959195960921b6044820152606490fd5b60405162461bcd60e51b8152600481018490526015602482015274129858dadc1bdd081b9bdd081d1c9a59d9d95c9959605a1b6044820152606490fd5b503461026c578060031936011261026c576020600654604051908152f35b503461026c578060031936011261026c576002546040516001600160a01b039091168152602090f35b503461026c57602036600319011261026c576004358152600e6020526040812060ff600c82015460801c1690816112df575b6020826040519015158152f35b60030154600d5462015180808202949293508115918504141715611313575060209161130a91613be3565b4210155f6112d2565b634e487b7160e01b81526011600452602490fd5b503461026c57602036600319011261026c578061028060405161134981613c8c565b8281528260208201528260408201528260608201528260808201528260a08201528260c08201528260e0820152826101008201528261012082015260405161139081613ca8565b60603682376101408201528261016082015282610180820152826101a0820152826101c0820152826101e08201528261020082015282610220820152826102408201528261026082015201526004358152600e602052604081209060ff600c604051936113fc85613c8c565b805485526001810154602086015260028101546040860152600381015460608601528260048201546001600160401b0360c01b8160c01b16608088015260401c1660a0860152600581015460c0860152600681015460e086015260078101546101008601526008810154610120860152604051611496816009840160ff604091548181168452818160081c16602085015260101c16910152565b61149f81613ca8565b610140860152600a810154610160860152600b810154610180860152015463ffffffff81166101a085015263ffffffff8160201c166101c085015263ffffffff8160401c166101e085015263ffffffff8160601c16610200850152818160801c161515610220850152818160881c161515610240850152818160901c16151561026085015260981c16151561028083015260405190825182526020830151602083015260408301516040830152606083015160608301526001600160401b0360c01b608084015116608083015260ff60a08401511660a083015260c083015160c083015260e083015160e083015261010083015161010083015261012083015161012083015261014083015161014083019091905b60038210611658576102e084610280876101608101516101a08401526101808101516101c084015263ffffffff6101a0820151166101e084015263ffffffff6101c08201511661020084015263ffffffff6101e08201511661022084015263ffffffff61020082015116610240840152610220810151151561026084015261024081015115158284015261026081015115156102a0840152015115156102c0820152f35b60208060019260ff8651168152019301910190916115b4565b503461026c578060031936011261026c576005546040516001600160a01b039091168152602090f35b503461026c57602036600319011261026c576040610280916004358152600e6020522060ff815491600181015490600281015460038201546004830154600584015460068501549087600787015493600888015495600a89015497600c600b8b01549a01549a60206040519e8f908152015260408d015260608c01526001600160401b0360c01b8160c01b1660808c015260401c1660a08a015260c089015260e088015261010087015261012086015261014085015261016084015263ffffffff811661018084015263ffffffff8160201c166101a084015263ffffffff8160401c166101c084015263ffffffff8160601c166101e0840152818160801c161515610200840152818160881c161515610220840152818160901c16151561024084015260981c161515610260820152f35b503461026c5760e036600319011261026c5760243561ffff8082168203610f6657604435918183168303610f66576064358281168103610f665760a43592808416809403610f665760c4359461182c60018060a01b03600554163314613cfc565b6103e8826118438561183e8589613e7d565b613e7d565b16116118f157600786106118b95765ffff0000000067ffff0000000000009260043560095563ffff0000600a549161187f8761183e878b613e7d565b169660101b16906001600160401b031916179160201b16179160301b161717600a55608435600b5561ffff19600c541617600c55600d5580f35b60405162461bcd60e51b815260206004820152601060248201526f115e1c1a5c9e481d1bdbc81cda1bdc9d60821b6044820152606490fd5b60405162461bcd60e51b815260206004820152600c60248201526b08ccaca40e8dede40d0d2ced60a31b6044820152606490fd5b503461026c57602080600319360112611af657600435611943613ea1565b808352600f825260408320335f52825260405f20818452600e835260ff600c60408620015460801c1615611ac15760048101908154908115611a9057600501805460ff8116611a595760ff1916600117905560405163a9059cbb60e01b81523360048201526024810191909152908382604481887f00000000000000000000000000000000000000000000000000000000000000006001600160a01b03165af1918215611a4e577fe97cee5a4c0549d3fdc81e322b718ddf0aeb3418ec87dce4f9a7fb28d117c31292611a31575b5054926040519384523393a360015f805160206145208339815191525580f35b611a4790853d8711610713576107048183613cc3565b505f611a11565b6040513d87823e3d90fd5b60405162461bcd60e51b815260048101879052600f60248201526e105b1c9958591e4818db185a5b5959608a1b6044820152606490fd5b60405162461bcd60e51b8152600481018690526009602482015268139bc81c185e5bdd5d60ba1b6044820152606490fd5b60405162461bcd60e51b815260048101849052600d60248201526c139bdd08199a5b985b1a5e9959609a1b6044820152606490fd5b5080fd5b503461026c57604036600319011261026c576040611b16613ab4565b91806101608351611b2681613c70565b82815282602082015282858201528260608201528260808201528260a08201528260c08201528260e082015282610100820152826101208201528261014082015201526004358152600f602052209060018060a01b03165f5260205261018060405f20610160604051611b9881613c70565b60ff6005845494858452600181015460208501526002810154604085015261ffff600382015484811615156060870152848160081c1615156080870152848160101c16151560a0870152848160181c16151560c0870152848160201c16151560e0870152818160281c1661010087015260381c166101208501526004810154610140850152015416151582820152604051928352602081015160208401526040810151604084015260608101511515606084015260808101511515608084015260a0810151151560a084015260c0810151151560c084015260e0810151151560e084015261ffff6101008201511661010084015261ffff6101208201511661012084015261014081015161014084015201511515610160820152f35b503461026c57602080600319360112611af6576004359060018060a01b03611ce181600554163314613cfc565b611ce9613ea1565b828452600e8252604084209160018301541561206157611d0f6003840154421015613b65565b611d38600c840193611d2860ff865460801c1615613ba3565b600b600a82015491015490613be3565b92600a546127109361ffff94611d7481611d57888660101c168a613c04565b049682611d6882878a1c168b613c04565b049460301c1688613c04565b049088611d8e83611d8986611d898b8d613c35565b613c35565b9387611fe0575b80151580611fd3575b611ef4575b505081611e26575b50509160609391837fa623e393dac7626c7c243fb732de9a6633ec0ac9a11fd90ba382b6d2ae0666de9694611e11575b50600160801b60ff60801b19825416179055604051928352820152846040820152a260015f805160206145208339815191525580f35b611e1d90600854613be3565b6008555f611ddb565b93809295939185611e689896600454168b604051809b8195829463a9059cbb60e01b84526004840160209093929193604081019460018060a01b031681520152565b03927f0000000000000000000000000000000000000000000000000000000000000000165af1948515611ee9577fa623e393dac7626c7c243fb732de9a6633ec0ac9a11fd90ba382b6d2ae0666de96606096611ecc575b5091939581939550611dab565b611ee290843d8611610713576107048183613cc3565b505f611ebf565b6040513d8a823e3d90fd5b60025460405163a9059cbb60e01b81529084166001600160a01b03166004820152602481018290528781604481867f000000000000000000000000000000000000000000000000000000000000000089165af18015611fc857611fab575b50826002541690813b15611fa757829060448c836040519586948593633a06962160e21b8552600485015260248401525af18015610f5b5715611da357611f9890613c42565b611fa357885f611da3565b8880fd5b8280fd5b611fc190883d8a11610713576107048183613cc3565b505f611f52565b6040513d85823e3d90fd5b5082600254161515611d9e565b827f000000000000000000000000000000000000000000000000000000000000000016803b15611fa75782809160248b6040519485938492630852cd8d60e31b845260048401525af1908115611fc857839161204d575b505061204588600754613be3565b600755611d95565b61205690613c42565b611af657815f612037565b6064906040519062461bcd60e51b825260048201526014602482015273149bdd5b9908191bd95cc81b9bdd08195e1a5cdd60621b6044820152fd5b503461026c578060031936011261026c576120c260018060a01b03600554163314613cfc565b6120ca6144bf565b600160ff198254161781557f62e78cea01bee320cd4e420270b5ea74000d11b0c9f74754ebdbfc544b05a2586020604051338152a180f35b503461026c57602036600319011261026c5761211c613a9e565b6005546001600160a01b0391906121369083163314613cfc565b166001600160601b0360a01b600254161760025580f35b503461026c57602036600319011261026c57612167613a9e565b6005546001600160a01b0391906121819083163314613cfc565b166001600160601b0360a01b600154161760015580f35b503461026c5760a036600319011261026c5760043536608411611af6576004546001600160a01b0391906121cf9083163314613d35565b60065483526020600e815260408420916002830154421061258257600c830180549060ff9161220460ff8260901c1615613d71565b6040518581019085825286815260408101918183106001600160401b0384111761256e57826040528151902060068901540361253e575050600396600354169686549360088801549860405163d58133ed60e01b815286600482015260249a61226e8c8301613e48565b608435608483015260a4820152888160c481855afa908115612533578c91612516575b50156124d2578760649160405192838092631ffc3b5160e31b82526122b860048301613e48565b5afa9081156124c7578b916124aa575b501561246e5785600789015588908a928b5b8181106124375750505050600987015561ffff60901b191661010160901b179055435f19810191908211612424576040519184830193845240604083015260608201526060815261232a81613c55565b51902060048301805468ff0000000000000000191668030000000000000000604084901b161781559390600360ff865460401c16105f146123f25760079060081c1690845460c01b9060088310156123e05750901a60f81b6001600160f81b03191660058301557fd8c6e0639eac1b4c12246f9855a9ed82d897723e4ef3890e16a2035bde345e0f9160a0915b600560ff8354965460401c16920154906040519283528201526123dc60408201613e48565ba280f35b634e487b7160e01b8752603260045286fd5b50508160a0918560057fd8c6e0639eac1b4c12246f9855a9ed82d897723e4ef3890e16a2035bde345e0f9501556123b7565b634e487b7160e01b875260116004528587fd5b9091929384358481168103610f66576124638b91846001949060ff809160031b9316831b921b19161790565b9501939291016122da565b60405162461bcd60e51b8152600481018890526015818b015274496e76616c69642072756c6572206c656e6774687360581b6044820152606490fd5b6124c19150883d8a11610713576107048183613cc3565b5f6122c8565b6040513d8d823e3d90fd5b60405162461bcd60e51b8152600481018990526019818c01527f52756c657220636f6d6d69746d656e74206d69736d61746368000000000000006044820152606490fd5b61252d9150893d8b11610713576107048183613cc3565b5f612291565b6040513d8e823e3d90fd5b906c0a6cacac840dad2e6dac2e8c6d609b1b60846064938962461bcd60e51b85526044820152600d858201520152fd5b634e487b7160e01b5f52604160045260245ffd5b60405162461bcd60e51b815260048101839052601560248201527421b7b6b6b4ba10383430b9b2903737ba1037bb32b960591b6044820152606490fd5b503461026c57602080600319360112611af65760043582526010815260408220918254906001600160401b03821161264a579260405192612605818460051b0185613cc3565b82845280840191855280852094915b83831061262d57604051806126298782613afa565b0390f35b60038260019261263c89613e09565b815201960192019194612614565b634e487b7160e01b81526041600452602490fd5b503461026c57602080600319360112611af65760043582526011815260408220918254906001600160401b03821161264a5792604051926126a4818460051b0185613cc3565b82845280840191855280852094915b8383106126c857604051806126298782613afa565b6003826001926126d789613e09565b8152019601920191946126b3565b503461026c578060031936011261026c576001546040516001600160a01b039091168152602090f35b503461026c578060031936011261026c5760ff60209154166040519015158152f35b503461026c57602036600319011261026c576004358152600e6020526003604082200154600d549162015180928381029381850414901517156113135760206127798484613be3565b604051908152f35b503461026c578060031936011261026c576004546040516001600160a01b039091168152602090f35b503461026c578060031936011261026c57602061ffff600a5460101c16604051908152f35b503461026c57608036600319011261026c576001600160401b03600435818111611fa75736602382011215611fa75781816004013511611fa757366024826004013583010111611fa757604435828111610e8a57612831903690600401613aca565b90926064359081116130a35761284b903690600401613aca565b9092612855613ea1565b60065494858752600e6020526040872091600f60205260408820335f5260205260405f20926002810154421061306c576003810154421015613031578354968715612ffc576003850154936128ad60ff861615613d71565b6128bf36856004013560248701614053565b978851996128cc8b614038565b9a6128da6040519c8d613cc3565b808c526128e9601f1991614038565b013660208d01378c5b8d8b5182101561299357600191908d908d9083906001600160f81b0319604160f81b8161291f8587614089565b5116101580612979575b1561295c5761293b8361295495614089565b5161294960f891821c61409a565b901b16901a92614089565b535b016128f2565b6129698361297395614089565b5116901a92614089565b53612956565b50602d60f91b8161298a8587614089565b51161115612929565b9a50508b8b6040519160208301523360601b6040830152818151918d5b838110612fe4575050806129d892607492016024356054820152036054810184520182613cc3565b6020815191012003612fa957600154604080516314b8974960e31b815260048101919091529260209284926001600160a01b03169183918291612a3e91612a2491604485019190613db0565b6003198382030160248401528a6004013560248c01613dd4565b03915afa908115611ee9578891612f8a575b5015612f5157600482015490612a718260c01b8560040135602487016140d0565b15612f1a5760209160ff60018060a01b038a5460081c1691612ae26005870154946040519b8c968795869563022b5b7560e41b875260401c166004860152602485015260806044850152612ad0608485018b6004013560248d01613dd4565b84810360031901606486015291613db0565b03915afa9485156111db578695612ef6575b50608490602060018060a01b036003541660405193848092632a62217360e11b825287600401356004830152612b4a602483016009880160ff604091548181168452818160081c16602085015260101c16910152565b5afa928315612eeb57869485938995612eca575b508395612ec1575b83612eb8575b66ffffffffff000019600161ff008a151560081b1661ffff199390931692909217919091171662ff000085151560101b161763ff00000086151560181b161764ff0000000084151560201b161760049091013560281b66ffff0000000000161760038601558515612ea357612c1c61ffff6064612bfa612beb33614240565b8360038b015460281c16613c04565b0416600387019061ffff60381b82549160381b169061ffff60381b1916179055565b3387526013602052604087205460065490815f19810111612e8f57600c9291905f19820103612e6c5750338852601260205260408820612c5c8154613e93565b90555b60065433895260136020526040892055019063ffffffff90612cab612c8983855460201c16613df4565b845467ffffffff00000000191660209190911b67ffffffff0000000016178455565b600386015490600187015460028801549061ffff60405194612ccc86613c55565b33865260381c166020850152604084015260608301528515612ddf575060065488526010602052604088209082845460201c16600a810290808204600a1490151715612dcb57612d4192612d609594926064612d369304600381105f14612dc5575060039161432c565b825460401c16613df4565b63ffffffff60401b82549160401b169063ffffffff60401b1916179055565b61ffff600360065494015460381c16936040519485521515602085015215156040840152151560608301527fbafcbe0bcb12be1bcba8e93d2c2a1f5a5354246da0cfbd409cbe845c1558ed1060803393a360015f805160206145208339815191525580f35b9161432c565b634e487b7160e01b8a52601160045260248afd5b612dec575b505050612d60565b60065488526011602052604088209082845460201c16600581029080820460051490151715612dcb57612e4492612e649594926064612e399304600181105f14612dc5575060019161432c565b825460601c16613df4565b815463ffffffff60601b191660609190911b63ffffffff60601b16179055565b858080612de4565b3389526013602052604089205414612c5f57601260205260016040892055612c5f565b634e487b7160e01b89526011600452602489fd5b60038501805461ffff60381b19169055612c1c565b84159350612b6c565b94508394612b66565b612ee491955060203d602011610713576107048183613cc3565b9389612b5e565b6040513d89823e3d90fd5b6084919550612f139060203d602011610713576107048183613cc3565b9490612af4565b60405162461bcd60e51b815260206004820152600f60248201526e496e76616c6964206c65747465727360881b6044820152606490fd5b60405162461bcd60e51b81526020600482015260116024820152704e6f7420696e2064696374696f6e61727960781b6044820152606490fd5b612fa3915060203d602011610713576107048183613cc3565b88612a50565b60405162461bcd60e51b8152602060048201526013602482015272086dedadad2e8dacadce840dad2e6dac2e8c6d606b1b6044820152606490fd5b602082820181015160548784010152859350016129b0565b60405162461bcd60e51b815260206004820152600d60248201526c139bc818dbdb5b5a5d1b595b9d609a1b6044820152606490fd5b60405162461bcd60e51b815260206004820152601360248201527214995d99585b081c1a185cd94818db1bdcd959606a1b6044820152606490fd5b60405162461bcd60e51b815260206004820152600f60248201526e2932bb32b0b6103737ba1037b832b760891b6044820152606490fd5b8480fd5b503461026c578060031936011261026c576020600d54604051908152f35b503461026c576020908160031936011261026c5760043560018060a01b03916130f383600454163314613d35565b6130fb613ea1565b818152600e8452604081209160ff9260ff600c82015460801c16156133a35760030154600d5490620151809182810292818404149015171561338f579061314191613be3565b421061334a5781818152601086526040812094815b86548110156131cf578161316a8289613a71565b505416848452600f895260408420905f52885260405f206004810154801515806131c1575b61319e575b5050600101613156565b6131ae6005916001949398613be3565b9601805460ff191683179055905f613194565b50876005830154161561318f565b5082825260118752604082209550815b865481101561325857816131f38289613a71565b505416848452600f895260408420905f52885260405f2060048101548015158061324a575b613227575b50506001016131df565b6132376005916001949398613be3565b9601805460ff191683179055905f61321d565b508760058301541615613218565b50908694508361327f575b50505060015f8051602061452083398151915255604051908152f35b6004805460405163a9059cbb60e01b81529084166001600160a01b03169181019190915260248101859052908582604481847f000000000000000000000000000000000000000000000000000000000000000088165af190811561333e5750916040917f9950c16c540087f1266b27638b9791d7c974dd39551c41a1325e177beaac5fbc93613321575b506004541681519085825286820152a2828080613263565b61333790873d8911610713576107048183613cc3565b5086613309565b604051903d90823e3d90fd5b60405162461bcd60e51b815260048101869052601960248201527f5061796f757420657870697279206e6f742072656163686564000000000000006044820152606490fd5b634e487b7160e01b84526011600452602484fd5b60405162461bcd60e51b8152600481018790526013602482015272149bdd5b99081b9bdd08199a5b985b1a5e9959606a1b6044820152606490fd5b503461026c578060031936011261026c576003546040516001600160a01b039091168152602090f35b503461026c578060031936011261026c5761342d60018060a01b03600554163314613cfc565b805460ff81161561346b5760ff191681557f5db9ee0a495bf2e6ff9c91a7834c1ba4fdd244a5e8aa4e537bd38aeae4b073aa6020604051338152a180f35b604051638dfc202b60e01b8152600490fd5b503461026c578060031936011261026c576020600b54604051908152f35b503461026c578060031936011261026c576020600954604051908152f35b503461026c576134c836613a5b565b9082526011602052604082208054821015611fa7576134e79250613a71565b5080546001820154600290920154604080516001600160a01b038416815260a09390931c61ffff1660208401528201929092526060810191909152608090f35b503461026c57602036600319011261026c57613541613a9e565b61355660018060a01b03600554163314613cfc565b8154610100600160a81b03191660089190911b610100600160a81b031617815580f35b5034610f66575f366003190112610f6657613592613ea1565b60068054805f526020600e815260405f20926135b46003850154421015613b65565b6135cd600c850194611d2860ff875460801c1615613ba3565b926135db6008548095613be3565b9383816139c1575b505050600a54936127109461ffff9561362281613605898560101c1689613c04565b04978261361682868a1c168a613c04565b049360301c1687613c04565b049061363682611d8983611d898b8b613c35565b916001600160a01b03917f0000000000000000000000000000000000000000000000000000000000000000831690813b15610f6657604051630852cd8d60e31b8152600481018b90525f8160248183875af180156139b65761399d575b50908a8893928b7fe25c13ab9b2aded7bb7d39d4829c2efb98edd820bd84d49234678cedc8b8fd5660406136c983600754613be3565b92836007558c5493825191825289820152a2856002541680151580613994575b613894575b5050508161382f575b50505050605a8102818104605a148215171561381b57916137bb7fa623e393dac7626c7c243fb732de9a6633ec0ac9a11fd90ba382b6d2ae0666de969492613746606460609896048092613c35565b90845490818c526010875260408c2080541580613812575b15613804575090507f53255d87c2093234b4861ba8a8c0cb27d23b8b56e2bd9fd1aa2f66e401af9e61604061379583600854613be3565b9283600855875493825191825289820152a25b8354808b526011865260408b2090613f78565b600160801b60ff60801b1982541617905554948587526010825263ffffffff604088205416916040519384528301526040820152a260015f805160206145208339815191525580f35b61380d92613ed0565b6137a8565b5081151561375e565b634e487b7160e01b88526011600452602488fd5b6004805460405163a9059cbb60e01b815295166001600160a01b03169085015260248401919091528290818b816044810103925af18015611ee957613877575b8481806136f7565b61388d90853d8711610713576107048183613cc3565b505f61386f565b60405163a9059cbb60e01b81526001600160a01b039190911660048201526024810182905291949091908160448188875af18015611a4e57613977575b5084600254168854813b15613973578591604483926040519889938492633a06962160e21b845260048401528760248401525af1948515613966578a95613949575b50507f5b98f297c65d4dde52e0e7c1f8de705c39cb278e8ed11c2b95de9663e1a4635284895492604051908152a28a5f806136ee565b61395591929550613c42565b6139625787928b5f613913565b8a80fd5b50604051903d90823e3d90fd5b8580fd5b61398d908a3d8c11610713576107048183613cc3565b505f6138d1565b508115156136e9565b889392919b506139ac90613c42565b5f9a909192613693565b6040513d5f823e3d90fd5b7f9df2388d2f254b6e9d2bb1a0cf485e76512b5753c746d6927832af91bbf7f3b191604051908152a25f6008555f80836135e3565b34610f66576020366003190112610f66576001600160a01b03613a17613a9e565b165f526013602052602060405f2054604051908152f35b34610f6657613a3c36613a5b565b905f52601060205260405f20908154811015610f66576134e791613a71565b6040906003190112610f66576004359060243590565b8054821015613a8a575f52600360205f20910201905f90565b634e487b7160e01b5f52603260045260245ffd5b600435906001600160a01b0382168203610f6657565b602435906001600160a01b0382168203610f6657565b9181601f84011215610f66578235916001600160401b038311610f66576020808501948460051b010111610f6657565b60208082019080835283518092528060408094019401925f905b838210613b2357505050505090565b845180516001600160a01b031687528084015161ffff168785015280820151878301526060908101519087015260809095019493820193600190910190613b14565b15613b6c57565b60405162461bcd60e51b815260206004820152600f60248201526e2932bb32b0b6103737ba1037bb32b960891b6044820152606490fd5b15613baa57565b60405162461bcd60e51b8152602060048201526011602482015270105b1c9958591e48199a5b985b1a5e9959607a1b6044820152606490fd5b91908201809211613bf057565b634e487b7160e01b5f52601160045260245ffd5b81810292918115918404141715613bf057565b8115613c21570490565b634e487b7160e01b5f52601260045260245ffd5b91908203918211613bf057565b6001600160401b03811161256e57604052565b608081019081106001600160401b0382111761256e57604052565b61018081019081106001600160401b0382111761256e57604052565b6102a081019081106001600160401b0382111761256e57604052565b606081019081106001600160401b0382111761256e57604052565b90601f801991011681019081106001600160401b0382111761256e57604052565b90816020910312610f6657518015158103610f665790565b15613d0357565b60405162461bcd60e51b815260206004820152600a60248201526927b7363c9037bbb732b960b11b6044820152606490fd5b15613d3c57565b60405162461bcd60e51b815260206004820152600d60248201526c27b7363c9037b832b930ba37b960991b6044820152606490fd5b15613d7857565b60405162461bcd60e51b815260206004820152601060248201526f105b1c9958591e481c995d99585b195960821b6044820152606490fd5b81835290916001600160fb1b038311610f665760209260051b809284830137010190565b908060209392818452848401375f828201840152601f01601f1916010190565b63ffffffff809116908114613bf05760010190565b90604051613e1681613c55565b82546001600160a01b038116825260a01c61ffff16602082015260018301546040820152600292909201546060830152565b60245f915b60038310613e5a57505050565b81359060ff8216809203610f665760019181526020809101920192019190613e4d565b91909161ffff80809416911601918211613bf057565b5f198114613bf05760010190565b5f805160206145208339815191526002815414613ebe5760029055565b604051633ee5aeb560e01b8152600490fd5b9092918354908115613f71575f915f905b808210613f515750505f5b855480821015613f485790613f1584613f10613f0a84600196613c35565b86613c04565b613c17565b855f5260046020600f8152604090815f2090613f31868d613a71565b50878060a01b039054165f52525f20015501613eec565b50505050509050565b9092613f69600191613f638685613c35565b90613be3565b930190613ee1565b5050509050565b909291928054938415613f71575f945f905b80821061401e5750505f5b825480821015613f485790613fb387613f10613f0a84600196613c35565b855f52600f906020828152604090815f2090613fcf868a613a71565b5091878060a01b03809354165f52815286835f200154808511614015575b50600493948a5f528152825f2091614005878b613a71565b5054165f52525f20015501613f95565b93506004613fed565b9095614030600191613f638985613c35565b960190613f8a565b6001600160401b03811161256e57601f01601f191660200190565b92919261405f82614038565b9161406d6040519384613cc3565b829481845281830111610f66578281602093845f960137010152565b908151811015613a8a570160200190565b60ff60209116019060ff8211613bf057565b60ff6060199116019060ff8211613bf057565b90601a811015613a8a5760051b0190565b6140db913691614053565b90604051906103408083018381106001600160401b0382111761256e576040523683375f5b600881106141a95750505f5b82518110156141a15761411f8184614089565b5160f81c604181101580614196575b614188575b60ff908181166061811090811561417d575b50614174578161415761415e926140ac565b16846140bf565b51161561416d5760010161410c565b5050505f90565b50505050505f90565b607a9150115f614145565b6141919061409a565b614133565b50605a81111561412e565b505050600190565b81811a90604182101580614235575b614225575b60ff9182811660618110159081614219575b506141e0575b506001915001614100565b6141ea83916140ac565b1691806141f784876140bf565b511690808214613bf057600161420e8195886140bf565b92011690525f6141d5565b607a915011155f6141cf565b9061422f9061409a565b906141bd565b50605a8211156141b8565b60018060a01b0316805f52601260205260405f205490601360205260405f205490600654915f19830190838211613bf057036142b157505061428190613e93565b600e8110156142ab5760078110156142a557600311156142a057606490565b606e90565b50607d90565b50609690565b5f52601360205260405f2054031561428157506001614281565b91906143195780518254602083015161ffff60a01b60a09190911b166001600160a01b039092166001600160b01b031990911617178255600290606090604081015160018501550151910155565b634e487b7160e01b5f525f60045260245ffd5b92919091835492835f5b81811061448f575b50838510156144875783811061445c575b5084545f199490858101908111613bf0575b8181116143ce57509061437761437d9287613a71565b906142cb565b8354828111156143c75780156143b35783016143998186613a71565b614319576002815f8093558260018201550155845561437d565b634e487b7160e01b5f52603160045260245ffd5b5092505050565b858101818111613bf0576143e29088613a71565b506143ed8289613a71565b9190916143195780820361440b575b50508015613bf0578501614361565b805482546001600160a01b039091166001600160a01b0319821681178455825461ffff60a01b166001600160b01b031990921617178255600180820154908301556002809101549101555f806143fc565b6801000000000000000081101561256e57816143778260016144819401895588613a71565b5f61434f565b505092505050565b6144ab6144a561449f838a613a71565b50613e09565b846144dc565b6144b757600101614336565b94505f61433e565b60ff5f54166144ca57565b60405163d93c066560e01b8152600490fd5b61ffff80602083015116906020840151169081810361451857505060408101516040830151908181036145185750506060809101519101511190565b119291505056fe9b779b17422d0df92223018b32b4d1fa46e071723d6817e2486d003becc55f00a26469706673582212201d98e78febe3d9043c69a620ba220d84dee416da27cd08514a6f5fc5677f6b5764736f6c63430008180033","linkReferences":{}},"methodIdentifiers":{"adminFinalizeRound(uint256)":"8735cf3e","burnBps()":"53deb3d6","canSweepPayouts(uint256)":"92f992c1","claimPayout(uint256)":"8a69614e","clawdiaToken()":"e49d93fb","commit(bytes32,uint256)":"e900ead8","commitments(uint256,address)":"e90d4c06","currentRoundId()":"9cbe5efd","dictionaryVerifier()":"6a67e542","finalizeRound()":"1e820325","getCommitment(uint256,address)":"89fb2682","getPayoutExpiryTimestamp(uint256)":"57b1f48e","getRolloverAmount()":"d3771568","getRound(uint256)":"8f1327c0","getTopConsolation(uint256)":"6d99445f","getTopValid(uint256)":"6f551bc6","globalBurnCounter()":"a42f45e7","jackpotBonusBps()":"f54131a6","jackpotThreshold()":"3ad202b5","lastParticipatedRound(address)":"19f6a08a","minStake()":"375b3c0a","openRound(bytes32,bytes32,bytes8)":"c1ae9631","operationsBps()":"c86c8bb2","operator()":"570ca735","overrideRulerCommitHash(uint256,bytes32)":"9efe1021","owner()":"8da5cb5b","pause()":"8456cb59","paused()":"5c975abb","payoutExpiryDays()":"4b6276aa","recoverERC20(address,uint256,address)":"b51609b4","reveal(string,bytes32,bytes32[],bytes32[])":"52826c8d","revealSeedAndRuler(bytes32,uint8[3],bytes32)":"7b43875b","rolloverAmount()":"dec8555a","rounds(uint256)":"8c65c81f","seedJackpotBonus(uint256)":"9d03447f","setConfig(uint256,uint16,uint16,uint16,uint256,uint16,uint256)":"8a961598","setDictionaryVerifier(address)":"7bf58451","setOperator(address)":"b3ab15fb","setSpellEngine(address)":"1f0e8e48","setSpellRegistry(address)":"e5992969","setStakerDistributor(address)":"8208cdb0","spellEngine()":"ed0ae4f0","spellRegistry()":"448013a9","stakerBps()":"b53b2707","stakerDistributor()":"9a15705f","streakCount(address)":"b03381bc","sweepUnclaimedPayouts(uint256)":"4aa85890","topConsolation(uint256,uint256)":"304576b8","topValid(uint256,uint256)":"06d46b6f","treasuryFeeBps()":"e80cfa5e","unpause()":"3f4ba83a"},"id":34}