{"abi":[{"type":"constructor","inputs":[{"name":"_token","type":"address","internalType":"address"},{"name":"_operator","type":"address","internalType":"address"},{"name":"_owner","type":"address","internalType":"address"},{"name":"_spellEngine","type":"address","internalType":"address"},{"name":"_dictionaryVerifier","type":"address","internalType":"address"},{"name":"_stakerDistributor","type":"address","internalType":"address"},{"name":"_spellRegistry","type":"address","internalType":"address"}],"stateMutability":"nonpayable"},{"type":"function","name":"burnBps","inputs":[],"outputs":[{"name":"","type":"uint16","internalType":"uint16"}],"stateMutability":"view"},{"type":"function","name":"canSweepPayouts","inputs":[{"name":"roundId","type":"uint256","internalType":"uint256"}],"outputs":[{"name":"","type":"bool","internalType":"bool"}],"stateMutability":"view"},{"type":"function","name":"claimPayout","inputs":[{"name":"roundId","type":"uint256","internalType":"uint256"}],"outputs":[],"stateMutability":"nonpayable"},{"type":"function","name":"clawdiaToken","inputs":[],"outputs":[{"name":"","type":"address","internalType":"contract IERC20"}],"stateMutability":"view"},{"type":"function","name":"commit","inputs":[{"name":"commitHash","type":"bytes32","internalType":"bytes32"},{"name":"stakeAmount","type":"uint256","internalType":"uint256"}],"outputs":[],"stateMutability":"nonpayable"},{"type":"function","name":"commitments","inputs":[{"name":"","type":"uint256","internalType":"uint256"},{"name":"","type":"address","internalType":"address"}],"outputs":[{"name":"commitHash","type":"bytes32","internalType":"bytes32"},{"name":"stake","type":"uint256","internalType":"uint256"},{"name":"commitTime","type":"uint256","internalType":"uint256"},{"name":"revealed","type":"bool","internalType":"bool"},{"name":"spellPass","type":"bool","internalType":"bool"},{"name":"lengthValid","type":"bool","internalType":"bool"},{"name":"fullyValid","type":"bool","internalType":"bool"},{"name":"consolation","type":"bool","internalType":"bool"},{"name":"wordLength","type":"uint16","internalType":"uint16"},{"name":"effectiveScore","type":"uint16","internalType":"uint16"},{"name":"payout","type":"uint256","internalType":"uint256"},{"name":"claimed","type":"bool","internalType":"bool"}],"stateMutability":"view"},{"type":"function","name":"currentRoundId","inputs":[],"outputs":[{"name":"","type":"uint256","internalType":"uint256"}],"stateMutability":"view"},{"type":"function","name":"dictionaryVerifier","inputs":[],"outputs":[{"name":"","type":"address","internalType":"contract IDictionaryVerifier"}],"stateMutability":"view"},{"type":"function","name":"finalizeRound","inputs":[],"outputs":[],"stateMutability":"nonpayable"},{"type":"function","name":"getCommitment","inputs":[{"name":"roundId","type":"uint256","internalType":"uint256"},{"name":"player","type":"address","internalType":"address"}],"outputs":[{"name":"","type":"tuple","internalType":"struct SpellBlockGame.Commitment","components":[{"name":"commitHash","type":"bytes32","internalType":"bytes32"},{"name":"stake","type":"uint256","internalType":"uint256"},{"name":"commitTime","type":"uint256","internalType":"uint256"},{"name":"revealed","type":"bool","internalType":"bool"},{"name":"spellPass","type":"bool","internalType":"bool"},{"name":"lengthValid","type":"bool","internalType":"bool"},{"name":"fullyValid","type":"bool","internalType":"bool"},{"name":"consolation","type":"bool","internalType":"bool"},{"name":"wordLength","type":"uint16","internalType":"uint16"},{"name":"effectiveScore","type":"uint16","internalType":"uint16"},{"name":"payout","type":"uint256","internalType":"uint256"},{"name":"claimed","type":"bool","internalType":"bool"}]}],"stateMutability":"view"},{"type":"function","name":"getPayoutExpiryTimestamp","inputs":[{"name":"roundId","type":"uint256","internalType":"uint256"}],"outputs":[{"name":"","type":"uint256","internalType":"uint256"}],"stateMutability":"view"},{"type":"function","name":"getRolloverAmount","inputs":[],"outputs":[{"name":"","type":"uint256","internalType":"uint256"}],"stateMutability":"view"},{"type":"function","name":"getRound","inputs":[{"name":"roundId","type":"uint256","internalType":"uint256"}],"outputs":[{"name":"","type":"tuple","internalType":"struct SpellBlockGame.Round","components":[{"name":"roundId","type":"uint256","internalType":"uint256"},{"name":"startTime","type":"uint256","internalType":"uint256"},{"name":"commitDeadline","type":"uint256","internalType":"uint256"},{"name":"revealDeadline","type":"uint256","internalType":"uint256"},{"name":"letterPool","type":"bytes8","internalType":"bytes8"},{"name":"spellId","type":"uint8","internalType":"uint8"},{"name":"spellParam","type":"bytes32","internalType":"bytes32"},{"name":"seedHash","type":"bytes32","internalType":"bytes32"},{"name":"seed","type":"bytes32","internalType":"bytes32"},{"name":"rulerCommitHash","type":"bytes32","internalType":"bytes32"},{"name":"validLengths","type":"uint8[3]","internalType":"uint8[3]"},{"name":"totalStaked","type":"uint256","internalType":"uint256"},{"name":"jackpotBonus","type":"uint256","internalType":"uint256"},{"name":"numCommits","type":"uint32","internalType":"uint32"},{"name":"numReveals","type":"uint32","internalType":"uint32"},{"name":"validWinners","type":"uint32","internalType":"uint32"},{"name":"consolationWinners","type":"uint32","internalType":"uint32"},{"name":"finalized","type":"bool","internalType":"bool"},{"name":"jackpotTriggered","type":"bool","internalType":"bool"},{"name":"seedRevealed","type":"bool","internalType":"bool"},{"name":"rulerRevealed","type":"bool","internalType":"bool"}]}],"stateMutability":"view"},{"type":"function","name":"getTopConsolation","inputs":[{"name":"roundId","type":"uint256","internalType":"uint256"}],"outputs":[{"name":"","type":"tuple[]","internalType":"struct SpellBlockGame.LeaderboardEntry[]","components":[{"name":"player","type":"address","internalType":"address"},{"name":"effectiveScore","type":"uint16","internalType":"uint16"},{"name":"stake","type":"uint256","internalType":"uint256"},{"name":"commitTime","type":"uint256","internalType":"uint256"}]}],"stateMutability":"view"},{"type":"function","name":"getTopValid","inputs":[{"name":"roundId","type":"uint256","internalType":"uint256"}],"outputs":[{"name":"","type":"tuple[]","internalType":"struct SpellBlockGame.LeaderboardEntry[]","components":[{"name":"player","type":"address","internalType":"address"},{"name":"effectiveScore","type":"uint16","internalType":"uint16"},{"name":"stake","type":"uint256","internalType":"uint256"},{"name":"commitTime","type":"uint256","internalType":"uint256"}]}],"stateMutability":"view"},{"type":"function","name":"globalBurnCounter","inputs":[],"outputs":[{"name":"","type":"uint256","internalType":"uint256"}],"stateMutability":"view"},{"type":"function","name":"jackpotBonusBps","inputs":[],"outputs":[{"name":"","type":"uint16","internalType":"uint16"}],"stateMutability":"view"},{"type":"function","name":"jackpotThreshold","inputs":[],"outputs":[{"name":"","type":"uint256","internalType":"uint256"}],"stateMutability":"view"},{"type":"function","name":"lastParticipatedRound","inputs":[{"name":"","type":"address","internalType":"address"}],"outputs":[{"name":"","type":"uint256","internalType":"uint256"}],"stateMutability":"view"},{"type":"function","name":"minStake","inputs":[],"outputs":[{"name":"","type":"uint256","internalType":"uint256"}],"stateMutability":"view"},{"type":"function","name":"openRound","inputs":[{"name":"seedHash","type":"bytes32","internalType":"bytes32"},{"name":"rulerCommitHash","type":"bytes32","internalType":"bytes32"},{"name":"letterPool","type":"bytes8","internalType":"bytes8"}],"outputs":[],"stateMutability":"nonpayable"},{"type":"function","name":"operationsBps","inputs":[],"outputs":[{"name":"","type":"uint16","internalType":"uint16"}],"stateMutability":"view"},{"type":"function","name":"operator","inputs":[],"outputs":[{"name":"","type":"address","internalType":"address"}],"stateMutability":"view"},{"type":"function","name":"owner","inputs":[],"outputs":[{"name":"","type":"address","internalType":"address"}],"stateMutability":"view"},{"type":"function","name":"pause","inputs":[],"outputs":[],"stateMutability":"nonpayable"},{"type":"function","name":"paused","inputs":[],"outputs":[{"name":"","type":"bool","internalType":"bool"}],"stateMutability":"view"},{"type":"function","name":"payoutExpiryDays","inputs":[],"outputs":[{"name":"","type":"uint256","internalType":"uint256"}],"stateMutability":"view"},{"type":"function","name":"reveal","inputs":[{"name":"word","type":"string","internalType":"string"},{"name":"salt","type":"bytes32","internalType":"bytes32"},{"name":"dictProof","type":"bytes32[]","internalType":"bytes32[]"},{"name":"categoryProof","type":"bytes32[]","internalType":"bytes32[]"}],"outputs":[],"stateMutability":"nonpayable"},{"type":"function","name":"revealSeedAndRuler","inputs":[{"name":"seed","type":"bytes32","internalType":"bytes32"},{"name":"validLengths","type":"uint8[3]","internalType":"uint8[3]"},{"name":"rulerSalt","type":"bytes32","internalType":"bytes32"}],"outputs":[],"stateMutability":"nonpayable"},{"type":"function","name":"rolloverAmount","inputs":[],"outputs":[{"name":"","type":"uint256","internalType":"uint256"}],"stateMutability":"view"},{"type":"function","name":"rounds","inputs":[{"name":"","type":"uint256","internalType":"uint256"}],"outputs":[{"name":"roundId","type":"uint256","internalType":"uint256"},{"name":"startTime","type":"uint256","internalType":"uint256"},{"name":"commitDeadline","type":"uint256","internalType":"uint256"},{"name":"revealDeadline","type":"uint256","internalType":"uint256"},{"name":"letterPool","type":"bytes8","internalType":"bytes8"},{"name":"spellId","type":"uint8","internalType":"uint8"},{"name":"spellParam","type":"bytes32","internalType":"bytes32"},{"name":"seedHash","type":"bytes32","internalType":"bytes32"},{"name":"seed","type":"bytes32","internalType":"bytes32"},{"name":"rulerCommitHash","type":"bytes32","internalType":"bytes32"},{"name":"totalStaked","type":"uint256","internalType":"uint256"},{"name":"jackpotBonus","type":"uint256","internalType":"uint256"},{"name":"numCommits","type":"uint32","internalType":"uint32"},{"name":"numReveals","type":"uint32","internalType":"uint32"},{"name":"validWinners","type":"uint32","internalType":"uint32"},{"name":"consolationWinners","type":"uint32","internalType":"uint32"},{"name":"finalized","type":"bool","internalType":"bool"},{"name":"jackpotTriggered","type":"bool","internalType":"bool"},{"name":"seedRevealed","type":"bool","internalType":"bool"},{"name":"rulerRevealed","type":"bool","internalType":"bool"}],"stateMutability":"view"},{"type":"function","name":"seedJackpotBonus","inputs":[{"name":"roundId","type":"uint256","internalType":"uint256"}],"outputs":[],"stateMutability":"nonpayable"},{"type":"function","name":"setConfig","inputs":[{"name":"_minStake","type":"uint256","internalType":"uint256"},{"name":"_burnBps","type":"uint16","internalType":"uint16"},{"name":"_stakerBps","type":"uint16","internalType":"uint16"},{"name":"_operationsBps","type":"uint16","internalType":"uint16"},{"name":"_jackpotThreshold","type":"uint256","internalType":"uint256"},{"name":"_jackpotBonusBps","type":"uint16","internalType":"uint16"},{"name":"_payoutExpiryDays","type":"uint256","internalType":"uint256"}],"outputs":[],"stateMutability":"nonpayable"},{"type":"function","name":"setDictionaryVerifier","inputs":[{"name":"_verifier","type":"address","internalType":"address"}],"outputs":[],"stateMutability":"nonpayable"},{"type":"function","name":"setOperator","inputs":[{"name":"_operator","type":"address","internalType":"address"}],"outputs":[],"stateMutability":"nonpayable"},{"type":"function","name":"setSpellEngine","inputs":[{"name":"_engine","type":"address","internalType":"address"}],"outputs":[],"stateMutability":"nonpayable"},{"type":"function","name":"setStakerDistributor","inputs":[{"name":"_distributor","type":"address","internalType":"address"}],"outputs":[],"stateMutability":"nonpayable"},{"type":"function","name":"spellEngine","inputs":[],"outputs":[{"name":"","type":"address","internalType":"contract ISpellEngine"}],"stateMutability":"view"},{"type":"function","name":"spellRegistry","inputs":[],"outputs":[{"name":"","type":"address","internalType":"contract SpellRegistry"}],"stateMutability":"view"},{"type":"function","name":"stakerBps","inputs":[],"outputs":[{"name":"","type":"uint16","internalType":"uint16"}],"stateMutability":"view"},{"type":"function","name":"stakerDistributor","inputs":[],"outputs":[{"name":"","type":"address","internalType":"contract IStakerRewardDistributor"}],"stateMutability":"view"},{"type":"function","name":"streakCount","inputs":[{"name":"","type":"address","internalType":"address"}],"outputs":[{"name":"","type":"uint256","internalType":"uint256"}],"stateMutability":"view"},{"type":"function","name":"sweepUnclaimedPayouts","inputs":[{"name":"roundId","type":"uint256","internalType":"uint256"}],"outputs":[{"name":"sweptAmount","type":"uint256","internalType":"uint256"}],"stateMutability":"nonpayable"},{"type":"function","name":"topConsolation","inputs":[{"name":"","type":"uint256","internalType":"uint256"},{"name":"","type":"uint256","internalType":"uint256"}],"outputs":[{"name":"player","type":"address","internalType":"address"},{"name":"effectiveScore","type":"uint16","internalType":"uint16"},{"name":"stake","type":"uint256","internalType":"uint256"},{"name":"commitTime","type":"uint256","internalType":"uint256"}],"stateMutability":"view"},{"type":"function","name":"topValid","inputs":[{"name":"","type":"uint256","internalType":"uint256"},{"name":"","type":"uint256","internalType":"uint256"}],"outputs":[{"name":"player","type":"address","internalType":"address"},{"name":"effectiveScore","type":"uint16","internalType":"uint16"},{"name":"stake","type":"uint256","internalType":"uint256"},{"name":"commitTime","type":"uint256","internalType":"uint256"}],"stateMutability":"view"},{"type":"function","name":"treasuryFeeBps","inputs":[],"outputs":[{"name":"","type":"uint16","internalType":"uint16"}],"stateMutability":"view"},{"type":"function","name":"unpause","inputs":[],"outputs":[],"stateMutability":"nonpayable"},{"type":"event","name":"CommitSubmitted","inputs":[{"name":"roundId","type":"uint256","indexed":true,"internalType":"uint256"},{"name":"player","type":"address","indexed":true,"internalType":"address"},{"name":"stake","type":"uint256","indexed":false,"internalType":"uint256"},{"name":"timestamp","type":"uint256","indexed":false,"internalType":"uint256"},{"name":"streak","type":"uint256","indexed":false,"internalType":"uint256"}],"anonymous":false},{"type":"event","name":"JackpotSeeded","inputs":[{"name":"roundId","type":"uint256","indexed":true,"internalType":"uint256"},{"name":"bonusAmount","type":"uint256","indexed":false,"internalType":"uint256"}],"anonymous":false},{"type":"event","name":"JackpotTriggered","inputs":[{"name":"roundId","type":"uint256","indexed":true,"internalType":"uint256"},{"name":"bonusAmount","type":"uint256","indexed":false,"internalType":"uint256"}],"anonymous":false},{"type":"event","name":"Paused","inputs":[{"name":"account","type":"address","indexed":false,"internalType":"address"}],"anonymous":false},{"type":"event","name":"PayoutClaimed","inputs":[{"name":"roundId","type":"uint256","indexed":true,"internalType":"uint256"},{"name":"player","type":"address","indexed":true,"internalType":"address"},{"name":"amount","type":"uint256","indexed":false,"internalType":"uint256"}],"anonymous":false},{"type":"event","name":"RolloverAdded","inputs":[{"name":"roundId","type":"uint256","indexed":true,"internalType":"uint256"},{"name":"amount","type":"uint256","indexed":false,"internalType":"uint256"},{"name":"totalRollover","type":"uint256","indexed":false,"internalType":"uint256"}],"anonymous":false},{"type":"event","name":"RolloverApplied","inputs":[{"name":"roundId","type":"uint256","indexed":true,"internalType":"uint256"},{"name":"amount","type":"uint256","indexed":false,"internalType":"uint256"}],"anonymous":false},{"type":"event","name":"RoundFinalized","inputs":[{"name":"roundId","type":"uint256","indexed":true,"internalType":"uint256"},{"name":"totalPot","type":"uint256","indexed":false,"internalType":"uint256"},{"name":"burned","type":"uint256","indexed":false,"internalType":"uint256"},{"name":"numWinners","type":"uint32","indexed":false,"internalType":"uint32"}],"anonymous":false},{"type":"event","name":"RoundOpened","inputs":[{"name":"roundId","type":"uint256","indexed":true,"internalType":"uint256"},{"name":"letterPool","type":"bytes8","indexed":false,"internalType":"bytes8"},{"name":"rulerCommitHash","type":"bytes32","indexed":false,"internalType":"bytes32"},{"name":"startTime","type":"uint256","indexed":false,"internalType":"uint256"}],"anonymous":false},{"type":"event","name":"SeedAndRulerRevealed","inputs":[{"name":"roundId","type":"uint256","indexed":true,"internalType":"uint256"},{"name":"spellId","type":"uint8","indexed":false,"internalType":"uint8"},{"name":"spellParam","type":"bytes32","indexed":false,"internalType":"bytes32"},{"name":"validLengths","type":"uint8[3]","indexed":false,"internalType":"uint8[3]"}],"anonymous":false},{"type":"event","name":"StakerRewardDistributed","inputs":[{"name":"roundId","type":"uint256","indexed":true,"internalType":"uint256"},{"name":"amount","type":"uint256","indexed":false,"internalType":"uint256"}],"anonymous":false},{"type":"event","name":"TokensBurned","inputs":[{"name":"roundId","type":"uint256","indexed":true,"internalType":"uint256"},{"name":"amount","type":"uint256","indexed":false,"internalType":"uint256"},{"name":"newGlobalTotal","type":"uint256","indexed":false,"internalType":"uint256"}],"anonymous":false},{"type":"event","name":"UnclaimedPayoutsSwept","inputs":[{"name":"roundId","type":"uint256","indexed":true,"internalType":"uint256"},{"name":"amount","type":"uint256","indexed":false,"internalType":"uint256"},{"name":"operator","type":"address","indexed":false,"internalType":"address"}],"anonymous":false},{"type":"event","name":"Unpaused","inputs":[{"name":"account","type":"address","indexed":false,"internalType":"address"}],"anonymous":false},{"type":"event","name":"WordRevealed","inputs":[{"name":"roundId","type":"uint256","indexed":true,"internalType":"uint256"},{"name":"player","type":"address","indexed":true,"internalType":"address"},{"name":"effectiveScore","type":"uint16","indexed":false,"internalType":"uint16"},{"name":"spellPass","type":"bool","indexed":false,"internalType":"bool"},{"name":"lengthValid","type":"bool","indexed":false,"internalType":"bool"},{"name":"fullyValid","type":"bool","indexed":false,"internalType":"bool"}],"anonymous":false},{"type":"error","name":"EnforcedPause","inputs":[]},{"type":"error","name":"ExpectedPause","inputs":[]},{"type":"error","name":"ReentrancyGuardReentrantCall","inputs":[]}],"bytecode":{"object":"0x60a034620001bc57601f620040cb38819003918201601f19168301916001600160401b03831184841017620001c05780849260e094604052833981010312620001bc576200004d81620001d4565b906200005c60208201620001d4565b916200006b60408301620001d4565b6200007960608401620001d4565b926200008860808201620001d4565b92620000a560c06200009d60a08501620001d4565b9301620001d4565b9360017f9b779b17422d0df92223018b32b4d1fa46e071723d6817e2486d003becc55f005560018060a01b0395868095818095166080528160018060a01b03199a168a6004541617600455168860055416176005555f5490610100600160a81b039060081b1690610100600160a81b031916175f5516856001541617600155168360025416176002551690600354161760035569d3c21bcecceda1000000600955666400640064012c60018060401b0319600a541617600a556969e10de76676d0800000600b556103e861ffff19600c541617600c55601e600d55604051613ee19081620001ea82396080518181816103e50152818161081601528181610eb70152818161171401528181612c350152612fef0152f35b5f80fd5b634e487b7160e01b5f52604160045260245ffd5b51906001600160a01b0382168203620001bc5756fe60806040526004361015610011575f80fd5b5f803560e01c806306d46b6f1461342b57806319f6a08a146133f35780631e82032514612efb5780631f0e8e4814612ea9578063304576b814612e3b578063375b3c0a14612e1d5780633ad202b514612dff5780633f4ba83a14612d89578063448013a914612d605780634aa8589014612a475780634b6276aa14612a2957806352826c8d1461214257806353deb3d61461211d578063570ca735146120f457806357b1f48e146120a35780635c975abb146120815780636a67e542146120585780636d99445f14611fd15780636f551bc614611f325780637b43875b14611b0b5780637bf5845114611ac05780638208cdb014611a755780638456cb5914611a0f57806389fb2682146118555780638a69614e146116805780638a961598146115225780638c65c81f146113f15780638da5cb5b146113c85780638f1327c01461107e57806392f992c114610ff75780639a15705f14610fce5780639cbe5efd14610fb05780639d03447f14610e01578063a42f45e714610de3578063b03381bc14610daa578063b3ab15fb14610d5f578063b53b270714610d3b578063c1ae963114610888578063c86c8bb214610863578063d377156814610845578063dec8555a14610845578063e49d93fb14610800578063e80cfa5e146107de578063e900ead814610344578063e90d4c061461026e578063ed0ae4f0146102435763f54131a61461021f575f80fd5b34610240578060031936011261024057602061ffff600c5416604051908152f35b80fd5b50346102405780600319360112610240575460405160089190911c6001600160a01b03168152602090f35b503461024057604036600319011261024057604061028a6134b1565b916004358152600f602052209060018060a01b03165f5260205261018060405f208054906001810154906002810154600382015460ff61ffff92816005600487015496015416956040519788526020880152604087015280821615156060870152808260081c1615156080870152808260101c16151560a0870152808260181c16151560c08701528160201c16151560e0860152818160281c1661010086015260381c166101208401526101408301521515610160820152f35b50346102405760403660031901126102405760243561036161380d565b610369613e2b565b600654808352600e6020526040832090600182015442106107a857600282015442101561076d576009548310610732578352600f60205260408320335f5260205260405f20546106f9576040516323b872dd60e01b81523360048201523060248201526044810183905290602082606481876001600160a01b037f0000000000000000000000000000000000000000000000000000000000000000165af19182156106ee57610120926106bf575b5061059d604051610427816135dc565b60043581528460208201524260408201528560608201528560808201528560a08201528560c08201528560e0820152856101008201528584820152600561014082018781526101608301908882526006548952600f60205260408920335f5260205261058160405f209480518655602081015160018701556040810151600287015560038601906104ca60608201511515839060ff801983541691151516179055565b6080810151825461ff00191690151560081b61ff001617825560a0810151825462ff0000191690151560101b62ff00001617825560c0810151825463ff000000191690151560181b63ff0000001617825560e0810151825464ff00000000191690151560201b64ff0000000016178255610100810151825466ffff0000000000191660289190911b66ffff00000000001617825561ffff998a910151825461ffff60381b1916911660381b61ffff60381b16179055565b51600484015551151591019060ff801983541691151516179055565b600c600a8201916105af858454613562565b809355019081549063ffffffff6105c7818416613760565b169060ff8263ffffffff1985161780865560881c161590816106b2575b50610647575b85856006543383526012602052604083205460405192835242602084015260408301527fbd7f3fc45eeb2a58393b5f86d94f5851102deede92a350c3cf009117f994040c60603393a360015f80516020613e8c8339815191525580f35b600160881b9171ff00000000000000000000000000ffffffff1916171790557ffa6bbca0a029728c0ddcda011a7934da4574ceb78e1873b5c7d1d28e4e9c3fb560206127106106a160065494600b5490600c541690613583565b04604051908152a25f8080806105ea565b9050600b5411155f6105e4565b6106e09060203d6020116106e7575b6106d8818361362f565b810190613650565b505f610417565b503d6106ce565b6040513d86823e3d90fd5b60405162461bcd60e51b8152602060048201526011602482015270105b1c9958591e4818dbdb5b5a5d1d1959607a1b6044820152606490fd5b60405162461bcd60e51b815260206004820152601360248201527242656c6f77206d696e696d756d207374616b6560681b6044820152606490fd5b60405162461bcd60e51b815260206004820152601360248201527210dbdb5b5a5d081c1a185cd94818db1bdcd959606a1b6044820152606490fd5b60405162461bcd60e51b815260206004820152600e60248201526d2937bab732103737ba1037b832b760911b6044820152606490fd5b5034610240578060031936011261024057602061ffff600a5416604051908152f35b50346102405780600319360112610240576040517f00000000000000000000000000000000000000000000000000000000000000006001600160a01b03168152602090f35b50346102405780600319360112610240576020600854604051908152f35b5034610240578060031936011261024057602061ffff600a5460301c16604051908152f35b503461024057606036600319011261024057602460448035906001600160c01b031982168203610d37576108c760018060a01b036004541633146136a1565b6108cf613e2b565b6001600160c01b0319821615610cf357835b60088110610c735750506108f66006546137ff565b918260065561e10042014211610c4e576201437042018061e100420111610c605762014dfc420110610c4e57604051606081018181106001600160401b03821117610c3b576040528481528460208201528460408201526040519061095a826135f8565b84825242602083015261e1004201604083015262014dfc420160608301526001600160401b0360c01b841660808301528560a08301528560c083015260043560e08301528561010083015282356101208301526101408201528461016082015284610180820152846101a0820152846101c0820152846101e08201528461020082015284610220820152846102408201528461026082015284610280820152838552600e6020526040852081518155600160208301516001830155604083015160028301556003606084015160038401556004830191608085015160c01c6001600160401b0319845416178355610a6e60ff9360ff60a08801511660ff60401b82549160401b169060ff60401b1916179055565b60c0850151600585015560e08501516006850155610100850151600785015561012085015160088501556101408501519189938a905b828210610c0a578b8b7f2dbd4a312a6f6cb03179309cc577208f3df96b559edf9faff48bd6bef030275d60608d8d8d600c8e8e6009820155610160830151600a820155610180830151600b8201550190610b8c63ffffffff806101a08401511663ffffffff19855416178455610b3e816101c085015116859067ffffffff0000000082549160201b169067ffffffff000000001916179055565b6101e083015184546bffffffff0000000000000000191690821660401b63ffffffff60401b16178455610200830151845463ffffffff60601b1916911660601b63ffffffff60601b16178355565b610220810151151590825460ff60881b610240830151151560881b169060ff60901b610260840151151560901b169261028060ff60981b910151151560981b169360ff60801b9060801b169063ffffffff60801b1916171717179055604051916001600160401b0360c01b168252356020820152426040820152a280f35b9091926020610c2f8697858585995116919060ff809160031b9316831b921b19161790565b96019493920190610aa4565b82634e487b7160e01b5f5260416004525ffd5b634e487b7160e01b8452601160045283fd5b50634e487b7160e01b8452601160045283fd5b82811a60418110159081610ce7575b5015610c90576001016108e1565b60405162461bcd60e51b815260206004820152602b818601527f4c657474657220706f6f6c206d75737420636f6e7461696e206f6e6c79207570818401526a3832b931b0b9b2902096ad60a91b6064820152608490fd5b605a915011155f610c82565b60405162461bcd60e51b815260206004820152601b818501527f4c657474657220706f6f6c2063616e6e6f7420626520656d70747900000000006044820152606490fd5b8380fd5b50346102405780600319360112610240576020600a5461ffff60405191831c168152f35b503461024057602036600319011261024057610d7961349b565b6005546001600160a01b039190610d939083163314613668565b166001600160601b0360a01b600454161760045580f35b5034610240576020366003190112610240576020906040906001600160a01b03610dd261349b565b168152601283522054604051908152f35b50346102405780600319360112610240576020600754604051908152f35b5034610240576020908160031936011261024057600480546001600160a01b039081169391359190610e343386146136a1565b828452600e82526040842060ff600c82015460881c1615610f7357600b018054610f3d5782610eb3949596612710610e75600b5461ffff600c541690613583565b6040516323b872dd60e01b81526001600160a01b039093166004840152306024840152046044820181905290959093869182908a9082906064820190565b03927f0000000000000000000000000000000000000000000000000000000000000000165af1908115610f32577f659ce6ecd75f2a83a3d7d54d6455d7a58d73db5e7dd683a208017e93312ed487948392610f15575b5055604051908152a280f35b610f2b90853d87116106e7576106d8818361362f565b505f610f09565b6040513d88823e3d90fd5b60405162461bcd60e51b815260048101849052600e60248201526d105b1c9958591e481cd95959195960921b6044820152606490fd5b60405162461bcd60e51b8152600481018490526015602482015274129858dadc1bdd081b9bdd081d1c9a59d9d95c9959605a1b6044820152606490fd5b50346102405780600319360112610240576020600654604051908152f35b50346102405780600319360112610240576002546040516001600160a01b039091168152602090f35b5034610240576020366003190112610240576004358152600e6020526040812060ff600c82015460801c169081611036575b6020826040519015158152f35b60030154600d546201518080820294929350811591850414171561106a575060209161106191613562565b4210155f611029565b634e487b7160e01b81526011600452602490fd5b503461024057602036600319011261024057806102806040516110a0816135f8565b8281528260208201528260408201528260608201528260808201528260a08201528260c08201528260e082015282610100820152826101208201526040516110e781613614565b60603682376101408201528261016082015282610180820152826101a0820152826101c0820152826101e08201528261020082015282610220820152826102408201528261026082015201526004358152600e602052604081209060ff600c60405193611153856135f8565b805485526001810154602086015260028101546040860152600381015460608601528260048201546001600160401b0360c01b8160c01b16608088015260401c1660a0860152600581015460c0860152600681015460e0860152600781015461010086015260088101546101208601526040516111ed816009840160ff604091548181168452818160081c16602085015260101c16910152565b6111f681613614565b610140860152600a810154610160860152600b810154610180860152015463ffffffff81166101a085015263ffffffff8160201c166101c085015263ffffffff8160401c166101e085015263ffffffff8160601c16610200850152818160801c161515610220850152818160881c161515610240850152818160901c16151561026085015260981c16151561028083015260405190825182526020830151602083015260408301516040830152606083015160608301526001600160401b0360c01b608084015116608083015260ff60a08401511660a083015260c083015160c083015260e083015160e083015261010083015161010083015261012083015161012083015261014083015161014083019091905b600382106113af576102e084610280876101608101516101a08401526101808101516101c084015263ffffffff6101a0820151166101e084015263ffffffff6101c08201511661020084015263ffffffff6101e08201511661022084015263ffffffff61020082015116610240840152610220810151151561026084015261024081015115158284015261026081015115156102a0840152015115156102c0820152f35b60208060019260ff86511681520193019101909161130b565b50346102405780600319360112610240576005546040516001600160a01b039091168152602090f35b5034610240576020366003190112610240576040610280916004358152600e6020522060ff815491600181015490600281015460038201546004830154600584015460068501549087600787015493600888015495600a89015497600c600b8b01549a01549a60206040519e8f908152015260408d015260608c01526001600160401b0360c01b8160c01b1660808c015260401c1660a08a015260c089015260e088015261010087015261012086015261014085015261016084015263ffffffff811661018084015263ffffffff8160201c166101a084015263ffffffff8160401c166101c084015263ffffffff8160601c166101e0840152818160801c161515610200840152818160881c161515610220840152818160901c16151561024084015260981c161515610260820152f35b50346102405760e03660031901126102405760243561ffff808216820361167c5760443591818316830361167c57606435828116810361167c5760a4359280841680940361167c5760c4359461158360018060a01b03600554163314613668565b6103e88261159a8561159585896137e9565b6137e9565b161161164857600786106116105765ffff0000000067ffff0000000000009260043560095563ffff0000600a54916115d687611595878b6137e9565b169660101b16906001600160401b031916179160201b16179160301b161717600a55608435600b5561ffff19600c541617600c55600d5580f35b60405162461bcd60e51b815260206004820152601060248201526f115e1c1a5c9e481d1bdbc81cda1bdc9d60821b6044820152606490fd5b60405162461bcd60e51b815260206004820152600c60248201526b08ccaca40e8dede40d0d2ced60a31b6044820152606490fd5b5f80fd5b5034610240576020806003193601126118515760043561169e61380d565b808352600f825260408320335f52825260405f20818452600e835260ff600c60408620015460801c161561181c57600481019081549081156117eb57600501805460ff81166117b45760ff1916600117905560405163a9059cbb60e01b81523360048201526024810191909152908382604481887f00000000000000000000000000000000000000000000000000000000000000006001600160a01b03165af19182156117a9577fe97cee5a4c0549d3fdc81e322b718ddf0aeb3418ec87dce4f9a7fb28d117c3129261178c575b5054926040519384523393a360015f80516020613e8c8339815191525580f35b6117a290853d87116106e7576106d8818361362f565b505f61176c565b6040513d87823e3d90fd5b60405162461bcd60e51b815260048101879052600f60248201526e105b1c9958591e4818db185a5b5959608a1b6044820152606490fd5b60405162461bcd60e51b8152600481018690526009602482015268139bc81c185e5bdd5d60ba1b6044820152606490fd5b60405162461bcd60e51b815260048101849052600d60248201526c139bdd08199a5b985b1a5e9959609a1b6044820152606490fd5b5080fd5b50346102405760403660031901126102405760406118716134b1565b91806101608351611881816135dc565b82815282602082015282858201528260608201528260808201528260a08201528260c08201528260e082015282610100820152826101208201528261014082015201526004358152600f602052209060018060a01b03165f5260205261018060405f206101606040516118f3816135dc565b60ff6005845494858452600181015460208501526002810154604085015261ffff600382015484811615156060870152848160081c1615156080870152848160101c16151560a0870152848160181c16151560c0870152848160201c16151560e0870152818160281c1661010087015260381c166101208501526004810154610140850152015416151582820152604051928352602081015160208401526040810151604084015260608101511515606084015260808101511515608084015260a0810151151560a084015260c0810151151560c084015260e0810151151560e084015261ffff6101008201511661010084015261ffff6101208201511661012084015261014081015161014084015201511515610160820152f35b5034610240578060031936011261024057611a3560018060a01b03600554163314613668565b611a3d613e2b565b600160ff198254161781557f62e78cea01bee320cd4e420270b5ea74000d11b0c9f74754ebdbfc544b05a2586020604051338152a180f35b503461024057602036600319011261024057611a8f61349b565b6005546001600160a01b039190611aa99083163314613668565b166001600160601b0360a01b600254161760025580f35b503461024057602036600319011261024057611ada61349b565b6005546001600160a01b039190611af49083163314613668565b166001600160601b0360a01b600154161760015580f35b50346102405760a03660031901126102405760043536608411611851576004546001600160a01b039190611b4290831633146136a1565b60065483526020600e8152604084209160028301544210611ef557600c830180549060ff91611b7760ff8260901c16156136dd565b6040518581019085825286815260408101918183106001600160401b03841117611ee1578260405281519020600689015403611eb1575050600396600354169686549360088801549860405163d58133ed60e01b815286600482015260249a611be18c83016137b4565b608435608483015260a4820152888160c481855afa908115611ea6578c91611e89575b5015611e45578760649160405192838092631ffc3b5160e31b8252611c2b600483016137b4565b5afa908115611e3a578b91611e1d575b5015611de15785600789015588908a928b5b818110611daa5750505050600987015561ffff60901b191661010160901b179055435f19810191908211611d975760405191848301938452406040830152606082015260608152611c9d816135c1565b51902060048301805468ff0000000000000000191668030000000000000000604084901b161781559390600360ff865460401c16105f14611d655760079060081c1690845460c01b906008831015611d535750901a60f81b6001600160f81b03191660058301557fd8c6e0639eac1b4c12246f9855a9ed82d897723e4ef3890e16a2035bde345e0f9160a0915b600560ff8354965460401c1692015490604051928352820152611d4f604082016137b4565ba280f35b634e487b7160e01b8752603260045286fd5b50508160a0918560057fd8c6e0639eac1b4c12246f9855a9ed82d897723e4ef3890e16a2035bde345e0f950155611d2a565b634e487b7160e01b875260116004528587fd5b909192938435848116810361167c57611dd68b91846001949060ff809160031b9316831b921b19161790565b950193929101611c4d565b60405162461bcd60e51b8152600481018890526015818b015274496e76616c69642072756c6572206c656e6774687360581b6044820152606490fd5b611e349150883d8a116106e7576106d8818361362f565b5f611c3b565b6040513d8d823e3d90fd5b60405162461bcd60e51b8152600481018990526019818c01527f52756c657220636f6d6d69746d656e74206d69736d61746368000000000000006044820152606490fd5b611ea09150893d8b116106e7576106d8818361362f565b5f611c04565b6040513d8e823e3d90fd5b906c0a6cacac840dad2e6dac2e8c6d609b1b60846064938962461bcd60e51b85526044820152600d858201520152fd5b634e487b7160e01b5f52604160045260245ffd5b60405162461bcd60e51b815260048101839052601560248201527421b7b6b6b4ba10383430b9b2903737ba1037bb32b960591b6044820152606490fd5b5034610240576020806003193601126118515760043582526010815260408220918254906001600160401b038211611fbd579260405192611f78818460051b018561362f565b82845280840191855280852094915b838310611fa05760405180611f9c87826134f7565b0390f35b600382600192611faf89613775565b815201960192019194611f87565b634e487b7160e01b81526041600452602490fd5b5034610240576020806003193601126118515760043582526011815260408220918254906001600160401b038211611fbd579260405192612017818460051b018561362f565b82845280840191855280852094915b83831061203b5760405180611f9c87826134f7565b60038260019261204a89613775565b815201960192019194612026565b50346102405780600319360112610240576001546040516001600160a01b039091168152602090f35b503461024057806003193601126102405760ff60209154166040519015158152f35b5034610240576020366003190112610240576004358152600e6020526003604082200154600d5491620151809283810293818504149015171561106a5760206120ec8484613562565b604051908152f35b50346102405780600319360112610240576004546040516001600160a01b039091168152602090f35b5034610240578060031936011261024057602061ffff600a5460101c16604051908152f35b5034610240576080366003190112610240576001600160401b03600435818111612a255736602382011215612a255781816004013511612a2557366024826004013583010111612a2557604435828111610d37576121a49036906004016134c7565b9092606435908111612a21576121be9036906004016134c7565b90926121c861380d565b60065494858752600e6020526040872091600f60205260408820335f5260205260405f2092600281015442106129ea5760038101544210156129af57835496871561297a5760038501549361222060ff8616156136dd565b612232368560040135602487016139bf565b9788519961223f8b6139a4565b9a61224d6040519c8d61362f565b808c5261225c601f19916139a4565b013660208d01378c5b8d8b5182101561230657600191908d908d9083906001600160f81b0319604160f81b8161229285876139f5565b51161015806122ec575b156122cf576122ae836122c7956139f5565b516122bc60f891821c613a06565b901b16901a926139f5565b535b01612265565b6122dc836122e6956139f5565b5116901a926139f5565b536122c9565b50602d60f91b816122fd85876139f5565b5116111561229c565b9a50508b8b6040519160208301523360601b6040830152818151918d5b8381106129625750508061234b9260749201602435605482015203605481018452018261362f565b602081519101200361292757600154604080516314b8974960e31b815260048101919091529260209284926001600160a01b031691839182916123b1916123979160448501919061371c565b6003198382030160248401528a6004013560248c01613740565b03915afa90811561291c5788916128fd575b50156128c4576004820154906123e48260c01b856004013560248701613a3c565b1561288d5760209160ff60018060a01b038a5460081c16916124556005870154946040519b8c968795869563022b5b7560e41b875260401c166004860152602485015260806044850152612443608485018b6004013560248d01613740565b8481036003190160648601529161371c565b03915afa948515610f32578695612869575b50608490602060018060a01b036003541660405193848092632a62217360e11b8252876004013560048301526124bd602483016009880160ff604091548181168452818160081c16602085015260101c16910152565b5afa92831561285e5786948593899561283d575b508395612834575b8361282b575b66ffffffffff000019600161ff008a151560081b1661ffff199390931692909217919091171662ff000085151560101b161763ff00000086151560181b161764ff0000000084151560201b161760049091013560281b66ffff00000000001617600386015585156128165761258f61ffff606461256d61255e33613bac565b8360038b015460281c16613583565b0416600387019061ffff60381b82549160381b169061ffff60381b1916179055565b3387526013602052604087205460065490815f1981011161280257600c9291905f198201036127df57503388526012602052604088206125cf81546137ff565b90555b60065433895260136020526040892055019063ffffffff9061261e6125fc83855460201c16613760565b845467ffffffff00000000191660209190911b67ffffffff0000000016178455565b600386015490600187015460028801549061ffff6040519461263f866135c1565b33865260381c166020850152604084015260608301528515612752575060065488526010602052604088209082845460201c16600a810290808204600a149015171561273e576126b4926126d395949260646126a99304600381105f146127385750600391613c98565b825460401c16613760565b63ffffffff60401b82549160401b169063ffffffff60401b1916179055565b61ffff600360065494015460381c16936040519485521515602085015215156040840152151560608301527fbafcbe0bcb12be1bcba8e93d2c2a1f5a5354246da0cfbd409cbe845c1558ed1060803393a360015f80516020613e8c8339815191525580f35b91613c98565b634e487b7160e01b8a52601160045260248afd5b61275f575b5050506126d3565b60065488526011602052604088209082845460201c1660058102908082046005149015171561273e576127b7926127d795949260646127ac9304600181105f146127385750600191613c98565b825460601c16613760565b815463ffffffff60601b191660609190911b63ffffffff60601b16179055565b858080612757565b33895260136020526040892054146125d2576012602052600160408920556125d2565b634e487b7160e01b89526011600452602489fd5b60038501805461ffff60381b1916905561258f565b841593506124df565b945083946124d9565b61285791955060203d6020116106e7576106d8818361362f565b93896124d1565b6040513d89823e3d90fd5b60849195506128869060203d6020116106e7576106d8818361362f565b9490612467565b60405162461bcd60e51b815260206004820152600f60248201526e496e76616c6964206c65747465727360881b6044820152606490fd5b60405162461bcd60e51b81526020600482015260116024820152704e6f7420696e2064696374696f6e61727960781b6044820152606490fd5b612916915060203d6020116106e7576106d8818361362f565b886123c3565b6040513d8a823e3d90fd5b60405162461bcd60e51b8152602060048201526013602482015272086dedadad2e8dacadce840dad2e6dac2e8c6d606b1b6044820152606490fd5b60208282018101516054878401015285935001612323565b60405162461bcd60e51b815260206004820152600d60248201526c139bc818dbdb5b5a5d1b595b9d609a1b6044820152606490fd5b60405162461bcd60e51b815260206004820152601360248201527214995d99585b081c1a185cd94818db1bdcd959606a1b6044820152606490fd5b60405162461bcd60e51b815260206004820152600f60248201526e2932bb32b0b6103737ba1037b832b760891b6044820152606490fd5b8480fd5b8280fd5b50346102405780600319360112610240576020600d54604051908152f35b503461024057602090816003193601126102405760043560018060a01b0391612a75836004541633146136a1565b612a7d61380d565b818152600e8452604081209160ff9260ff600c82015460801c1615612d255760030154600d54906201518091828102928184041490151715612d115790612ac391613562565b4210612ccc5781818152601086526040812094815b8654811015612b515781612aec828961346e565b505416848452600f895260408420905f52885260405f20600481015480151580612b43575b612b20575b5050600101612ad8565b612b306005916001949398613562565b9601805460ff191683179055905f612b16565b508760058301541615612b11565b5082825260118752604082209550815b8654811015612bda5781612b75828961346e565b505416848452600f895260408420905f52885260405f20600481015480151580612bcc575b612ba9575b5050600101612b61565b612bb96005916001949398613562565b9601805460ff191683179055905f612b9f565b508760058301541615612b9a565b509086945083612c01575b50505060015f80516020613e8c83398151915255604051908152f35b6004805460405163a9059cbb60e01b81529084166001600160a01b03169181019190915260248101859052908582604481847f000000000000000000000000000000000000000000000000000000000000000088165af1908115612cc05750916040917f9950c16c540087f1266b27638b9791d7c974dd39551c41a1325e177beaac5fbc93612ca3575b506004541681519085825286820152a2828080612be5565b612cb990873d89116106e7576106d8818361362f565b5086612c8b565b604051903d90823e3d90fd5b60405162461bcd60e51b815260048101869052601960248201527f5061796f757420657870697279206e6f742072656163686564000000000000006044820152606490fd5b634e487b7160e01b84526011600452602484fd5b60405162461bcd60e51b8152600481018790526013602482015272149bdd5b99081b9bdd08199a5b985b1a5e9959606a1b6044820152606490fd5b50346102405780600319360112610240576003546040516001600160a01b039091168152602090f35b5034610240578060031936011261024057612daf60018060a01b03600554163314613668565b805460ff811615612ded5760ff191681557f5db9ee0a495bf2e6ff9c91a7834c1ba4fdd244a5e8aa4e537bd38aeae4b073aa6020604051338152a180f35b604051638dfc202b60e01b8152600490fd5b50346102405780600319360112610240576020600b54604051908152f35b50346102405780600319360112610240576020600954604051908152f35b503461024057612e4a36613458565b9082526011602052604082208054821015612a2557612e69925061346e565b5080546001820154600290920154604080516001600160a01b038416815260a09390931c61ffff1660208401528201929092526060810191909152608090f35b503461024057602036600319011261024057612ec361349b565b612ed860018060a01b03600554163314613668565b8154610100600160a81b03191660089190911b610100600160a81b031617815580f35b503461167c575f36600319011261167c57612f1461380d565b60068054805f526020600e815260405f2092600384015442106133bc57600c84019360ff855460801c166133835780600b600a612f5693015491015490613562565b92612f646008548095613562565b93838161334e575b505050600a54936127109461ffff95612fab81612f8e898560101c1689613583565b049782612f9f82868a1c168a613583565b049360301c1687613583565b04612fc381612fbe84612fbe8b8b6135b4565b6135b4565b60405163a9059cbb60e01b80825261dead6004830152602482018a905291936001600160a01b039391927f000000000000000000000000000000000000000000000000000000000000000085169189856044815f875af1948515613300578a95613331575b508b7fe25c13ab9b2aded7bb7d39d4829c2efb98edd820bd84d49234678cedc8b8fd56604061305983600754613562565b92836007558c5493825191825289820152a2856002541680151580613328575b61322a575b50508b836131c1575b505050505050605a8102818104605a14821517156131ad579161314d7fa623e393dac7626c7c243fb732de9a6633ec0ac9a11fd90ba382b6d2ae0666de9694926130d86064606098960480926135b4565b90845490818c526010875260408c20805415806131a4575b15613196575090507f53255d87c2093234b4861ba8a8c0cb27d23b8b56e2bd9fd1aa2f66e401af9e61604061312783600854613562565b9283600855875493825191825289820152a25b8354808b526011865260408b20906138e4565b600160801b60ff60801b1982541617905554948587526010825263ffffffff604088205416916040519384528301526040820152a260015f80516020613e8c8339815191525580f35b61319f9261383c565b61313a565b508115156130f0565b634e487b7160e01b88526011600452602488fd5b6131f49560045416916040519687958694859384526004840160209093929193604081019460018060a01b031681520152565b03925af1801561291c5761320d575b848180808b613087565b61322390853d87116106e7576106d8818361362f565b505f613203565b6040518381526001600160a01b0391909116600482015260248101829052939492939192909190816044815f885af180156133005761330b575b5084600254168854813b1561167c575f91604483926040519485938492633a06962160e21b845260048401528760248401525af18015613300576132dc575b5090889392917f5b98f297c65d4dde52e0e7c1f8de705c39cb278e8ed11c2b95de9663e1a46352858a5492604051908152a25f8061307e565b939291909b506001600160401b038411611ee15788936040525f9b909192936132a3565b6040513d5f823e3d90fd5b613321908a3d8c116106e7576106d8818361362f565b505f613264565b50811515613079565b61334790863d88116106e7576106d8818361362f565b505f613028565b7f9df2388d2f254b6e9d2bb1a0cf485e76512b5753c746d6927832af91bbf7f3b191604051908152a25f6008555f8083612f6c565b60405162461bcd60e51b8152600481018490526011602482015270105b1c9958591e48199a5b985b1a5e9959607a1b6044820152606490fd5b60405162461bcd60e51b815260048101839052600f60248201526e2932bb32b0b6103737ba1037bb32b960891b6044820152606490fd5b3461167c57602036600319011261167c576001600160a01b0361341461349b565b165f526013602052602060405f2054604051908152f35b3461167c5761343936613458565b905f52601060205260405f2090815481101561167c57612e699161346e565b604090600319011261167c576004359060243590565b8054821015613487575f52600360205f20910201905f90565b634e487b7160e01b5f52603260045260245ffd5b600435906001600160a01b038216820361167c57565b602435906001600160a01b038216820361167c57565b9181601f8401121561167c578235916001600160401b03831161167c576020808501948460051b01011161167c57565b60208082019080835283518092528060408094019401925f905b83821061352057505050505090565b845180516001600160a01b031687528084015161ffff168785015280820151878301526060908101519087015260809095019493820193600190910190613511565b9190820180921161356f57565b634e487b7160e01b5f52601160045260245ffd5b8181029291811591840414171561356f57565b81156135a0570490565b634e487b7160e01b5f52601260045260245ffd5b9190820391821161356f57565b608081019081106001600160401b03821117611ee157604052565b61018081019081106001600160401b03821117611ee157604052565b6102a081019081106001600160401b03821117611ee157604052565b606081019081106001600160401b03821117611ee157604052565b90601f801991011681019081106001600160401b03821117611ee157604052565b9081602091031261167c5751801515810361167c5790565b1561366f57565b60405162461bcd60e51b815260206004820152600a60248201526927b7363c9037bbb732b960b11b6044820152606490fd5b156136a857565b60405162461bcd60e51b815260206004820152600d60248201526c27b7363c9037b832b930ba37b960991b6044820152606490fd5b156136e457565b60405162461bcd60e51b815260206004820152601060248201526f105b1c9958591e481c995d99585b195960821b6044820152606490fd5b81835290916001600160fb1b03831161167c5760209260051b809284830137010190565b908060209392818452848401375f828201840152601f01601f1916010190565b63ffffffff80911690811461356f5760010190565b90604051613782816135c1565b82546001600160a01b038116825260a01c61ffff16602082015260018301546040820152600292909201546060830152565b60245f915b600383106137c657505050565b81359060ff821680920361167c57600191815260208091019201920191906137b9565b91909161ffff8080941691160191821161356f57565b5f19811461356f5760010190565b5f80516020613e8c833981519152600281541461382a5760029055565b604051633ee5aeb560e01b8152600490fd5b90929183549081156138dd575f915f905b8082106138bd5750505f5b8554808210156138b457906138818461387c613876846001966135b4565b86613583565b613596565b855f5260046020600f8152604090815f209061389d868d61346e565b50878060a01b039054165f52525f20015501613858565b50505050509050565b90926138d56001916138cf86856135b4565b90613562565b93019061384d565b5050509050565b9092919280549384156138dd575f945f905b80821061398a5750505f5b8254808210156138b4579061391f8761387c613876846001966135b4565b855f52600f906020828152604090815f209061393b868a61346e565b5091878060a01b03809354165f52815286835f200154808511613981575b50600493948a5f528152825f2091613971878b61346e565b5054165f52525f20015501613901565b93506004613959565b909561399c6001916138cf89856135b4565b9601906138f6565b6001600160401b038111611ee157601f01601f191660200190565b9291926139cb826139a4565b916139d9604051938461362f565b82948184528183011161167c578281602093845f960137010152565b908151811015613487570160200190565b60ff60209116019060ff821161356f57565b60ff6060199116019060ff821161356f57565b90601a8110156134875760051b0190565b613a479136916139bf565b90604051906103408083018381106001600160401b03821117611ee1576040523683375f5b60088110613b155750505f5b8251811015613b0d57613a8b81846139f5565b5160f81c604181101580613b02575b613af4575b60ff9081811660618110908115613ae9575b50613ae05781613ac3613aca92613a18565b1684613a2b565b511615613ad957600101613a78565b5050505f90565b50505050505f90565b607a9150115f613ab1565b613afd90613a06565b613a9f565b50605a811115613a9a565b505050600190565b81811a90604182101580613ba1575b613b91575b60ff9182811660618110159081613b85575b50613b4c575b506001915001613a6c565b613b568391613a18565b169180613b638487613a2b565b51169080821461356f576001613b7a819588613a2b565b92011690525f613b41565b607a915011155f613b3b565b90613b9b90613a06565b90613b29565b50605a821115613b24565b60018060a01b0316805f52601260205260405f205490601360205260405f205490600654915f1983019083821161356f5703613c1d575050613bed906137ff565b600e811015613c17576007811015613c115760031115613c0c57606490565b606e90565b50607d90565b50609690565b5f52601360205260405f20540315613bed57506001613bed565b9190613c855780518254602083015161ffff60a01b60a09190911b166001600160a01b039092166001600160b01b031990911617178255600290606090604081015160018501550151910155565b634e487b7160e01b5f525f60045260245ffd5b92919091835492835f5b818110613dfb575b5083851015613df357838110613dc8575b5084545f19949085810190811161356f575b818111613d3a575090613ce3613ce9928761346e565b90613c37565b835482811115613d33578015613d1f578301613d05818661346e565b613c85576002815f80935582600182015501558455613ce9565b634e487b7160e01b5f52603160045260245ffd5b5092505050565b85810181811161356f57613d4e908861346e565b50613d59828961346e565b919091613c8557808203613d77575b5050801561356f578501613ccd565b805482546001600160a01b039091166001600160a01b0319821681178455825461ffff60a01b166001600160b01b031990921617178255600180820154908301556002809101549101555f80613d68565b68010000000000000000811015611ee15781613ce3826001613ded940189558861346e565b5f613cbb565b505092505050565b613e17613e11613e0b838a61346e565b50613775565b84613e48565b613e2357600101613ca2565b94505f613caa565b60ff5f5416613e3657565b60405163d93c066560e01b8152600490fd5b61ffff806020830151169060208401511690818103613e845750506040810151604083015190818103613e845750506060809101519101511190565b119291505056fe9b779b17422d0df92223018b32b4d1fa46e071723d6817e2486d003becc55f00a264697066735822122097bd249755ea21505679aa9dd0964b55a5eb41c5f34eddf60bd771a3ebcd544864736f6c63430008180033","linkReferences":{}},"methodIdentifiers":{"burnBps()":"53deb3d6","canSweepPayouts(uint256)":"92f992c1","claimPayout(uint256)":"8a69614e","clawdiaToken()":"e49d93fb","commit(bytes32,uint256)":"e900ead8","commitments(uint256,address)":"e90d4c06","currentRoundId()":"9cbe5efd","dictionaryVerifier()":"6a67e542","finalizeRound()":"1e820325","getCommitment(uint256,address)":"89fb2682","getPayoutExpiryTimestamp(uint256)":"57b1f48e","getRolloverAmount()":"d3771568","getRound(uint256)":"8f1327c0","getTopConsolation(uint256)":"6d99445f","getTopValid(uint256)":"6f551bc6","globalBurnCounter()":"a42f45e7","jackpotBonusBps()":"f54131a6","jackpotThreshold()":"3ad202b5","lastParticipatedRound(address)":"19f6a08a","minStake()":"375b3c0a","openRound(bytes32,bytes32,bytes8)":"c1ae9631","operationsBps()":"c86c8bb2","operator()":"570ca735","owner()":"8da5cb5b","pause()":"8456cb59","paused()":"5c975abb","payoutExpiryDays()":"4b6276aa","reveal(string,bytes32,bytes32[],bytes32[])":"52826c8d","revealSeedAndRuler(bytes32,uint8[3],bytes32)":"7b43875b","rolloverAmount()":"dec8555a","rounds(uint256)":"8c65c81f","seedJackpotBonus(uint256)":"9d03447f","setConfig(uint256,uint16,uint16,uint16,uint256,uint16,uint256)":"8a961598","setDictionaryVerifier(address)":"7bf58451","setOperator(address)":"b3ab15fb","setSpellEngine(address)":"1f0e8e48","setStakerDistributor(address)":"8208cdb0","spellEngine()":"ed0ae4f0","spellRegistry()":"448013a9","stakerBps()":"b53b2707","stakerDistributor()":"9a15705f","streakCount(address)":"b03381bc","sweepUnclaimedPayouts(uint256)":"4aa85890","topConsolation(uint256,uint256)":"304576b8","topValid(uint256,uint256)":"06d46b6f","treasuryFeeBps()":"e80cfa5e","unpause()":"3f4ba83a"},"id":30}