{"abi":[{"type":"constructor","inputs":[{"name":"_token","type":"address","internalType":"address"},{"name":"_operator","type":"address","internalType":"address"},{"name":"_owner","type":"address","internalType":"address"},{"name":"_spellEngine","type":"address","internalType":"address"},{"name":"_dictionaryVerifier","type":"address","internalType":"address"},{"name":"_stakerDistributor","type":"address","internalType":"address"},{"name":"_spellRegistry","type":"address","internalType":"address"}],"stateMutability":"nonpayable"},{"type":"function","name":"burnBps","inputs":[],"outputs":[{"name":"","type":"uint16","internalType":"uint16"}],"stateMutability":"view"},{"type":"function","name":"canSweepPayouts","inputs":[{"name":"roundId","type":"uint256","internalType":"uint256"}],"outputs":[{"name":"","type":"bool","internalType":"bool"}],"stateMutability":"view"},{"type":"function","name":"claimPayout","inputs":[{"name":"roundId","type":"uint256","internalType":"uint256"}],"outputs":[],"stateMutability":"nonpayable"},{"type":"function","name":"clawdiaToken","inputs":[],"outputs":[{"name":"","type":"address","internalType":"contract IERC20"}],"stateMutability":"view"},{"type":"function","name":"commit","inputs":[{"name":"commitHash","type":"bytes32","internalType":"bytes32"},{"name":"stakeAmount","type":"uint256","internalType":"uint256"}],"outputs":[],"stateMutability":"nonpayable"},{"type":"function","name":"commitments","inputs":[{"name":"","type":"uint256","internalType":"uint256"},{"name":"","type":"address","internalType":"address"}],"outputs":[{"name":"commitHash","type":"bytes32","internalType":"bytes32"},{"name":"stake","type":"uint256","internalType":"uint256"},{"name":"commitTime","type":"uint256","internalType":"uint256"},{"name":"revealed","type":"bool","internalType":"bool"},{"name":"spellPass","type":"bool","internalType":"bool"},{"name":"lengthValid","type":"bool","internalType":"bool"},{"name":"fullyValid","type":"bool","internalType":"bool"},{"name":"consolation","type":"bool","internalType":"bool"},{"name":"wordLength","type":"uint16","internalType":"uint16"},{"name":"effectiveScore","type":"uint16","internalType":"uint16"},{"name":"payout","type":"uint256","internalType":"uint256"},{"name":"claimed","type":"bool","internalType":"bool"}],"stateMutability":"view"},{"type":"function","name":"currentRoundId","inputs":[],"outputs":[{"name":"","type":"uint256","internalType":"uint256"}],"stateMutability":"view"},{"type":"function","name":"dictionaryVerifier","inputs":[],"outputs":[{"name":"","type":"address","internalType":"contract IDictionaryVerifier"}],"stateMutability":"view"},{"type":"function","name":"finalizeRound","inputs":[],"outputs":[],"stateMutability":"nonpayable"},{"type":"function","name":"getCommitment","inputs":[{"name":"roundId","type":"uint256","internalType":"uint256"},{"name":"player","type":"address","internalType":"address"}],"outputs":[{"name":"","type":"tuple","internalType":"struct SpellBlockGame.Commitment","components":[{"name":"commitHash","type":"bytes32","internalType":"bytes32"},{"name":"stake","type":"uint256","internalType":"uint256"},{"name":"commitTime","type":"uint256","internalType":"uint256"},{"name":"revealed","type":"bool","internalType":"bool"},{"name":"spellPass","type":"bool","internalType":"bool"},{"name":"lengthValid","type":"bool","internalType":"bool"},{"name":"fullyValid","type":"bool","internalType":"bool"},{"name":"consolation","type":"bool","internalType":"bool"},{"name":"wordLength","type":"uint16","internalType":"uint16"},{"name":"effectiveScore","type":"uint16","internalType":"uint16"},{"name":"payout","type":"uint256","internalType":"uint256"},{"name":"claimed","type":"bool","internalType":"bool"}]}],"stateMutability":"view"},{"type":"function","name":"getPayoutExpiryTimestamp","inputs":[{"name":"roundId","type":"uint256","internalType":"uint256"}],"outputs":[{"name":"","type":"uint256","internalType":"uint256"}],"stateMutability":"view"},{"type":"function","name":"getRolloverAmount","inputs":[],"outputs":[{"name":"","type":"uint256","internalType":"uint256"}],"stateMutability":"view"},{"type":"function","name":"getRound","inputs":[{"name":"roundId","type":"uint256","internalType":"uint256"}],"outputs":[{"name":"","type":"tuple","internalType":"struct SpellBlockGame.Round","components":[{"name":"roundId","type":"uint256","internalType":"uint256"},{"name":"startTime","type":"uint256","internalType":"uint256"},{"name":"commitDeadline","type":"uint256","internalType":"uint256"},{"name":"revealDeadline","type":"uint256","internalType":"uint256"},{"name":"letterPool","type":"bytes8","internalType":"bytes8"},{"name":"spellId","type":"uint8","internalType":"uint8"},{"name":"spellParam","type":"bytes32","internalType":"bytes32"},{"name":"seedHash","type":"bytes32","internalType":"bytes32"},{"name":"seed","type":"bytes32","internalType":"bytes32"},{"name":"rulerCommitHash","type":"bytes32","internalType":"bytes32"},{"name":"validLengths","type":"uint8[3]","internalType":"uint8[3]"},{"name":"totalStaked","type":"uint256","internalType":"uint256"},{"name":"jackpotBonus","type":"uint256","internalType":"uint256"},{"name":"numCommits","type":"uint32","internalType":"uint32"},{"name":"numReveals","type":"uint32","internalType":"uint32"},{"name":"validWinners","type":"uint32","internalType":"uint32"},{"name":"consolationWinners","type":"uint32","internalType":"uint32"},{"name":"finalized","type":"bool","internalType":"bool"},{"name":"jackpotTriggered","type":"bool","internalType":"bool"},{"name":"seedRevealed","type":"bool","internalType":"bool"},{"name":"rulerRevealed","type":"bool","internalType":"bool"}]}],"stateMutability":"view"},{"type":"function","name":"getTopConsolation","inputs":[{"name":"roundId","type":"uint256","internalType":"uint256"}],"outputs":[{"name":"","type":"tuple[]","internalType":"struct SpellBlockGame.LeaderboardEntry[]","components":[{"name":"player","type":"address","internalType":"address"},{"name":"effectiveScore","type":"uint16","internalType":"uint16"},{"name":"stake","type":"uint256","internalType":"uint256"},{"name":"commitTime","type":"uint256","internalType":"uint256"}]}],"stateMutability":"view"},{"type":"function","name":"getTopValid","inputs":[{"name":"roundId","type":"uint256","internalType":"uint256"}],"outputs":[{"name":"","type":"tuple[]","internalType":"struct SpellBlockGame.LeaderboardEntry[]","components":[{"name":"player","type":"address","internalType":"address"},{"name":"effectiveScore","type":"uint16","internalType":"uint16"},{"name":"stake","type":"uint256","internalType":"uint256"},{"name":"commitTime","type":"uint256","internalType":"uint256"}]}],"stateMutability":"view"},{"type":"function","name":"globalBurnCounter","inputs":[],"outputs":[{"name":"","type":"uint256","internalType":"uint256"}],"stateMutability":"view"},{"type":"function","name":"jackpotBonusBps","inputs":[],"outputs":[{"name":"","type":"uint16","internalType":"uint16"}],"stateMutability":"view"},{"type":"function","name":"jackpotThreshold","inputs":[],"outputs":[{"name":"","type":"uint256","internalType":"uint256"}],"stateMutability":"view"},{"type":"function","name":"lastParticipatedRound","inputs":[{"name":"","type":"address","internalType":"address"}],"outputs":[{"name":"","type":"uint256","internalType":"uint256"}],"stateMutability":"view"},{"type":"function","name":"minStake","inputs":[],"outputs":[{"name":"","type":"uint256","internalType":"uint256"}],"stateMutability":"view"},{"type":"function","name":"openRound","inputs":[{"name":"seedHash","type":"bytes32","internalType":"bytes32"},{"name":"rulerCommitHash","type":"bytes32","internalType":"bytes32"},{"name":"letterPool","type":"bytes8","internalType":"bytes8"}],"outputs":[],"stateMutability":"nonpayable"},{"type":"function","name":"operationsBps","inputs":[],"outputs":[{"name":"","type":"uint16","internalType":"uint16"}],"stateMutability":"view"},{"type":"function","name":"operator","inputs":[],"outputs":[{"name":"","type":"address","internalType":"address"}],"stateMutability":"view"},{"type":"function","name":"owner","inputs":[],"outputs":[{"name":"","type":"address","internalType":"address"}],"stateMutability":"view"},{"type":"function","name":"pause","inputs":[],"outputs":[],"stateMutability":"nonpayable"},{"type":"function","name":"paused","inputs":[],"outputs":[{"name":"","type":"bool","internalType":"bool"}],"stateMutability":"view"},{"type":"function","name":"payoutExpiryDays","inputs":[],"outputs":[{"name":"","type":"uint256","internalType":"uint256"}],"stateMutability":"view"},{"type":"function","name":"reveal","inputs":[{"name":"word","type":"string","internalType":"string"},{"name":"salt","type":"bytes32","internalType":"bytes32"},{"name":"dictProof","type":"bytes32[]","internalType":"bytes32[]"},{"name":"categoryProof","type":"bytes32[]","internalType":"bytes32[]"}],"outputs":[],"stateMutability":"nonpayable"},{"type":"function","name":"revealSeedAndRuler","inputs":[{"name":"seed","type":"bytes32","internalType":"bytes32"},{"name":"validLengths","type":"uint8[3]","internalType":"uint8[3]"},{"name":"rulerSalt","type":"bytes32","internalType":"bytes32"}],"outputs":[],"stateMutability":"nonpayable"},{"type":"function","name":"rolloverAmount","inputs":[],"outputs":[{"name":"","type":"uint256","internalType":"uint256"}],"stateMutability":"view"},{"type":"function","name":"rounds","inputs":[{"name":"","type":"uint256","internalType":"uint256"}],"outputs":[{"name":"roundId","type":"uint256","internalType":"uint256"},{"name":"startTime","type":"uint256","internalType":"uint256"},{"name":"commitDeadline","type":"uint256","internalType":"uint256"},{"name":"revealDeadline","type":"uint256","internalType":"uint256"},{"name":"letterPool","type":"bytes8","internalType":"bytes8"},{"name":"spellId","type":"uint8","internalType":"uint8"},{"name":"spellParam","type":"bytes32","internalType":"bytes32"},{"name":"seedHash","type":"bytes32","internalType":"bytes32"},{"name":"seed","type":"bytes32","internalType":"bytes32"},{"name":"rulerCommitHash","type":"bytes32","internalType":"bytes32"},{"name":"totalStaked","type":"uint256","internalType":"uint256"},{"name":"jackpotBonus","type":"uint256","internalType":"uint256"},{"name":"numCommits","type":"uint32","internalType":"uint32"},{"name":"numReveals","type":"uint32","internalType":"uint32"},{"name":"validWinners","type":"uint32","internalType":"uint32"},{"name":"consolationWinners","type":"uint32","internalType":"uint32"},{"name":"finalized","type":"bool","internalType":"bool"},{"name":"jackpotTriggered","type":"bool","internalType":"bool"},{"name":"seedRevealed","type":"bool","internalType":"bool"},{"name":"rulerRevealed","type":"bool","internalType":"bool"}],"stateMutability":"view"},{"type":"function","name":"seedJackpotBonus","inputs":[{"name":"roundId","type":"uint256","internalType":"uint256"}],"outputs":[],"stateMutability":"nonpayable"},{"type":"function","name":"setConfig","inputs":[{"name":"_minStake","type":"uint256","internalType":"uint256"},{"name":"_burnBps","type":"uint16","internalType":"uint16"},{"name":"_stakerBps","type":"uint16","internalType":"uint16"},{"name":"_operationsBps","type":"uint16","internalType":"uint16"},{"name":"_jackpotThreshold","type":"uint256","internalType":"uint256"},{"name":"_jackpotBonusBps","type":"uint16","internalType":"uint16"},{"name":"_payoutExpiryDays","type":"uint256","internalType":"uint256"}],"outputs":[],"stateMutability":"nonpayable"},{"type":"function","name":"setDictionaryVerifier","inputs":[{"name":"_verifier","type":"address","internalType":"address"}],"outputs":[],"stateMutability":"nonpayable"},{"type":"function","name":"setOperator","inputs":[{"name":"_operator","type":"address","internalType":"address"}],"outputs":[],"stateMutability":"nonpayable"},{"type":"function","name":"setSpellEngine","inputs":[{"name":"_engine","type":"address","internalType":"address"}],"outputs":[],"stateMutability":"nonpayable"},{"type":"function","name":"setStakerDistributor","inputs":[{"name":"_distributor","type":"address","internalType":"address"}],"outputs":[],"stateMutability":"nonpayable"},{"type":"function","name":"spellEngine","inputs":[],"outputs":[{"name":"","type":"address","internalType":"contract ISpellEngine"}],"stateMutability":"view"},{"type":"function","name":"spellRegistry","inputs":[],"outputs":[{"name":"","type":"address","internalType":"contract SpellRegistry"}],"stateMutability":"view"},{"type":"function","name":"stakerBps","inputs":[],"outputs":[{"name":"","type":"uint16","internalType":"uint16"}],"stateMutability":"view"},{"type":"function","name":"stakerDistributor","inputs":[],"outputs":[{"name":"","type":"address","internalType":"contract IStakerRewardDistributor"}],"stateMutability":"view"},{"type":"function","name":"streakCount","inputs":[{"name":"","type":"address","internalType":"address"}],"outputs":[{"name":"","type":"uint256","internalType":"uint256"}],"stateMutability":"view"},{"type":"function","name":"sweepUnclaimedPayouts","inputs":[{"name":"roundId","type":"uint256","internalType":"uint256"}],"outputs":[{"name":"sweptAmount","type":"uint256","internalType":"uint256"}],"stateMutability":"nonpayable"},{"type":"function","name":"topConsolation","inputs":[{"name":"","type":"uint256","internalType":"uint256"},{"name":"","type":"uint256","internalType":"uint256"}],"outputs":[{"name":"player","type":"address","internalType":"address"},{"name":"effectiveScore","type":"uint16","internalType":"uint16"},{"name":"stake","type":"uint256","internalType":"uint256"},{"name":"commitTime","type":"uint256","internalType":"uint256"}],"stateMutability":"view"},{"type":"function","name":"topValid","inputs":[{"name":"","type":"uint256","internalType":"uint256"},{"name":"","type":"uint256","internalType":"uint256"}],"outputs":[{"name":"player","type":"address","internalType":"address"},{"name":"effectiveScore","type":"uint16","internalType":"uint16"},{"name":"stake","type":"uint256","internalType":"uint256"},{"name":"commitTime","type":"uint256","internalType":"uint256"}],"stateMutability":"view"},{"type":"function","name":"treasuryFeeBps","inputs":[],"outputs":[{"name":"","type":"uint16","internalType":"uint16"}],"stateMutability":"view"},{"type":"function","name":"unpause","inputs":[],"outputs":[],"stateMutability":"nonpayable"},{"type":"event","name":"CommitSubmitted","inputs":[{"name":"roundId","type":"uint256","indexed":true,"internalType":"uint256"},{"name":"player","type":"address","indexed":true,"internalType":"address"},{"name":"stake","type":"uint256","indexed":false,"internalType":"uint256"},{"name":"timestamp","type":"uint256","indexed":false,"internalType":"uint256"},{"name":"streak","type":"uint256","indexed":false,"internalType":"uint256"}],"anonymous":false},{"type":"event","name":"JackpotSeeded","inputs":[{"name":"roundId","type":"uint256","indexed":true,"internalType":"uint256"},{"name":"bonusAmount","type":"uint256","indexed":false,"internalType":"uint256"}],"anonymous":false},{"type":"event","name":"JackpotTriggered","inputs":[{"name":"roundId","type":"uint256","indexed":true,"internalType":"uint256"},{"name":"bonusAmount","type":"uint256","indexed":false,"internalType":"uint256"}],"anonymous":false},{"type":"event","name":"Paused","inputs":[{"name":"account","type":"address","indexed":false,"internalType":"address"}],"anonymous":false},{"type":"event","name":"PayoutClaimed","inputs":[{"name":"roundId","type":"uint256","indexed":true,"internalType":"uint256"},{"name":"player","type":"address","indexed":true,"internalType":"address"},{"name":"amount","type":"uint256","indexed":false,"internalType":"uint256"}],"anonymous":false},{"type":"event","name":"RolloverAdded","inputs":[{"name":"roundId","type":"uint256","indexed":true,"internalType":"uint256"},{"name":"amount","type":"uint256","indexed":false,"internalType":"uint256"},{"name":"totalRollover","type":"uint256","indexed":false,"internalType":"uint256"}],"anonymous":false},{"type":"event","name":"RolloverApplied","inputs":[{"name":"roundId","type":"uint256","indexed":true,"internalType":"uint256"},{"name":"amount","type":"uint256","indexed":false,"internalType":"uint256"}],"anonymous":false},{"type":"event","name":"RoundFinalized","inputs":[{"name":"roundId","type":"uint256","indexed":true,"internalType":"uint256"},{"name":"totalPot","type":"uint256","indexed":false,"internalType":"uint256"},{"name":"burned","type":"uint256","indexed":false,"internalType":"uint256"},{"name":"numWinners","type":"uint32","indexed":false,"internalType":"uint32"}],"anonymous":false},{"type":"event","name":"RoundOpened","inputs":[{"name":"roundId","type":"uint256","indexed":true,"internalType":"uint256"},{"name":"letterPool","type":"bytes8","indexed":false,"internalType":"bytes8"},{"name":"rulerCommitHash","type":"bytes32","indexed":false,"internalType":"bytes32"},{"name":"startTime","type":"uint256","indexed":false,"internalType":"uint256"}],"anonymous":false},{"type":"event","name":"SeedAndRulerRevealed","inputs":[{"name":"roundId","type":"uint256","indexed":true,"internalType":"uint256"},{"name":"spellId","type":"uint8","indexed":false,"internalType":"uint8"},{"name":"spellParam","type":"bytes32","indexed":false,"internalType":"bytes32"},{"name":"validLengths","type":"uint8[3]","indexed":false,"internalType":"uint8[3]"}],"anonymous":false},{"type":"event","name":"StakerRewardDistributed","inputs":[{"name":"roundId","type":"uint256","indexed":true,"internalType":"uint256"},{"name":"amount","type":"uint256","indexed":false,"internalType":"uint256"}],"anonymous":false},{"type":"event","name":"TokensBurned","inputs":[{"name":"roundId","type":"uint256","indexed":true,"internalType":"uint256"},{"name":"amount","type":"uint256","indexed":false,"internalType":"uint256"},{"name":"newGlobalTotal","type":"uint256","indexed":false,"internalType":"uint256"}],"anonymous":false},{"type":"event","name":"UnclaimedPayoutsSwept","inputs":[{"name":"roundId","type":"uint256","indexed":true,"internalType":"uint256"},{"name":"amount","type":"uint256","indexed":false,"internalType":"uint256"},{"name":"operator","type":"address","indexed":false,"internalType":"address"}],"anonymous":false},{"type":"event","name":"Unpaused","inputs":[{"name":"account","type":"address","indexed":false,"internalType":"address"}],"anonymous":false},{"type":"event","name":"WordRevealed","inputs":[{"name":"roundId","type":"uint256","indexed":true,"internalType":"uint256"},{"name":"player","type":"address","indexed":true,"internalType":"address"},{"name":"effectiveScore","type":"uint16","indexed":false,"internalType":"uint16"},{"name":"spellPass","type":"bool","indexed":false,"internalType":"bool"},{"name":"lengthValid","type":"bool","indexed":false,"internalType":"bool"},{"name":"fullyValid","type":"bool","indexed":false,"internalType":"bool"}],"anonymous":false},{"type":"error","name":"EnforcedPause","inputs":[]},{"type":"error","name":"ExpectedPause","inputs":[]},{"type":"error","name":"ReentrancyGuardReentrantCall","inputs":[]}],"bytecode":{"object":"0x60a034620001bc57601f620041b438819003918201601f19168301916001600160401b03831184841017620001c05780849260e094604052833981010312620001bc576200004d81620001d4565b906200005c60208201620001d4565b916200006b60408301620001d4565b6200007960608401620001d4565b926200008860808201620001d4565b92620000a560c06200009d60a08501620001d4565b9301620001d4565b9360017f9b779b17422d0df92223018b32b4d1fa46e071723d6817e2486d003becc55f005560018060a01b0395868095818095166080528160018060a01b03199a168a6004541617600455168860055416176005555f5490610100600160a81b039060081b1690610100600160a81b031916175f5516856001541617600155168360025416176002551690600354161760035569d3c21bcecceda1000000600955666400640064012c60018060401b0319600a541617600a556969e10de76676d0800000600b556103e861ffff19600c541617600c55601e600d55604051613fca9081620001ea82396080518181816103e50152818161081601528181610f93015281816117f001528181612d0a01526130a50152f35b5f80fd5b634e487b7160e01b5f52604160045260245ffd5b51906001600160a01b0382168203620001bc5756fe60806040526004361015610011575f80fd5b5f803560e01c806306d46b6f1461350157806319f6a08a146134c95780631e82032514612fd05780631f0e8e4814612f7e578063304576b814612f10578063375b3c0a14612ef25780633ad202b514612ed45780633f4ba83a14612e5e578063448013a914612e355780634aa8589014612b1c5780634b6276aa14612afe57806352826c8d1461221757806353deb3d6146121f2578063570ca735146121c957806357b1f48e146121785780635c975abb146121565780636a67e5421461212d5780636d99445f146120a65780636f551bc6146120075780637b43875b14611be75780637bf5845114611b9c5780638208cdb014611b515780638456cb5914611aeb57806389fb2682146119315780638a69614e1461175c5780638a961598146115fe5780638c65c81f146114cd5780638da5cb5b146114a45780638f1327c01461115a57806392f992c1146110d35780639a15705f146110aa5780639cbe5efd1461108c5780639d03447f14610edd578063a42f45e714610ebf578063b03381bc14610e86578063b3ab15fb14610e3b578063b53b270714610e17578063c1ae963114610888578063c86c8bb214610863578063d377156814610845578063dec8555a14610845578063e49d93fb14610800578063e80cfa5e146107de578063e900ead814610344578063e90d4c061461026e578063ed0ae4f0146102435763f54131a61461021f575f80fd5b34610240578060031936011261024057602061ffff600c5416604051908152f35b80fd5b50346102405780600319360112610240575460405160089190911c6001600160a01b03168152602090f35b503461024057604036600319011261024057604061028a613587565b916004358152600f602052209060018060a01b03165f5260205261018060405f208054906001810154906002810154600382015460ff61ffff92816005600487015496015416956040519788526020880152604087015280821615156060870152808260081c1615156080870152808260101c16151560a0870152808260181c16151560c08701528160201c16151560e0860152818160281c1661010086015260381c166101208401526101408301521515610160820152f35b5034610240576040366003190112610240576024356103616138f6565b610369613f14565b600654808352600e6020526040832090600182015442106107a857600282015442101561076d576009548310610732578352600f60205260408320335f5260205260405f20546106f9576040516323b872dd60e01b81523360048201523060248201526044810183905290602082606481876001600160a01b037f0000000000000000000000000000000000000000000000000000000000000000165af19182156106ee57610120926106bf575b5061059d604051610427816136c5565b60043581528460208201524260408201528560608201528560808201528560a08201528560c08201528560e0820152856101008201528584820152600561014082018781526101608301908882526006548952600f60205260408920335f5260205261058160405f209480518655602081015160018701556040810151600287015560038601906104ca60608201511515839060ff801983541691151516179055565b6080810151825461ff00191690151560081b61ff001617825560a0810151825462ff0000191690151560101b62ff00001617825560c0810151825463ff000000191690151560181b63ff0000001617825560e0810151825464ff00000000191690151560201b64ff0000000016178255610100810151825466ffff0000000000191660289190911b66ffff00000000001617825561ffff998a910151825461ffff60381b1916911660381b61ffff60381b16179055565b51600484015551151591019060ff801983541691151516179055565b600c600a8201916105af858454613638565b809355019081549063ffffffff6105c7818416613849565b169060ff8263ffffffff1985161780865560881c161590816106b2575b50610647575b85856006543383526012602052604083205460405192835242602084015260408301527fbd7f3fc45eeb2a58393b5f86d94f5851102deede92a350c3cf009117f994040c60603393a360015f80516020613f758339815191525580f35b600160881b9171ff00000000000000000000000000ffffffff1916171790557ffa6bbca0a029728c0ddcda011a7934da4574ceb78e1873b5c7d1d28e4e9c3fb560206127106106a160065494600b5490600c541690613659565b04604051908152a25f8080806105ea565b9050600b5411155f6105e4565b6106e09060203d6020116106e7575b6106d88183613718565b810190613739565b505f610417565b503d6106ce565b6040513d86823e3d90fd5b60405162461bcd60e51b8152602060048201526011602482015270105b1c9958591e4818dbdb5b5a5d1d1959607a1b6044820152606490fd5b60405162461bcd60e51b815260206004820152601360248201527242656c6f77206d696e696d756d207374616b6560681b6044820152606490fd5b60405162461bcd60e51b815260206004820152601360248201527210dbdb5b5a5d081c1a185cd94818db1bdcd959606a1b6044820152606490fd5b60405162461bcd60e51b815260206004820152600e60248201526d2937bab732103737ba1037b832b760911b6044820152606490fd5b5034610240578060031936011261024057602061ffff600a5416604051908152f35b50346102405780600319360112610240576040517f00000000000000000000000000000000000000000000000000000000000000006001600160a01b03168152602090f35b50346102405780600319360112610240576020600854604051908152f35b5034610240578060031936011261024057602061ffff600a5460301c16604051908152f35b503461024057606036600319011261024057602460448035906001600160c01b031982168203610e13576108c760018060a01b0360045416331461378a565b6108cf613f14565b6001600160c01b0319821615610dcf57835b60088110610d4f57505082835b60088110610cdd5750600211610c86576109096006546138e8565b918260065561e10042014211610c61576201437042018061e100420111610c735762014dfc420110610c6157604051606081018181106001600160401b03821117610c4e576040528481528460208201528460408201526040519061096d826136e1565b84825242602083015261e1004201604083015262014dfc420160608301526001600160401b0360c01b841660808301528560a08301528560c083015260043560e08301528561010083015282356101208301526101408201528461016082015284610180820152846101a0820152846101c0820152846101e08201528461020082015284610220820152846102408201528461026082015284610280820152838552600e6020526040852081518155600160208301516001830155604083015160028301556003606084015160038401556004830191608085015160c01c6001600160401b0319845416178355610a8160ff9360ff60a08801511660ff60401b82549160401b169060ff60401b1916179055565b60c0850151600585015560e08501516006850155610100850151600785015561012085015160088501556101408501519189938a905b828210610c1d578b8b7f2dbd4a312a6f6cb03179309cc577208f3df96b559edf9faff48bd6bef030275d60608d8d8d600c8e8e6009820155610160830151600a820155610180830151600b8201550190610b9f63ffffffff806101a08401511663ffffffff19855416178455610b51816101c085015116859067ffffffff0000000082549160201b169067ffffffff000000001916179055565b6101e083015184546bffffffff0000000000000000191690821660401b63ffffffff60401b16178455610200830151845463ffffffff60601b1916911660601b63ffffffff60601b16178355565b610220810151151590825460ff60881b610240830151151560881b169060ff60901b610260840151151560901b169261028060ff60981b910151151560981b169360ff60801b9060801b169063ffffffff60801b1916171717179055604051916001600160401b0360c01b168252356020820152426040820152a280f35b9091926020610c428697858585995116919060ff809160031b9316831b921b19161790565b96019493920190610ab7565b82634e487b7160e01b5f5260416004525ffd5b634e487b7160e01b8452601160045283fd5b50634e487b7160e01b8452601160045283fd5b60405162461bcd60e51b815260206004820152602a818401527f4c657474657220706f6f6c206d75737420636f6e7461696e206174206c65617360448201526974203220766f77656c7360b01b6064820152608490fd5b82811a60418114908115610d44575b8115610d39575b8115610d2e575b8115610d23575b50610d0f575b6001016108ee565b90610d1b6001916138e8565b919050610d07565b60559150145f610d01565b604f81149150610cfa565b604981149150610cf3565b604581149150610cec565b82811a60418110159081610dc3575b5015610d6c576001016108e1565b60405162461bcd60e51b815260206004820152602b818601527f4c657474657220706f6f6c206d75737420636f6e7461696e206f6e6c79207570818401526a3832b931b0b9b2902096ad60a91b6064820152608490fd5b605a915011155f610d5e565b60405162461bcd60e51b815260206004820152601b818501527f4c657474657220706f6f6c2063616e6e6f7420626520656d70747900000000006044820152606490fd5b8380fd5b50346102405780600319360112610240576020600a5461ffff60405191831c168152f35b503461024057602036600319011261024057610e55613571565b6005546001600160a01b039190610e6f9083163314613751565b166001600160601b0360a01b600454161760045580f35b5034610240576020366003190112610240576020906040906001600160a01b03610eae613571565b168152601283522054604051908152f35b50346102405780600319360112610240576020600754604051908152f35b5034610240576020908160031936011261024057600480546001600160a01b039081169391359190610f1033861461378a565b828452600e82526040842060ff600c82015460881c161561104f57600b0180546110195782610f8f949596612710610f51600b5461ffff600c541690613659565b6040516323b872dd60e01b81526001600160a01b039093166004840152306024840152046044820181905290959093869182908a9082906064820190565b03927f0000000000000000000000000000000000000000000000000000000000000000165af190811561100e577f659ce6ecd75f2a83a3d7d54d6455d7a58d73db5e7dd683a208017e93312ed487948392610ff1575b5055604051908152a280f35b61100790853d87116106e7576106d88183613718565b505f610fe5565b6040513d88823e3d90fd5b60405162461bcd60e51b815260048101849052600e60248201526d105b1c9958591e481cd95959195960921b6044820152606490fd5b60405162461bcd60e51b8152600481018490526015602482015274129858dadc1bdd081b9bdd081d1c9a59d9d95c9959605a1b6044820152606490fd5b50346102405780600319360112610240576020600654604051908152f35b50346102405780600319360112610240576002546040516001600160a01b039091168152602090f35b5034610240576020366003190112610240576004358152600e6020526040812060ff600c82015460801c169081611112575b6020826040519015158152f35b60030154600d5462015180808202949293508115918504141715611146575060209161113d91613638565b4210155f611105565b634e487b7160e01b81526011600452602490fd5b5034610240576020366003190112610240578061028060405161117c816136e1565b8281528260208201528260408201528260608201528260808201528260a08201528260c08201528260e082015282610100820152826101208201526040516111c3816136fd565b60603682376101408201528261016082015282610180820152826101a0820152826101c0820152826101e08201528261020082015282610220820152826102408201528261026082015201526004358152600e602052604081209060ff600c6040519361122f856136e1565b805485526001810154602086015260028101546040860152600381015460608601528260048201546001600160401b0360c01b8160c01b16608088015260401c1660a0860152600581015460c0860152600681015460e0860152600781015461010086015260088101546101208601526040516112c9816009840160ff604091548181168452818160081c16602085015260101c16910152565b6112d2816136fd565b610140860152600a810154610160860152600b810154610180860152015463ffffffff81166101a085015263ffffffff8160201c166101c085015263ffffffff8160401c166101e085015263ffffffff8160601c16610200850152818160801c161515610220850152818160881c161515610240850152818160901c16151561026085015260981c16151561028083015260405190825182526020830151602083015260408301516040830152606083015160608301526001600160401b0360c01b608084015116608083015260ff60a08401511660a083015260c083015160c083015260e083015160e083015261010083015161010083015261012083015161012083015261014083015161014083019091905b6003821061148b576102e084610280876101608101516101a08401526101808101516101c084015263ffffffff6101a0820151166101e084015263ffffffff6101c08201511661020084015263ffffffff6101e08201511661022084015263ffffffff61020082015116610240840152610220810151151561026084015261024081015115158284015261026081015115156102a0840152015115156102c0820152f35b60208060019260ff8651168152019301910190916113e7565b50346102405780600319360112610240576005546040516001600160a01b039091168152602090f35b5034610240576020366003190112610240576040610280916004358152600e6020522060ff815491600181015490600281015460038201546004830154600584015460068501549087600787015493600888015495600a89015497600c600b8b01549a01549a60206040519e8f908152015260408d015260608c01526001600160401b0360c01b8160c01b1660808c015260401c1660a08a015260c089015260e088015261010087015261012086015261014085015261016084015263ffffffff811661018084015263ffffffff8160201c166101a084015263ffffffff8160401c166101c084015263ffffffff8160601c166101e0840152818160801c161515610200840152818160881c161515610220840152818160901c16151561024084015260981c161515610260820152f35b50346102405760e03660031901126102405760243561ffff8082168203611758576044359181831683036117585760643582811681036117585760a435928084168094036117585760c4359461165f60018060a01b03600554163314613751565b6103e8826116768561167185896138d2565b6138d2565b161161172457600786106116ec5765ffff0000000067ffff0000000000009260043560095563ffff0000600a54916116b287611671878b6138d2565b169660101b16906001600160401b031916179160201b16179160301b161717600a55608435600b5561ffff19600c541617600c55600d5580f35b60405162461bcd60e51b815260206004820152601060248201526f115e1c1a5c9e481d1bdbc81cda1bdc9d60821b6044820152606490fd5b60405162461bcd60e51b815260206004820152600c60248201526b08ccaca40e8dede40d0d2ced60a31b6044820152606490fd5b5f80fd5b50346102405760208060031936011261192d5760043561177a6138f6565b808352600f825260408320335f52825260405f20818452600e835260ff600c60408620015460801c16156118f857600481019081549081156118c757600501805460ff81166118905760ff1916600117905560405163a9059cbb60e01b81523360048201526024810191909152908382604481887f00000000000000000000000000000000000000000000000000000000000000006001600160a01b03165af1918215611885577fe97cee5a4c0549d3fdc81e322b718ddf0aeb3418ec87dce4f9a7fb28d117c31292611868575b5054926040519384523393a360015f80516020613f758339815191525580f35b61187e90853d87116106e7576106d88183613718565b505f611848565b6040513d87823e3d90fd5b60405162461bcd60e51b815260048101879052600f60248201526e105b1c9958591e4818db185a5b5959608a1b6044820152606490fd5b60405162461bcd60e51b8152600481018690526009602482015268139bc81c185e5bdd5d60ba1b6044820152606490fd5b60405162461bcd60e51b815260048101849052600d60248201526c139bdd08199a5b985b1a5e9959609a1b6044820152606490fd5b5080fd5b503461024057604036600319011261024057604061194d613587565b9180610160835161195d816136c5565b82815282602082015282858201528260608201528260808201528260a08201528260c08201528260e082015282610100820152826101208201528261014082015201526004358152600f602052209060018060a01b03165f5260205261018060405f206101606040516119cf816136c5565b60ff6005845494858452600181015460208501526002810154604085015261ffff600382015484811615156060870152848160081c1615156080870152848160101c16151560a0870152848160181c16151560c0870152848160201c16151560e0870152818160281c1661010087015260381c166101208501526004810154610140850152015416151582820152604051928352602081015160208401526040810151604084015260608101511515606084015260808101511515608084015260a0810151151560a084015260c0810151151560c084015260e0810151151560e084015261ffff6101008201511661010084015261ffff6101208201511661012084015261014081015161014084015201511515610160820152f35b5034610240578060031936011261024057611b1160018060a01b03600554163314613751565b611b19613f14565b600160ff198254161781557f62e78cea01bee320cd4e420270b5ea74000d11b0c9f74754ebdbfc544b05a2586020604051338152a180f35b503461024057602036600319011261024057611b6b613571565b6005546001600160a01b039190611b859083163314613751565b166001600160601b0360a01b600254161760025580f35b503461024057602036600319011261024057611bb6613571565b6005546001600160a01b039190611bd09083163314613751565b166001600160601b0360a01b600154161760015580f35b50346102405760a0366003190112610240576004353660841161192d576004546001600160a01b0390611c1d908216331461378a565b60065483526020600e8152604084209160028301544210611fca57600c83019182549460ff95611c5360ff8260901c16156137c6565b6040518381019083825284815260408101918183106001600160401b03841117611fb6578260405281519020600689015403611f86575050600393600354169486549160088801549660405163d58133ed60e01b8152846004820152602498611cbd8a830161389d565b608435608483015260a4820152868160c481855afa908115611f7b578c91611f5e575b5015611f1a578560649160405192838092631ffc3b5160e31b8252611d076004830161389d565b5afa908115611f0f578b91611ef2575b5015611eb657836007890155868a908b5b888110611e83575050600989015561ffff60901b191661010160901b179055435f19810191908211611e705760405191848301938452406040830152606082015260608152611d76816136aa565b51902060048501805468ff0000000000000000191668030000000000000000604084901b161781559590600360ff885460401c16105f14611e635760079060081c16865460c01b6008821015611e5057901a60f81b6001600160f81b0319166005860155925b600560ff8654975460401c16950154604051958652828601526040850190935f915b848310611e2f5788887fd8c6e0639eac1b4c12246f9855a9ed82d897723e4ef3890e16a2035bde345e0f60a08aa280f35b85359082821680920361175857848160019382935201960192019194611dfe565b634e487b7160e01b895260326004528589fd5b5086600586015592611ddc565b634e487b7160e01b895260116004528589fd5b909182358c8116810361175857611ead8991846001949060ff809160031b9316831b921b19161790565b93019101611d28565b60405162461bcd60e51b81526004810186905260158189015274496e76616c69642072756c6572206c656e6774687360581b6044820152606490fd5b611f099150863d88116106e7576106d88183613718565b5f611d17565b6040513d8d823e3d90fd5b60405162461bcd60e51b8152600481018790526019818a01527f52756c657220636f6d6d69746d656e74206d69736d61746368000000000000006044820152606490fd5b611f759150873d89116106e7576106d88183613718565b5f611ce0565b6040513d8e823e3d90fd5b906c0a6cacac840dad2e6dac2e8c6d609b1b60846064938762461bcd60e51b85526044820152600d858201520152fd5b634e487b7160e01b5f52604160045260245ffd5b60405162461bcd60e51b815260048101839052601560248201527421b7b6b6b4ba10383430b9b2903737ba1037bb32b960591b6044820152606490fd5b50346102405760208060031936011261192d5760043582526010815260408220918254906001600160401b03821161209257926040519261204d818460051b0185613718565b82845280840191855280852094915b838310612075576040518061207187826135cd565b0390f35b6003826001926120848961385e565b81520196019201919461205c565b634e487b7160e01b81526041600452602490fd5b50346102405760208060031936011261192d5760043582526011815260408220918254906001600160401b0382116120925792604051926120ec818460051b0185613718565b82845280840191855280852094915b838310612110576040518061207187826135cd565b60038260019261211f8961385e565b8152019601920191946120fb565b50346102405780600319360112610240576001546040516001600160a01b039091168152602090f35b503461024057806003193601126102405760ff60209154166040519015158152f35b5034610240576020366003190112610240576004358152600e6020526003604082200154600d549162015180928381029381850414901517156111465760206121c18484613638565b604051908152f35b50346102405780600319360112610240576004546040516001600160a01b039091168152602090f35b5034610240578060031936011261024057602061ffff600a5460101c16604051908152f35b5034610240576080366003190112610240576001600160401b03600435818111612afa5736602382011215612afa5781816004013511612afa57366024826004013583010111612afa57604435828111610e135761227990369060040161359d565b9092606435908111612af65761229390369060040161359d565b909261229d6138f6565b60065494858752600e6020526040872091600f60205260408820335f5260205260405f209260028101544210612abf576003810154421015612a84578354968715612a4f576003850154936122f560ff8616156137c6565b61230736856004013560248701613aa8565b978851996123148b613a8d565b9a6123226040519c8d613718565b808c52612331601f1991613a8d565b013660208d01378c5b8d8b518210156123db57600191908d908d9083906001600160f81b0319604160f81b816123678587613ade565b51161015806123c1575b156123a4576123838361239c95613ade565b5161239160f891821c613aef565b901b16901a92613ade565b535b0161233a565b6123b1836123bb95613ade565b5116901a92613ade565b5361239e565b50602d60f91b816123d28587613ade565b51161115612371565b9a50508b8b6040519160208301523360601b6040830152818151918d5b838110612a375750508061242092607492016024356054820152036054810184520182613718565b60208151910120036129fc57600154604080516314b8974960e31b815260048101919091529260209284926001600160a01b031691839182916124869161246c91604485019190613805565b6003198382030160248401528a6004013560248c01613829565b03915afa9081156129f15788916129d2575b5015612999576004820154906124b98260c01b856004013560248701613b25565b156129625760209160ff60018060a01b038a5460081c169161252a6005870154946040519b8c968795869563022b5b7560e41b875260401c166004860152602485015260806044850152612518608485018b6004013560248d01613829565b84810360031901606486015291613805565b03915afa94851561100e57869561293e575b50608490602060018060a01b036003541660405193848092632a62217360e11b825287600401356004830152612592602483016009880160ff604091548181168452818160081c16602085015260101c16910152565b5afa92831561293357869485938995612912575b508395612909575b83612900575b66ffffffffff000019600161ff008a151560081b1661ffff199390931692909217919091171662ff000085151560101b161763ff00000086151560181b161764ff0000000084151560201b161760049091013560281b66ffff00000000001617600386015585156128eb5761266461ffff606461264261263333613c95565b8360038b015460281c16613659565b0416600387019061ffff60381b82549160381b169061ffff60381b1916179055565b3387526013602052604087205460065490815f198101116128d757600c9291905f198201036128b457503388526012602052604088206126a481546138e8565b90555b60065433895260136020526040892055019063ffffffff906126f36126d183855460201c16613849565b845467ffffffff00000000191660209190911b67ffffffff0000000016178455565b600386015490600187015460028801549061ffff60405194612714866136aa565b33865260381c166020850152604084015260608301528515612827575060065488526010602052604088209082845460201c16600a810290808204600a149015171561281357612789926127a8959492606461277e9304600381105f1461280d5750600391613d81565b825460401c16613849565b63ffffffff60401b82549160401b169063ffffffff60401b1916179055565b61ffff600360065494015460381c16936040519485521515602085015215156040840152151560608301527fbafcbe0bcb12be1bcba8e93d2c2a1f5a5354246da0cfbd409cbe845c1558ed1060803393a360015f80516020613f758339815191525580f35b91613d81565b634e487b7160e01b8a52601160045260248afd5b612834575b5050506127a8565b60065488526011602052604088209082845460201c166005810290808204600514901517156128135761288c926128ac95949260646128819304600181105f1461280d5750600191613d81565b825460601c16613849565b815463ffffffff60601b191660609190911b63ffffffff60601b16179055565b85808061282c565b33895260136020526040892054146126a7576012602052600160408920556126a7565b634e487b7160e01b89526011600452602489fd5b60038501805461ffff60381b19169055612664565b841593506125b4565b945083946125ae565b61292c91955060203d6020116106e7576106d88183613718565b93896125a6565b6040513d89823e3d90fd5b608491955061295b9060203d6020116106e7576106d88183613718565b949061253c565b60405162461bcd60e51b815260206004820152600f60248201526e496e76616c6964206c65747465727360881b6044820152606490fd5b60405162461bcd60e51b81526020600482015260116024820152704e6f7420696e2064696374696f6e61727960781b6044820152606490fd5b6129eb915060203d6020116106e7576106d88183613718565b88612498565b6040513d8a823e3d90fd5b60405162461bcd60e51b8152602060048201526013602482015272086dedadad2e8dacadce840dad2e6dac2e8c6d606b1b6044820152606490fd5b602082820181015160548784010152859350016123f8565b60405162461bcd60e51b815260206004820152600d60248201526c139bc818dbdb5b5a5d1b595b9d609a1b6044820152606490fd5b60405162461bcd60e51b815260206004820152601360248201527214995d99585b081c1a185cd94818db1bdcd959606a1b6044820152606490fd5b60405162461bcd60e51b815260206004820152600f60248201526e2932bb32b0b6103737ba1037b832b760891b6044820152606490fd5b8480fd5b8280fd5b50346102405780600319360112610240576020600d54604051908152f35b503461024057602090816003193601126102405760043560018060a01b0391612b4a8360045416331461378a565b612b526138f6565b818152600e8452604081209160ff9260ff600c82015460801c1615612dfa5760030154600d54906201518091828102928184041490151715612de65790612b9891613638565b4210612da15781818152601086526040812094815b8654811015612c265781612bc18289613544565b505416848452600f895260408420905f52885260405f20600481015480151580612c18575b612bf5575b5050600101612bad565b612c056005916001949398613638565b9601805460ff191683179055905f612beb565b508760058301541615612be6565b5082825260118752604082209550815b8654811015612caf5781612c4a8289613544565b505416848452600f895260408420905f52885260405f20600481015480151580612ca1575b612c7e575b5050600101612c36565b612c8e6005916001949398613638565b9601805460ff191683179055905f612c74565b508760058301541615612c6f565b509086945083612cd6575b50505060015f80516020613f7583398151915255604051908152f35b6004805460405163a9059cbb60e01b81529084166001600160a01b03169181019190915260248101859052908582604481847f000000000000000000000000000000000000000000000000000000000000000088165af1908115612d955750916040917f9950c16c540087f1266b27638b9791d7c974dd39551c41a1325e177beaac5fbc93612d78575b506004541681519085825286820152a2828080612cba565b612d8e90873d89116106e7576106d88183613718565b5086612d60565b604051903d90823e3d90fd5b60405162461bcd60e51b815260048101869052601960248201527f5061796f757420657870697279206e6f742072656163686564000000000000006044820152606490fd5b634e487b7160e01b84526011600452602484fd5b60405162461bcd60e51b8152600481018790526013602482015272149bdd5b99081b9bdd08199a5b985b1a5e9959606a1b6044820152606490fd5b50346102405780600319360112610240576003546040516001600160a01b039091168152602090f35b5034610240578060031936011261024057612e8460018060a01b03600554163314613751565b805460ff811615612ec25760ff191681557f5db9ee0a495bf2e6ff9c91a7834c1ba4fdd244a5e8aa4e537bd38aeae4b073aa6020604051338152a180f35b604051638dfc202b60e01b8152600490fd5b50346102405780600319360112610240576020600b54604051908152f35b50346102405780600319360112610240576020600954604051908152f35b503461024057612f1f3661352e565b9082526011602052604082208054821015612afa57612f3e9250613544565b5080546001820154600290920154604080516001600160a01b038416815260a09390931c61ffff1660208401528201929092526060810191909152608090f35b503461024057602036600319011261024057612f98613571565b612fad60018060a01b03600554163314613751565b8154610100600160a81b03191660089190911b610100600160a81b031617815580f35b5034611758575f36600319011261175857612fe96138f6565b60068054805f526020600e815260405f20926003840154421061349257600c84019360ff855460801c166134595780600b600a61302b93015491015490613638565b926130396008548095613638565b938381613424575b505050600a54936127109461ffff9561308081613063898560101c1689613659565b04978261307482868a1c168a613659565b049360301c1687613659565b049061309982613094836130948b8b61368a565b61368a565b916001600160a01b03917f0000000000000000000000000000000000000000000000000000000000000000831690813b1561175857604051630852cd8d60e31b8152600481018b90525f8160248183875af1801561341957613400575b50908a8893928b7fe25c13ab9b2aded7bb7d39d4829c2efb98edd820bd84d49234678cedc8b8fd56604061312c83600754613638565b92836007558c5493825191825289820152a28560025416801515806133f7575b6132f7575b50505081613292575b50505050605a8102818104605a148215171561327e579161321e7fa623e393dac7626c7c243fb732de9a6633ec0ac9a11fd90ba382b6d2ae0666de9694926131a960646060989604809261368a565b90845490818c526010875260408c2080541580613275575b15613267575090507f53255d87c2093234b4861ba8a8c0cb27d23b8b56e2bd9fd1aa2f66e401af9e6160406131f883600854613638565b9283600855875493825191825289820152a25b8354808b526011865260408b20906139cd565b600160801b60ff60801b1982541617905554948587526010825263ffffffff604088205416916040519384528301526040820152a260015f80516020613f758339815191525580f35b61327092613925565b61320b565b508115156131c1565b634e487b7160e01b88526011600452602488fd5b6004805460405163a9059cbb60e01b815295166001600160a01b03169085015260248401919091528290818b816044810103925af180156129f1576132da575b84818061315a565b6132f090853d87116106e7576106d88183613718565b505f6132d2565b60405163a9059cbb60e01b81526001600160a01b039190911660048201526024810182905291949091908160448188875af18015611885576133da575b5084600254168854813b156133d6578591604483926040519889938492633a06962160e21b845260048401528760248401525af19485156133c9578a956133ac575b50507f5b98f297c65d4dde52e0e7c1f8de705c39cb278e8ed11c2b95de9663e1a4635284895492604051908152a28a5f80613151565b6133b891929550613697565b6133c55787928b5f613376565b8a80fd5b50604051903d90823e3d90fd5b8580fd5b6133f0908a3d8c116106e7576106d88183613718565b505f613334565b5081151561314c565b889392919b5061340f90613697565b5f9a9091926130f6565b6040513d5f823e3d90fd5b7f9df2388d2f254b6e9d2bb1a0cf485e76512b5753c746d6927832af91bbf7f3b191604051908152a25f6008555f8083613041565b60405162461bcd60e51b8152600481018490526011602482015270105b1c9958591e48199a5b985b1a5e9959607a1b6044820152606490fd5b60405162461bcd60e51b815260048101839052600f60248201526e2932bb32b0b6103737ba1037bb32b960891b6044820152606490fd5b34611758576020366003190112611758576001600160a01b036134ea613571565b165f526013602052602060405f2054604051908152f35b346117585761350f3661352e565b905f52601060205260405f2090815481101561175857612f3e91613544565b6040906003190112611758576004359060243590565b805482101561355d575f52600360205f20910201905f90565b634e487b7160e01b5f52603260045260245ffd5b600435906001600160a01b038216820361175857565b602435906001600160a01b038216820361175857565b9181601f84011215611758578235916001600160401b038311611758576020808501948460051b01011161175857565b60208082019080835283518092528060408094019401925f905b8382106135f657505050505090565b845180516001600160a01b031687528084015161ffff1687850152808201518783015260609081015190870152608090950194938201936001909101906135e7565b9190820180921161364557565b634e487b7160e01b5f52601160045260245ffd5b8181029291811591840414171561364557565b8115613676570490565b634e487b7160e01b5f52601260045260245ffd5b9190820391821161364557565b6001600160401b038111611fb657604052565b608081019081106001600160401b03821117611fb657604052565b61018081019081106001600160401b03821117611fb657604052565b6102a081019081106001600160401b03821117611fb657604052565b606081019081106001600160401b03821117611fb657604052565b90601f801991011681019081106001600160401b03821117611fb657604052565b90816020910312611758575180151581036117585790565b1561375857565b60405162461bcd60e51b815260206004820152600a60248201526927b7363c9037bbb732b960b11b6044820152606490fd5b1561379157565b60405162461bcd60e51b815260206004820152600d60248201526c27b7363c9037b832b930ba37b960991b6044820152606490fd5b156137cd57565b60405162461bcd60e51b815260206004820152601060248201526f105b1c9958591e481c995d99585b195960821b6044820152606490fd5b81835290916001600160fb1b0383116117585760209260051b809284830137010190565b908060209392818452848401375f828201840152601f01601f1916010190565b63ffffffff8091169081146136455760010190565b9060405161386b816136aa565b82546001600160a01b038116825260a01c61ffff16602082015260018301546040820152600292909201546060830152565b60245f915b600383106138af57505050565b81359060ff821680920361175857600191815260208091019201920191906138a2565b91909161ffff8080941691160191821161364557565b5f1981146136455760010190565b5f80516020613f7583398151915260028154146139135760029055565b604051633ee5aeb560e01b8152600490fd5b90929183549081156139c6575f915f905b8082106139a65750505f5b85548082101561399d579061396a8461396561395f8460019661368a565b86613659565b61366c565b855f5260046020600f8152604090815f2090613986868d613544565b50878060a01b039054165f52525f20015501613941565b50505050509050565b90926139be6001916139b8868561368a565b90613638565b930190613936565b5050509050565b9092919280549384156139c6575f945f905b808210613a735750505f5b82548082101561399d5790613a088761396561395f8460019661368a565b855f52600f906020828152604090815f2090613a24868a613544565b5091878060a01b03809354165f52815286835f200154808511613a6a575b50600493948a5f528152825f2091613a5a878b613544565b5054165f52525f200155016139ea565b93506004613a42565b9095613a856001916139b8898561368a565b9601906139df565b6001600160401b038111611fb657601f01601f191660200190565b929192613ab482613a8d565b91613ac26040519384613718565b829481845281830111611758578281602093845f960137010152565b90815181101561355d570160200190565b60ff60209116019060ff821161364557565b60ff6060199116019060ff821161364557565b90601a81101561355d5760051b0190565b613b30913691613aa8565b90604051906103408083018381106001600160401b03821117611fb6576040523683375f5b60088110613bfe5750505f5b8251811015613bf657613b748184613ade565b5160f81c604181101580613beb575b613bdd575b60ff9081811660618110908115613bd2575b50613bc95781613bac613bb392613b01565b1684613b14565b511615613bc257600101613b61565b5050505f90565b50505050505f90565b607a9150115f613b9a565b613be690613aef565b613b88565b50605a811115613b83565b505050600190565b81811a90604182101580613c8a575b613c7a575b60ff9182811660618110159081613c6e575b50613c35575b506001915001613b55565b613c3f8391613b01565b169180613c4c8487613b14565b511690808214613645576001613c63819588613b14565b92011690525f613c2a565b607a915011155f613c24565b90613c8490613aef565b90613c12565b50605a821115613c0d565b60018060a01b0316805f52601260205260405f205490601360205260405f205490600654915f198301908382116136455703613d06575050613cd6906138e8565b600e811015613d00576007811015613cfa5760031115613cf557606490565b606e90565b50607d90565b50609690565b5f52601360205260405f20540315613cd657506001613cd6565b9190613d6e5780518254602083015161ffff60a01b60a09190911b166001600160a01b039092166001600160b01b031990911617178255600290606090604081015160018501550151910155565b634e487b7160e01b5f525f60045260245ffd5b92919091835492835f5b818110613ee4575b5083851015613edc57838110613eb1575b5084545f199490858101908111613645575b818111613e23575090613dcc613dd29287613544565b90613d20565b835482811115613e1c578015613e08578301613dee8186613544565b613d6e576002815f80935582600182015501558455613dd2565b634e487b7160e01b5f52603160045260245ffd5b5092505050565b85810181811161364557613e379088613544565b50613e428289613544565b919091613d6e57808203613e60575b50508015613645578501613db6565b805482546001600160a01b039091166001600160a01b0319821681178455825461ffff60a01b166001600160b01b031990921617178255600180820154908301556002809101549101555f80613e51565b68010000000000000000811015611fb65781613dcc826001613ed69401895588613544565b5f613da4565b505092505050565b613f00613efa613ef4838a613544565b5061385e565b84613f31565b613f0c57600101613d8b565b94505f613d93565b60ff5f5416613f1f57565b60405163d93c066560e01b8152600490fd5b61ffff806020830151169060208401511690818103613f6d5750506040810151604083015190818103613f6d5750506060809101519101511190565b119291505056fe9b779b17422d0df92223018b32b4d1fa46e071723d6817e2486d003becc55f00a26469706673582212200be8719bdd6cc4663472a4d0dd323b1d0742e1d3a10e8c70cfe3fcc2dcede59964736f6c63430008180033","linkReferences":{}},"methodIdentifiers":{"burnBps()":"53deb3d6","canSweepPayouts(uint256)":"92f992c1","claimPayout(uint256)":"8a69614e","clawdiaToken()":"e49d93fb","commit(bytes32,uint256)":"e900ead8","commitments(uint256,address)":"e90d4c06","currentRoundId()":"9cbe5efd","dictionaryVerifier()":"6a67e542","finalizeRound()":"1e820325","getCommitment(uint256,address)":"89fb2682","getPayoutExpiryTimestamp(uint256)":"57b1f48e","getRolloverAmount()":"d3771568","getRound(uint256)":"8f1327c0","getTopConsolation(uint256)":"6d99445f","getTopValid(uint256)":"6f551bc6","globalBurnCounter()":"a42f45e7","jackpotBonusBps()":"f54131a6","jackpotThreshold()":"3ad202b5","lastParticipatedRound(address)":"19f6a08a","minStake()":"375b3c0a","openRound(bytes32,bytes32,bytes8)":"c1ae9631","operationsBps()":"c86c8bb2","operator()":"570ca735","owner()":"8da5cb5b","pause()":"8456cb59","paused()":"5c975abb","payoutExpiryDays()":"4b6276aa","reveal(string,bytes32,bytes32[],bytes32[])":"52826c8d","revealSeedAndRuler(bytes32,uint8[3],bytes32)":"7b43875b","rolloverAmount()":"dec8555a","rounds(uint256)":"8c65c81f","seedJackpotBonus(uint256)":"9d03447f","setConfig(uint256,uint16,uint16,uint16,uint256,uint16,uint256)":"8a961598","setDictionaryVerifier(address)":"7bf58451","setOperator(address)":"b3ab15fb","setSpellEngine(address)":"1f0e8e48","setStakerDistributor(address)":"8208cdb0","spellEngine()":"ed0ae4f0","spellRegistry()":"448013a9","stakerBps()":"b53b2707","stakerDistributor()":"9a15705f","streakCount(address)":"b03381bc","sweepUnclaimedPayouts(uint256)":"4aa85890","topConsolation(uint256,uint256)":"304576b8","topValid(uint256,uint256)":"06d46b6f","treasuryFeeBps()":"e80cfa5e","unpause()":"3f4ba83a"},"id":31}